{
    "contractName": "Streal",
    "abi": [
        {
            "inputs": [],
            "stateMutability": "nonpayable",
            "type": "constructor"
        },
        {
            "inputs": [],
            "name": "DSCEngine__NeedsMoreThanZero",
            "type": "error"
        },
        {
            "anonymous": false,
            "inputs": [
                {
                    "indexed": true,
                    "internalType": "address",
                    "name": "owner",
                    "type": "address"
                },
                {
                    "indexed": true,
                    "internalType": "address",
                    "name": "spender",
                    "type": "address"
                },
                {
                    "indexed": false,
                    "internalType": "uint256",
                    "name": "value",
                    "type": "uint256"
                }
            ],
            "name": "Approval",
            "type": "event"
        },
        {
            "anonymous": false,
            "inputs": [
                {
                    "indexed": true,
                    "internalType": "address",
                    "name": "previousOwner",
                    "type": "address"
                },
                {
                    "indexed": true,
                    "internalType": "address",
                    "name": "newOwner",
                    "type": "address"
                }
            ],
            "name": "OwnershipTransferred",
            "type": "event"
        },
        {
            "anonymous": false,
            "inputs": [
                {
                    "indexed": true,
                    "internalType": "bytes32",
                    "name": "role",
                    "type": "bytes32"
                },
                {
                    "indexed": true,
                    "internalType": "bytes32",
                    "name": "previousAdminRole",
                    "type": "bytes32"
                },
                {
                    "indexed": true,
                    "internalType": "bytes32",
                    "name": "newAdminRole",
                    "type": "bytes32"
                }
            ],
            "name": "RoleAdminChanged",
            "type": "event"
        },
        {
            "anonymous": false,
            "inputs": [
                {
                    "indexed": true,
                    "internalType": "bytes32",
                    "name": "role",
                    "type": "bytes32"
                },
                {
                    "indexed": true,
                    "internalType": "address",
                    "name": "account",
                    "type": "address"
                },
                {
                    "indexed": true,
                    "internalType": "address",
                    "name": "sender",
                    "type": "address"
                }
            ],
            "name": "RoleGranted",
            "type": "event"
        },
        {
            "anonymous": false,
            "inputs": [
                {
                    "indexed": true,
                    "internalType": "bytes32",
                    "name": "role",
                    "type": "bytes32"
                },
                {
                    "indexed": true,
                    "internalType": "address",
                    "name": "account",
                    "type": "address"
                },
                {
                    "indexed": true,
                    "internalType": "address",
                    "name": "sender",
                    "type": "address"
                }
            ],
            "name": "RoleRevoked",
            "type": "event"
        },
        {
            "anonymous": false,
            "inputs": [
                {
                    "indexed": false,
                    "internalType": "uint256",
                    "name": "id",
                    "type": "uint256"
                }
            ],
            "name": "Snapshot",
            "type": "event"
        },
        {
            "anonymous": false,
            "inputs": [
                {
                    "indexed": true,
                    "internalType": "address",
                    "name": "from",
                    "type": "address"
                },
                {
                    "indexed": true,
                    "internalType": "address",
                    "name": "to",
                    "type": "address"
                },
                {
                    "indexed": false,
                    "internalType": "uint256",
                    "name": "value",
                    "type": "uint256"
                }
            ],
            "name": "Transfer",
            "type": "event"
        },
        {
            "anonymous": false,
            "inputs": [
                {
                    "indexed": true,
                    "internalType": "address",
                    "name": "user",
                    "type": "address"
                },
                {
                    "indexed": true,
                    "internalType": "address",
                    "name": "token",
                    "type": "address"
                },
                {
                    "indexed": false,
                    "internalType": "uint256",
                    "name": "amount",
                    "type": "uint256"
                }
            ],
            "name": "collateralDeposited",
            "type": "event"
        },
        {
            "inputs": [],
            "name": "ADMIN_ROLE",
            "outputs": [
                {
                    "internalType": "bytes32",
                    "name": "",
                    "type": "bytes32"
                }
            ],
            "stateMutability": "view",
            "type": "function"
        },
        {
            "inputs": [],
            "name": "DEFAULT_ADMIN_ROLE",
            "outputs": [
                {
                    "internalType": "bytes32",
                    "name": "",
                    "type": "bytes32"
                }
            ],
            "stateMutability": "view",
            "type": "function"
        },
        {
            "inputs": [],
            "name": "Liquidation_bonus",
            "outputs": [
                {
                    "internalType": "uint256",
                    "name": "",
                    "type": "uint256"
                }
            ],
            "stateMutability": "view",
            "type": "function"
        },
        {
            "inputs": [
                {
                    "internalType": "address",
                    "name": "",
                    "type": "address"
                },
                {
                    "internalType": "address",
                    "name": "",
                    "type": "address"
                }
            ],
            "name": "_collateralDeposited",
            "outputs": [
                {
                    "internalType": "uint256",
                    "name": "",
                    "type": "uint256"
                }
            ],
            "stateMutability": "view",
            "type": "function"
        },
        {
            "inputs": [
                {
                    "internalType": "uint256",
                    "name": "",
                    "type": "uint256"
                }
            ],
            "name": "_collateralTokens",
            "outputs": [
                {
                    "internalType": "address",
                    "name": "",
                    "type": "address"
                }
            ],
            "stateMutability": "view",
            "type": "function"
        },
        {
            "inputs": [
                {
                    "internalType": "address[]",
                    "name": "recipients",
                    "type": "address[]"
                },
                {
                    "internalType": "uint256[]",
                    "name": "values",
                    "type": "uint256[]"
                }
            ],
            "name": "airdrop",
            "outputs": [
                {
                    "internalType": "bool",
                    "name": "success",
                    "type": "bool"
                }
            ],
            "stateMutability": "nonpayable",
            "type": "function"
        },
        {
            "inputs": [],
            "name": "airdrops",
            "outputs": [
                {
                    "internalType": "uint256",
                    "name": "",
                    "type": "uint256"
                }
            ],
            "stateMutability": "view",
            "type": "function"
        },
        {
            "inputs": [
                {
                    "internalType": "address",
                    "name": "owner",
                    "type": "address"
                },
                {
                    "internalType": "address",
                    "name": "spender",
                    "type": "address"
                }
            ],
            "name": "allowance",
            "outputs": [
                {
                    "internalType": "uint256",
                    "name": "",
                    "type": "uint256"
                }
            ],
            "stateMutability": "view",
            "type": "function"
        },
        {
            "inputs": [
                {
                    "internalType": "address",
                    "name": "spender",
                    "type": "address"
                },
                {
                    "internalType": "uint256",
                    "name": "amount",
                    "type": "uint256"
                }
            ],
            "name": "approve",
            "outputs": [
                {
                    "internalType": "bool",
                    "name": "",
                    "type": "bool"
                }
            ],
            "stateMutability": "nonpayable",
            "type": "function"
        },
        {
            "inputs": [],
            "name": "balance",
            "outputs": [
                {
                    "internalType": "uint256[]",
                    "name": "",
                    "type": "uint256[]"
                }
            ],
            "stateMutability": "view",
            "type": "function"
        },
        {
            "inputs": [
                {
                    "internalType": "address",
                    "name": "account",
                    "type": "address"
                }
            ],
            "name": "balanceOf",
            "outputs": [
                {
                    "internalType": "uint256",
                    "name": "",
                    "type": "uint256"
                }
            ],
            "stateMutability": "view",
            "type": "function"
        },
        {
            "inputs": [
                {
                    "internalType": "address",
                    "name": "account",
                    "type": "address"
                },
                {
                    "internalType": "uint256",
                    "name": "snapshotId",
                    "type": "uint256"
                }
            ],
            "name": "balanceOfAt",
            "outputs": [
                {
                    "internalType": "uint256",
                    "name": "",
                    "type": "uint256"
                }
            ],
            "stateMutability": "view",
            "type": "function"
        },
        {
            "inputs": [
                {
                    "internalType": "uint256",
                    "name": "_amount",
                    "type": "uint256"
                }
            ],
            "name": "burn",
            "outputs": [],
            "stateMutability": "nonpayable",
            "type": "function"
        },
        {
            "inputs": [
                {
                    "internalType": "uint256",
                    "name": "_amount",
                    "type": "uint256"
                }
            ],
            "name": "burnForCommerce",
            "outputs": [],
            "stateMutability": "nonpayable",
            "type": "function"
        },
        {
            "inputs": [
                {
                    "internalType": "address",
                    "name": "account",
                    "type": "address"
                },
                {
                    "internalType": "uint256",
                    "name": "amount",
                    "type": "uint256"
                }
            ],
            "name": "burnFrom",
            "outputs": [],
            "stateMutability": "nonpayable",
            "type": "function"
        },
        {
            "inputs": [
                {
                    "internalType": "address",
                    "name": "tokenCollateralAddress",
                    "type": "address"
                },
                {
                    "internalType": "uint256",
                    "name": "amountCollateral",
                    "type": "uint256"
                }
            ],
            "name": "calculateEquivalentAmountToMint",
            "outputs": [
                {
                    "internalType": "uint256",
                    "name": "",
                    "type": "uint256"
                }
            ],
            "stateMutability": "view",
            "type": "function"
        },
        {
            "inputs": [],
            "name": "decimals",
            "outputs": [
                {
                    "internalType": "uint8",
                    "name": "",
                    "type": "uint8"
                }
            ],
            "stateMutability": "view",
            "type": "function"
        },
        {
            "inputs": [
                {
                    "internalType": "address",
                    "name": "spender",
                    "type": "address"
                },
                {
                    "internalType": "uint256",
                    "name": "subtractedValue",
                    "type": "uint256"
                }
            ],
            "name": "decreaseAllowance",
            "outputs": [
                {
                    "internalType": "bool",
                    "name": "",
                    "type": "bool"
                }
            ],
            "stateMutability": "nonpayable",
            "type": "function"
        },
        {
            "inputs": [
                {
                    "internalType": "address",
                    "name": "tokenCollateralAddress",
                    "type": "address"
                },
                {
                    "internalType": "uint256",
                    "name": "amountCollateral",
                    "type": "uint256"
                }
            ],
            "name": "depositCollateralAndMintStreal",
            "outputs": [],
            "stateMutability": "nonpayable",
            "type": "function"
        },
        {
            "inputs": [
                {
                    "internalType": "uint256",
                    "name": "amountStreal",
                    "type": "uint256"
                },
                {
                    "internalType": "address",
                    "name": "tokenCollateralAddress",
                    "type": "address"
                }
            ],
            "name": "depositStrealAndGetToken",
            "outputs": [],
            "stateMutability": "nonpayable",
            "type": "function"
        },
        {
            "inputs": [
                {
                    "internalType": "address",
                    "name": "user",
                    "type": "address"
                }
            ],
            "name": "getAccountCollateralValueInUsd",
            "outputs": [
                {
                    "internalType": "uint256",
                    "name": "totalCollateralValueInUsd",
                    "type": "uint256"
                }
            ],
            "stateMutability": "view",
            "type": "function"
        },
        {
            "inputs": [
                {
                    "internalType": "bytes32",
                    "name": "role",
                    "type": "bytes32"
                }
            ],
            "name": "getRoleAdmin",
            "outputs": [
                {
                    "internalType": "bytes32",
                    "name": "",
                    "type": "bytes32"
                }
            ],
            "stateMutability": "view",
            "type": "function"
        },
        {
            "inputs": [
                {
                    "internalType": "address",
                    "name": "token",
                    "type": "address"
                },
                {
                    "internalType": "uint256",
                    "name": "amount",
                    "type": "uint256"
                }
            ],
            "name": "getUsdValue",
            "outputs": [
                {
                    "internalType": "uint256",
                    "name": "",
                    "type": "uint256"
                }
            ],
            "stateMutability": "view",
            "type": "function"
        },
        {
            "inputs": [
                {
                    "internalType": "address",
                    "name": "candidate",
                    "type": "address"
                }
            ],
            "name": "getVoteCount",
            "outputs": [
                {
                    "internalType": "uint256",
                    "name": "count",
                    "type": "uint256"
                }
            ],
            "stateMutability": "view",
            "type": "function"
        },
        {
            "inputs": [
                {
                    "internalType": "bytes32",
                    "name": "role",
                    "type": "bytes32"
                },
                {
                    "internalType": "address",
                    "name": "account",
                    "type": "address"
                }
            ],
            "name": "grantRole",
            "outputs": [],
            "stateMutability": "nonpayable",
            "type": "function"
        },
        {
            "inputs": [
                {
                    "internalType": "bytes32",
                    "name": "role",
                    "type": "bytes32"
                },
                {
                    "internalType": "address",
                    "name": "account",
                    "type": "address"
                }
            ],
            "name": "hasRole",
            "outputs": [
                {
                    "internalType": "bool",
                    "name": "",
                    "type": "bool"
                }
            ],
            "stateMutability": "view",
            "type": "function"
        },
        {
            "inputs": [
                {
                    "internalType": "address",
                    "name": "",
                    "type": "address"
                }
            ],
            "name": "hasVoted",
            "outputs": [
                {
                    "internalType": "address",
                    "name": "",
                    "type": "address"
                }
            ],
            "stateMutability": "view",
            "type": "function"
        },
        {
            "inputs": [
                {
                    "internalType": "address",
                    "name": "spender",
                    "type": "address"
                },
                {
                    "internalType": "uint256",
                    "name": "addedValue",
                    "type": "uint256"
                }
            ],
            "name": "increaseAllowance",
            "outputs": [
                {
                    "internalType": "bool",
                    "name": "",
                    "type": "bool"
                }
            ],
            "stateMutability": "nonpayable",
            "type": "function"
        },
        {
            "inputs": [
                {
                    "internalType": "address",
                    "name": "to",
                    "type": "address"
                },
                {
                    "internalType": "uint256",
                    "name": "amount",
                    "type": "uint256"
                }
            ],
            "name": "mintForCommerce",
            "outputs": [
                {
                    "internalType": "bool",
                    "name": "",
                    "type": "bool"
                }
            ],
            "stateMutability": "nonpayable",
            "type": "function"
        },
        {
            "inputs": [
                {
                    "internalType": "address[]",
                    "name": "recipients",
                    "type": "address[]"
                },
                {
                    "internalType": "uint256[]",
                    "name": "amounts",
                    "type": "uint256[]"
                }
            ],
            "name": "mintReward",
            "outputs": [
                {
                    "internalType": "bool",
                    "name": "",
                    "type": "bool"
                }
            ],
            "stateMutability": "nonpayable",
            "type": "function"
        },
        {
            "inputs": [
                {
                    "internalType": "address",
                    "name": "",
                    "type": "address"
                }
            ],
            "name": "mintedStreal",
            "outputs": [
                {
                    "internalType": "uint256",
                    "name": "",
                    "type": "uint256"
                }
            ],
            "stateMutability": "view",
            "type": "function"
        },
        {
            "inputs": [],
            "name": "name",
            "outputs": [
                {
                    "internalType": "string",
                    "name": "",
                    "type": "string"
                }
            ],
            "stateMutability": "view",
            "type": "function"
        },
        {
            "inputs": [],
            "name": "owner",
            "outputs": [
                {
                    "internalType": "address",
                    "name": "",
                    "type": "address"
                }
            ],
            "stateMutability": "view",
            "type": "function"
        },
        {
            "inputs": [
                {
                    "internalType": "address",
                    "name": "",
                    "type": "address"
                }
            ],
            "name": "priceFeed",
            "outputs": [
                {
                    "internalType": "address",
                    "name": "",
                    "type": "address"
                }
            ],
            "stateMutability": "view",
            "type": "function"
        },
        {
            "inputs": [
                {
                    "internalType": "uint256",
                    "name": "",
                    "type": "uint256"
                }
            ],
            "name": "priceFeedAddress",
            "outputs": [
                {
                    "internalType": "address",
                    "name": "",
                    "type": "address"
                }
            ],
            "stateMutability": "view",
            "type": "function"
        },
        {
            "inputs": [
                {
                    "internalType": "address",
                    "name": "tokenCollateralAddress",
                    "type": "address"
                },
                {
                    "internalType": "uint256",
                    "name": "amountCollateral",
                    "type": "uint256"
                }
            ],
            "name": "redeemCollateralForStreal",
            "outputs": [],
            "stateMutability": "nonpayable",
            "type": "function"
        },
        {
            "inputs": [],
            "name": "renounceOwnership",
            "outputs": [],
            "stateMutability": "nonpayable",
            "type": "function"
        },
        {
            "inputs": [
                {
                    "internalType": "bytes32",
                    "name": "role",
                    "type": "bytes32"
                },
                {
                    "internalType": "address",
                    "name": "account",
                    "type": "address"
                }
            ],
            "name": "renounceRole",
            "outputs": [],
            "stateMutability": "nonpayable",
            "type": "function"
        },
        {
            "inputs": [
                {
                    "internalType": "bytes32",
                    "name": "role",
                    "type": "bytes32"
                },
                {
                    "internalType": "address",
                    "name": "account",
                    "type": "address"
                }
            ],
            "name": "revokeRole",
            "outputs": [],
            "stateMutability": "nonpayable",
            "type": "function"
        },
        {
            "inputs": [],
            "name": "snapshot",
            "outputs": [],
            "stateMutability": "nonpayable",
            "type": "function"
        },
        {
            "inputs": [],
            "name": "supply",
            "outputs": [
                {
                    "internalType": "uint256",
                    "name": "",
                    "type": "uint256"
                }
            ],
            "stateMutability": "view",
            "type": "function"
        },
        {
            "inputs": [
                {
                    "internalType": "uint256",
                    "name": "",
                    "type": "uint256"
                }
            ],
            "name": "supportedTokens",
            "outputs": [
                {
                    "internalType": "address",
                    "name": "",
                    "type": "address"
                }
            ],
            "stateMutability": "view",
            "type": "function"
        },
        {
            "inputs": [
                {
                    "internalType": "bytes4",
                    "name": "interfaceId",
                    "type": "bytes4"
                }
            ],
            "name": "supportsInterface",
            "outputs": [
                {
                    "internalType": "bool",
                    "name": "",
                    "type": "bool"
                }
            ],
            "stateMutability": "view",
            "type": "function"
        },
        {
            "inputs": [],
            "name": "symbol",
            "outputs": [
                {
                    "internalType": "string",
                    "name": "",
                    "type": "string"
                }
            ],
            "stateMutability": "view",
            "type": "function"
        },
        {
            "inputs": [],
            "name": "totalSupply",
            "outputs": [
                {
                    "internalType": "uint256",
                    "name": "",
                    "type": "uint256"
                }
            ],
            "stateMutability": "view",
            "type": "function"
        },
        {
            "inputs": [
                {
                    "internalType": "uint256",
                    "name": "snapshotId",
                    "type": "uint256"
                }
            ],
            "name": "totalSupplyAt",
            "outputs": [
                {
                    "internalType": "uint256",
                    "name": "",
                    "type": "uint256"
                }
            ],
            "stateMutability": "view",
            "type": "function"
        },
        {
            "inputs": [
                {
                    "internalType": "address",
                    "name": "to",
                    "type": "address"
                },
                {
                    "internalType": "uint256",
                    "name": "amount",
                    "type": "uint256"
                }
            ],
            "name": "transfer",
            "outputs": [
                {
                    "internalType": "bool",
                    "name": "",
                    "type": "bool"
                }
            ],
            "stateMutability": "nonpayable",
            "type": "function"
        },
        {
            "inputs": [
                {
                    "internalType": "address",
                    "name": "from",
                    "type": "address"
                },
                {
                    "internalType": "address",
                    "name": "to",
                    "type": "address"
                },
                {
                    "internalType": "uint256",
                    "name": "amount",
                    "type": "uint256"
                }
            ],
            "name": "transferFrom",
            "outputs": [
                {
                    "internalType": "bool",
                    "name": "",
                    "type": "bool"
                }
            ],
            "stateMutability": "nonpayable",
            "type": "function"
        },
        {
            "inputs": [
                {
                    "internalType": "address",
                    "name": "newOwner",
                    "type": "address"
                }
            ],
            "name": "transferOwnership",
            "outputs": [],
            "stateMutability": "nonpayable",
            "type": "function"
        },
        {
            "inputs": [
                {
                    "internalType": "address",
                    "name": "candidate",
                    "type": "address"
                }
            ],
            "name": "vote",
            "outputs": [
                {
                    "internalType": "bool",
                    "name": "success",
                    "type": "bool"
                }
            ],
            "stateMutability": "nonpayable",
            "type": "function"
        },
        {
            "inputs": [
                {
                    "internalType": "address",
                    "name": "",
                    "type": "address"
                }
            ],
            "name": "votes",
            "outputs": [
                {
                    "internalType": "uint256",
                    "name": "",
                    "type": "uint256"
                }
            ],
            "stateMutability": "view",
            "type": "function"
        },
        {
            "inputs": [],
            "name": "withdraw",
            "outputs": [],
            "stateMutability": "nonpayable",
            "type": "function"
        }
    ],
    "bytecode": "60806040526a52b7d2dcc80cd2e4000000600f556aa56fa5b99019a5c80000006010553480156200002f57600080fd5b5060408051808201825260068082526514dd1c99585b60d21b60208084018290528451808601909552918452908301529060036200006e8382620007b0565b5060046200007d8282620007b0565b5050506200009a620000946200031360201b60201c565b62000317565b6001600b556040805160608101825273acde43b9e5f72a4f554d4346e69e8e7ac8f352f0815273e9dce89b076ba6107bb64ef30678efec11939234602082015273f14f9596430931e177469715c591513308244e8f918101919091526200010690600d9060036200068b565b50604080516060810182527392c09849638959196e976289418e5973cc96d645815273572ddec9087154dc5dfbb1546bb62713147e0ab06020820152730fcaa9c899ec5a91ebc3d5dd869de833b06fb046918101919091526200016e90600e9060036200068b565b50600e54600d5414620001c85760405162461bcd60e51b815260206004820152601a60248201527f616472657373206d7573742062652073616d65206c656e67746800000000000060448201526064015b60405180910390fd5b60005b600d54811015620002cf57600e8181548110620001ec57620001ec6200087c565b9060005260206000200160009054906101000a90046001600160a01b031660136000600d84815481106200022457620002246200087c565b6000918252602080832091909101546001600160a01b039081168452908301939093526040909101902080546001600160a01b03191692909116919091179055600d8054600c9190839081106200027f576200027f6200087c565b60009182526020808320909101548354600181018555938352912090910180546001600160a01b0319166001600160a01b0390921691909117905580620002c681620008a8565b915050620001cb565b50620002dd60003362000369565b620002f1336010546200037960201b60201c565b600f5460106000828254620003079190620008c4565b90915550620008f09050565b3390565b600980546001600160a01b038381166001600160a01b0319831681179093556040519116919082907f8be0079c531659141344cd1fd0a4f28419497f9722a3daafe3b4186f6b6457e090600090a35050565b6200037582826200044a565b5050565b6001600160a01b038216620003d15760405162461bcd60e51b815260206004820152601f60248201527f45524332303a206d696e7420746f20746865207a65726f2061646472657373006044820152606401620001bf565b620003df60008383620004d4565b8060026000828254620003f39190620008da565b90915550506001600160a01b038216600081815260208181526040808320805486019055518481527fddf252ad1be2c89b69c2b068fc378daa952ba7f163c4a11628f55a4df523b3ef910160405180910390a35050565b620004568282620004f1565b62000375576000828152600a602090815260408083206001600160a01b03851684529091529020805460ff19166001179055620004903390565b6001600160a01b0316816001600160a01b0316837f2f8788117e7eff1d82e926ec794901d17c78024a50270940304540a733656f0d60405160405180910390a45050565b620004ec8383836200051e60201b62001acd1760201c565b505050565b6000828152600a602090815260408083206001600160a01b038516845290915290205460ff165b92915050565b62000536838383620004ec60201b620008891760201c565b6001600160a01b0383166200055a57620005508262000585565b620004ec620005bd565b6001600160a01b0382166200057457620005508362000585565b6200057f8362000585565b620004ec825b6001600160a01b03811660009081526005602090815260408083209183905290912054620005ba9190620005cf565b620005cf565b50565b620005cd6006620005b460025490565b565b6000620005db6200061e565b905080620005e9846200063c565b1015620004ec578254600180820185556000858152602080822090930193909355938401805494850181558252902090910155565b60006200063760086200068760201b62001b151760201c565b905090565b805460009081036200065057506000919050565b815482906200066290600190620008c4565b815481106200067557620006756200087c565b90600052602060002001549050919050565b5490565b828054828255906000526020600020908101928215620006e3579160200282015b82811115620006e357825182546001600160a01b0319166001600160a01b03909116178255602090920191600190910190620006ac565b50620006f1929150620006f5565b5090565b5b80821115620006f15760008155600101620006f6565b634e487b7160e01b600052604160045260246000fd5b600181811c908216806200073757607f821691505b6020821081036200075857634e487b7160e01b600052602260045260246000fd5b50919050565b601f821115620004ec57600081815260208120601f850160051c81016020861015620007875750805b601f850160051c820191505b81811015620007a85782815560010162000793565b505050505050565b81516001600160401b03811115620007cc57620007cc6200070c565b620007e481620007dd845462000722565b846200075e565b602080601f8311600181146200081c5760008415620008035750858301515b600019600386901b1c1916600185901b178555620007a8565b600085815260208120601f198616915b828110156200084d578886015182559484019460019091019084016200082c565b50858210156200086c5787850151600019600388901b60f8161c191681555b5050505050600190811b01905550565b634e487b7160e01b600052603260045260246000fd5b634e487b7160e01b600052601160045260246000fd5b600060018201620008bd57620008bd62000892565b5060010190565b8181038181111562000518576200051862000892565b8082018082111562000518576200051862000892565b61320e80620009006000396000f3fe608060405234801561001057600080fd5b506004361061030c5760003560e01c806379cc67901161019d578063bf8daa95116100e9578063dd62ed3e116100a2578063f2fde38b1161007c578063f2fde38b14610728578063f70f43941461073b578063fd489a8e14610743578063ff5135911461075657600080fd5b8063dd62ed3e146106ef578063e2f764a314610702578063e652f4cc1461071557600080fd5b8063bf8daa9514610670578063c625562614610683578063c660d11214610696578063d547741f146106a9578063d88b2bee146106bc578063d8bff5a5146106cf57600080fd5b80639998dcbe11610156578063a457c2d711610130578063a457c2d714610622578063a595483414610635578063a9059cbb14610648578063b69ef8a81461065b57600080fd5b80639998dcbe146105dc5780639f222fe014610607578063a217fddf1461061a57600080fd5b806379cc6790146105825780638da5cb5b1461059557806391d14854146105a657806395d89b41146105b95780639711715a146105c1578063981b24d0146105c957600080fd5b806336568abe1161025c578063545af4fe116102155780636dd7d8ea116101ef5780636dd7d8ea1461051757806370a082311461052a578063715018a61461055357806375b238fc1461055b57600080fd5b8063545af4fe146104de5780635f66a768146104f1578063672434821461050457600080fd5b806336568abe14610477578063395093511461048a5780633c44d7401461049d5780633ccfd60b146104b057806342966c68146104b85780634ee2cd7e146104cb57600080fd5b80631fd48b9a116102c9578063248a9ca3116102a3578063248a9ca31461041d5780632f2ff15d146104405780632f61ebc814610455578063313ce5671461046857600080fd5b80631fd48b9a146103c15780631ff9b703146103ea57806323b872dd1461040a57600080fd5b806301ffc9a714610311578063047fc9aa1461033957806306fdde0314610350578063095ea7b31461036557806309eef43e1461037857806318160ddd146103b9575b600080fd5b61032461031f366004612b11565b61075f565b60405190151581526020015b60405180910390f35b61034260105481565b604051908152602001610330565b610358610796565b6040516103309190612b5f565b610324610373366004612ba9565b610828565b6103a1610386366004612bd3565b6015602052600090815260409020546001600160a01b031681565b6040516001600160a01b039091168152602001610330565b600254610342565b6103a16103cf366004612bd3565b6013602052600090815260409020546001600160a01b031681565b6103426103f8366004612bd3565b60116020526000908152604090205481565b610324610418366004612bee565b610840565b61034261042b366004612c2a565b6000908152600a602052604090206001015490565b61045361044e366004612c43565b610864565b005b6103a1610463366004612c2a565b61088e565b60405160128152602001610330565b610453610485366004612c43565b6108b8565b610324610498366004612ba9565b61093b565b6104536104ab366004612c2a565b61095d565b610453610a0e565b6104536104c6366004612c2a565b610b42565b6103426104d9366004612ba9565b610bf3565b6103426104ec366004612bd3565b610c4c565b6103a16104ff366004612c2a565b610cd4565b610324610512366004612d45565b610ce4565b610324610525366004612bd3565b610ee2565b610342610538366004612bd3565b6001600160a01b031660009081526020819052604090205490565b61045361101a565b6103427fa49807205ce4d355092ef5a8a18f56e8913cf4a201fbe287825b095693c2177581565b610453610590366004612ba9565b61102e565b6009546001600160a01b03166103a1565b6103246105b4366004612c43565b611043565b61035861106e565b61045361107d565b6103426105d7366004612c2a565b61108d565b6103426105ea366004612e05565b601260209081526000928352604080842090915290825290205481565b610453610615366004612c43565b6110b8565b610342600081565b610324610630366004612ba9565b61127c565b610342610643366004612ba9565b6112f7565b610324610656366004612ba9565b61135f565b61066361136d565b6040516103309190612e2f565b61032461067e366004612ba9565b611484565b6103a1610691366004612c2a565b6114bc565b6103426106a4366004612ba9565b6114cc565b6104536106b7366004612c43565b611581565b6104536106ca366004612ba9565b6115a6565b6103426106dd366004612bd3565b60146020526000908152604090205481565b6103426106fd366004612e05565b61185f565b610324610710366004612d45565b61188a565b610342610723366004612bd3565b6119e9565b610453610736366004612bd3565b611a1a565b610342600a81565b610453610751366004612ba9565b611a90565b610342600f5481565b60006001600160e01b03198216637965db0b60e01b148061079057506301ffc9a760e01b6001600160e01b03198316145b92915050565b6060600380546107a590612e73565b80601f01602080910402602001604051908101604052809291908181526020018280546107d190612e73565b801561081e5780601f106107f35761010080835404028352916020019161081e565b820191906000526020600020905b81548152906001019060200180831161080157829003601f168201915b5050505050905090565b600033610836818585611b19565b5060019392505050565b60003361084e858285611c3d565b610859858585611cb1565b506001949350505050565b6000828152600a602052604090206001015461087f81611e60565b6108898383611e6a565b505050565b600e818154811061089e57600080fd5b6000918252602090912001546001600160a01b0316905081565b6001600160a01b038116331461092d5760405162461bcd60e51b815260206004820152602f60248201527f416363657373436f6e74726f6c3a2063616e206f6e6c792072656e6f756e636560448201526e103937b632b9903337b91039b2b63360891b60648201526084015b60405180910390fd5b6109378282611ef0565b5050565b60003361083681858561094e838361185f565b6109589190612ebd565b611b19565b610965611f57565b80600081116109865760405162461bcd60e51b815260040161092490612ed0565b61098e611fb1565b33600090815260208190526040902054828110156109e95760405162461bcd60e51b81526020600482015260186024820152776275726e61626c6520657863656564732062616c616e636560401b6044820152606401610924565b610a036109fe84670de0b6b3a7640000612f05565b61200a565b506109376001600b55565b610a16611f57565b60005b600d54811015610b3f576000600d8281548110610a3857610a38612f1c565b60009182526020822001546040516370a0823160e01b81523060048201526001600160a01b03909116925082906370a0823190602401602060405180830381865afa158015610a8b573d6000803e3d6000fd5b505050506040513d601f19601f82011682018060405250810190610aaf9190612f32565b90508015610b2a5760405163a9059cbb60e01b8152336004820152602481018290526001600160a01b0383169063a9059cbb906044016020604051808303816000875af1158015610b04573d6000803e3d6000fd5b505050506040513d601f19601f82011682018060405250810190610b289190612f4b565b505b50508080610b3790612f6d565b915050610a19565b50565b3360009081526020819052604090205481610b9f5760405162461bcd60e51b815260206004820152601d60248201527f616d6f756e74206d757374206265206d6f7265207468616e207a65726f0000006044820152606401610924565b81811015610bea5760405162461bcd60e51b81526020600482015260186024820152776275726e61626c6520657863656564732062616c616e636560401b6044820152606401610924565b6109378261200a565b6001600160a01b038216600090815260056020526040812081908190610c1a908590612014565b9150915081610c41576001600160a01b038516600090815260208190526040902054610c43565b805b95945050505050565b6000805b600c54811015610cce576000600c8281548110610c6f57610c6f612f1c565b60009182526020808320909101546001600160a01b03878116845260128352604080852091909216808552925290912054909150610cad82826114cc565b610cb79085612ebd565b935050508080610cc690612f6d565b915050610c50565b50919050565b600c818154811061089e57600080fd5b6000610cee611f57565b610cf6611fb1565b8151835114610d3e5760405162461bcd60e51b8152602060048201526014602482015273496e76616c696420696e7075742061727261797360601b6044820152606401610924565b6000805b8451811015610dff5760006001600160a01b0316858281518110610d6857610d68612f1c565b60200260200101516001600160a01b031603610dc65760405162461bcd60e51b815260206004820152601960248201527f496e76616c696420726563697069656e742061646472657373000000000000006044820152606401610924565b838181518110610dd857610dd8612f1c565b602002602001015182610deb9190612ebd565b915080610df781612f6d565b915050610d42565b50600f54811115610e525760405162461bcd60e51b815260206004820152601c60248201527f496e73756666696369656e742061697264726f702062616c616e6365000000006044820152606401610924565b60005b8451811015610ebb57610ea8858281518110610e7357610e73612f1c565b6020026020010151858381518110610e8d57610e8d612f1c565b6020026020010151670de0b6b3a76400006106569190612f05565b5080610eb381612f6d565b915050610e55565b5080600f6000828254610ece9190612f86565b909155506001925050506107906001600b55565b6000336001600160a01b03831603610f3c5760405162461bcd60e51b815260206004820152601c60248201527f596f752063616e6e6f7420766f746520666f7220796f757273656c66000000006044820152606401610924565b336000908152601560205260409020546001600160a01b03808416911603610fb85760405162461bcd60e51b815260206004820152602960248201527f596f75206861766520616c726561647920766f74656420666f7220746869732060448201526863616e64696461746560b81b6064820152608401610924565b6001600160a01b0382166000908152601460205260408120805460019290610fe1908490612ebd565b909155505033600090815260156020526040902080546001600160a01b0319166001600160a01b03939093169290921790915550600190565b611022611f57565b61102c6000612110565b565b611039823383611c3d565b6109378282612162565b6000918252600a602090815260408084206001600160a01b0393909316845291905290205460ff1690565b6060600480546107a590612e73565b611085611f57565b610b3f6122a0565b600080600061109d846006612014565b91509150816110ae576002546110b0565b805b949350505050565b60006110c3826122fa565b905060006110d282600a613075565b6110dd856005612f05565b6110e79190612f05565b9050600060646110f8836014612f05565b6111029190613084565b6040516370a0823160e01b815230600482015290915081906001600160a01b038616906370a0823190602401602060405180830381865afa15801561114b573d6000803e3d6000fd5b505050506040513d601f19601f8201168201806040525081019061116f9190612f32565b10156111bd5760405162461bcd60e51b815260206004820152601d60248201527f4e6f7420656e6f75676820746f6b656e7320696e20636f6e74726163740000006044820152606401610924565b6111d76111d286670de0b6b3a7640000612f05565b612369565b6112036111ec6009546001600160a01b031690565b6111fe87670de0b6b3a7640000612f05565b61239d565b60405163a9059cbb60e01b8152336004820152602481018290526001600160a01b0385169063a9059cbb906044016020604051808303816000875af1158015611250573d6000803e3d6000fd5b505050506040513d601f19601f820116820180604052508101906112749190612f4b565b505050505050565b6000338161128a828661185f565b9050838110156112ea5760405162461bcd60e51b815260206004820152602560248201527f45524332303a2064656372656173656420616c6c6f77616e63652062656c6f77604482015264207a65726f60d81b6064820152608401610924565b6108598286868403611b19565b600080611303846122fa565b9050600061131282600a613075565b61131c9085612f05565b9050674563918244f400006000816113358560126130a6565b61134090600a613075565b61134a9085612f05565b6113549190613084565b979650505050505050565b600033610836818585611cb1565b600d5460609060009067ffffffffffffffff81111561138e5761138e612c6f565b6040519080825280602002602001820160405280156113b7578160200160208202803683370190505b50905060005b600d54811015610cce576000600d82815481106113dc576113dc612f1c565b6000918252602090912001546040516370a0823160e01b81523060048201526001600160a01b03909116915081906370a0823190602401602060405180830381865afa158015611430573d6000803e3d6000fd5b505050506040513d601f19601f820116820180604052508101906114549190612f32565b83838151811061146657611466612f1c565b6020908102919091010152508061147c81612f6d565b9150506113bd565b600061148e611fb1565b611496611f57565b3392506114af836111fe84670de0b6b3a7640000612f05565b5060016107906001600b55565b600d818154811061089e57600080fd5b6001600160a01b03808316600090815260136020526040808220548151633fabe5a360e21b81529151929316918391839163feaf968c9160048082019260a0929091908290030181865afa158015611528573d6000803e3d6000fd5b505050506040513d601f19601f8201168201806040525081019061154c91906130d9565b505050915050670de0b6b3a7640000846402540be4008361156d9190612f05565b6115779190612f05565b610c439190613084565b6000828152600a602052604090206001015461159c81611e60565b6108898383611ef0565b60006115b1836122fa565b905060006115c082600a613075565b6115ca9084612f05565b905060006115d885856112f7565b905060006115ee82670de0b6b3a7640000612f05565b9050600060646115ff856014612f05565b6116099190613084565b3360009081526012602090815260408083206001600160a01b038c16845290915290205490915086111561167f5760405162461bcd60e51b815260206004820152601f60248201527f4e6f7420656e6f75676820636f6c6c61746572616c206465706f7369746564006044820152606401610924565b3360009081526012602090815260408083206001600160a01b038b168452909152812080548892906116b2908490612f86565b90915550600090506116c48286612f86565b6040516370a0823160e01b81523060048201529095508591506000906001600160a01b038a16906370a0823190602401602060405180830381865afa158015611711573d6000803e3d6000fd5b505050506040513d601f19601f820116820180604052508101906117359190612f32565b9050818110156117875760405162461bcd60e51b815260206004820152601d60248201527f4e6f7420656e6f75676820746f6b656e7320696e20636f6e74726163740000006044820152606401610924565b60405163a9059cbb60e01b8152336004820152602481018390526000906001600160a01b038b169063a9059cbb906044016020604051808303816000875af11580156117d7573d6000803e3d6000fd5b505050506040513d601f19601f820116820180604052508101906117fb9190612f4b565b90508061184a5760405162461bcd60e51b815260206004820152601d60248201527f5472616e73666572206f6620636f6c6c61746572616c206661696c65640000006044820152606401610924565b61185385612369565b50505050505050505050565b6001600160a01b03918216600090815260016020908152604080832093909416825291909152205490565b6000611894611f57565b61189c611fb1565b81518351146119135760405162461bcd60e51b815260206004820152603760248201527f726563697069656e747320616e6420616d6f756e747320617272617973206d7560448201527f73742068617665207468652073616d65206c656e6774680000000000000000006064820152608401610924565b60005b83518110156119da57600084828151811061193357611933612f1c565b60200260200101519050600084838151811061195157611951612f1c565b6020026020010151905060006001600160a01b0316826001600160a01b0316036119af5760405162461bcd60e51b815260206004820152600f60248201526e696e76616c6964206164647265737360881b6044820152606401610924565b6119c5826111fe83670de0b6b3a7640000612f05565b505080806119d290612f6d565b915050611916565b50600190506107906001600b55565b60006001600160a01b0382166119fe57600080fd5b506001600160a01b031660009081526014602052604090205490565b611a22611f57565b6001600160a01b038116611a875760405162461bcd60e51b815260206004820152602660248201527f4f776e61626c653a206e6577206f776e657220697320746865207a65726f206160448201526564647265737360d01b6064820152608401610924565b610b3f81612110565b611a9a8282612468565b6000611aa683836112f7565b90506000611abc82670de0b6b3a7640000612f05565b9050611ac781612610565b50505050565b6001600160a01b038316611aec57611ae4826126c0565b6108896126f2565b6001600160a01b038216611b0357611ae4836126c0565b611b0c836126c0565b610889826126c0565b5490565b6001600160a01b038316611b7b5760405162461bcd60e51b8152602060048201526024808201527f45524332303a20617070726f76652066726f6d20746865207a65726f206164646044820152637265737360e01b6064820152608401610924565b6001600160a01b038216611bdc5760405162461bcd60e51b815260206004820152602260248201527f45524332303a20617070726f766520746f20746865207a65726f206164647265604482015261737360f01b6064820152608401610924565b6001600160a01b0383811660008181526001602090815260408083209487168084529482529182902085905590518481527f8c5be1e5ebec7d5bd14f71427d1e84f3dd0314c0f7b2291e5b200ac8c7c3b925910160405180910390a3505050565b6000611c49848461185f565b90506000198114611ac75781811015611ca45760405162461bcd60e51b815260206004820152601d60248201527f45524332303a20696e73756666696369656e7420616c6c6f77616e63650000006044820152606401610924565b611ac78484848403611b19565b6001600160a01b038316611d155760405162461bcd60e51b815260206004820152602560248201527f45524332303a207472616e736665722066726f6d20746865207a65726f206164604482015264647265737360d81b6064820152608401610924565b6001600160a01b038216611d775760405162461bcd60e51b815260206004820152602360248201527f45524332303a207472616e7366657220746f20746865207a65726f206164647260448201526265737360e81b6064820152608401610924565b611d82838383612700565b6001600160a01b03831660009081526020819052604090205481811015611dfa5760405162461bcd60e51b815260206004820152602660248201527f45524332303a207472616e7366657220616d6f756e7420657863656564732062604482015265616c616e636560d01b6064820152608401610924565b6001600160a01b03848116600081815260208181526040808320878703905593871680835291849020805487019055925185815290927fddf252ad1be2c89b69c2b068fc378daa952ba7f163c4a11628f55a4df523b3ef910160405180910390a3611ac7565b610b3f813361270b565b611e748282611043565b610937576000828152600a602090815260408083206001600160a01b03851684529091529020805460ff19166001179055611eac3390565b6001600160a01b0316816001600160a01b0316837f2f8788117e7eff1d82e926ec794901d17c78024a50270940304540a733656f0d60405160405180910390a45050565b611efa8282611043565b15610937576000828152600a602090815260408083206001600160a01b0385168085529252808320805460ff1916905551339285917ff6391f5c32d9c69d2a47ea670b442974b53935d1edc7fd64eb21e047a839171b9190a45050565b6009546001600160a01b0316331461102c5760405162461bcd60e51b815260206004820181905260248201527f4f776e61626c653a2063616c6c6572206973206e6f7420746865206f776e65726044820152606401610924565b6002600b54036120035760405162461bcd60e51b815260206004820152601f60248201527f5265656e7472616e637947756172643a207265656e7472616e742063616c6c006044820152606401610924565b6002600b55565b610b3f3382612162565b600080600084116120605760405162461bcd60e51b815260206004820152601660248201527504552433230536e617073686f743a20696420697320360541b6044820152606401610924565b612068612764565b8411156120b75760405162461bcd60e51b815260206004820152601d60248201527f4552433230536e617073686f743a206e6f6e6578697374656e742069640000006044820152606401610924565b60006120c38486612774565b845490915081036120db576000809250925050612109565b60018460010182815481106120f2576120f2612f1c565b90600052602060002001549250925050612109565b505b9250929050565b600980546001600160a01b038381166001600160a01b0319831681179093556040519116919082907f8be0079c531659141344cd1fd0a4f28419497f9722a3daafe3b4186f6b6457e090600090a35050565b6001600160a01b0382166121c25760405162461bcd60e51b815260206004820152602160248201527f45524332303a206275726e2066726f6d20746865207a65726f206164647265736044820152607360f81b6064820152608401610924565b6121ce82600083612700565b6001600160a01b038216600090815260208190526040902054818110156122425760405162461bcd60e51b815260206004820152602260248201527f45524332303a206275726e20616d6f756e7420657863656564732062616c616e604482015261636560f01b6064820152608401610924565b6001600160a01b0383166000818152602081815260408083208686039055600280548790039055518581529192917fddf252ad1be2c89b69c2b068fc378daa952ba7f163c4a11628f55a4df523b3ef910160405180910390a3505050565b60006122b0600880546001019055565b60006122ba612764565b90507f8030e83b04d87bef53480e26263266d6ca66863aa8506aca6f2559d18aa1cb67816040516122ed91815260200190565b60405180910390a1919050565b600080829050806001600160a01b031663313ce5676040518163ffffffff1660e01b8152600401602060405180830381865afa15801561233e573d6000803e3d6000fd5b505050506040513d601f19601f820116820180604052508101906123629190613129565b9392505050565b806000811161238a5760405162461bcd60e51b815260040161092490612ed0565b612392611fb1565b81610a038133612821565b6001600160a01b0382166123f35760405162461bcd60e51b815260206004820152601f60248201527f45524332303a206d696e7420746f20746865207a65726f2061646472657373006044820152606401610924565b6123ff60008383612700565b80600260008282546124119190612ebd565b90915550506001600160a01b038216600081815260208181526040808320805486019055518481527fddf252ad1be2c89b69c2b068fc378daa952ba7f163c4a11628f55a4df523b3ef910160405180910390a35050565b80600081116124895760405162461bcd60e51b815260040161092490612ed0565b612491611fb1565b6001600160a01b038084166000908152601360205260409020548491166124ea5760405162461bcd60e51b815260206004820152600d60248201526c34b73b30b634b2103a37b5b2b760991b6044820152606401610924565b60006124f5856122fa565b9050600061250482600a613075565b61250e9086612f05565b3360009081526012602090815260408083206001600160a01b038b168452909152812080549293508392909190612546908490612ebd565b90915550506040518181526001600160a01b0387169033907fe4c032bd651f378a59936633a0f92b7497fd3577f65c95dc20a01acface334cc9060200160405180910390a36040516323b872dd60e01b8152336004820152306024820152604481018290526001600160a01b038716906323b872dd906064016020604051808303816000875af11580156125de573d6000803e3d6000fd5b505050506040513d601f19601f820116820180604052508101906126029190612f4b565b505050506108896001600b55565b80600081116126315760405162461bcd60e51b815260040161092490612ed0565b3360009081526011602052604081208054849290612650908490612ebd565b90915550600090506126623384612858565b9050806108895760405162461bcd60e51b815260206004820152602660248201527f6d696e74206661696c65642c20636865636b206d696e7453747265616c2066756044820152653731ba34b7b760d11b6064820152608401610924565b6001600160a01b03811660009081526005602090815260408083209183905290912054610b3f91906128b4565b6128b4565b61102c60066126ed60025490565b610889838383611acd565b6127158282611043565b61093757612722816128fe565b61272d836020612910565b60405160200161273e92919061314c565b60408051601f198184030181529082905262461bcd60e51b825261092491600401612b5f565b600061276f60085490565b905090565b8154600090810361278757506000610790565b82546000905b808210156127d45760006127a18383612aac565b600087815260209020909150859082015411156127c0578091506127ce565b6127cb816001612ebd565b92505b5061278d565b6000821180156128005750836127fd866127ef600186612f86565b600091825260209091200190565b54145b1561281957612810600183612f86565b92505050610790565b509050610790565b6001600160a01b03811660009081526011602052604081208054849290612849908490612f86565b90915550610937905082610b42565b6000612862611fb1565b6001600160a01b0383166128aa5760405162461bcd60e51b815260206004820152600f60248201526e696e76616c6964206164647265737360881b6044820152606401610924565b6114af838361239d565b60006128be612764565b9050806128ca84612ac7565b1015610889578254600180820185556000858152602080822090930193909355938401805494850181558252902090910155565b60606107906001600160a01b03831660145b6060600061291f836002612f05565b61292a906002612ebd565b67ffffffffffffffff81111561294257612942612c6f565b6040519080825280601f01601f19166020018201604052801561296c576020820181803683370190505b509050600360fc1b8160008151811061298757612987612f1c565b60200101906001600160f81b031916908160001a905350600f60fb1b816001815181106129b6576129b6612f1c565b60200101906001600160f81b031916908160001a90535060006129da846002612f05565b6129e5906001612ebd565b90505b6001811115612a5d576f181899199a1a9b1b9c1cb0b131b232b360811b85600f1660108110612a1957612a19612f1c565b1a60f81b828281518110612a2f57612a2f612f1c565b60200101906001600160f81b031916908160001a90535060049490941c93612a56816131c1565b90506129e8565b5083156123625760405162461bcd60e51b815260206004820181905260248201527f537472696e67733a20686578206c656e67746820696e73756666696369656e746044820152606401610924565b6000612abb6002848418613084565b61236290848416612ebd565b80546000908103612ada57506000919050565b81548290612aea90600190612f86565b81548110612afa57612afa612f1c565b90600052602060002001549050919050565b919050565b600060208284031215612b2357600080fd5b81356001600160e01b03198116811461236257600080fd5b60005b83811015612b56578181015183820152602001612b3e565b50506000910152565b6020815260008251806020840152612b7e816040850160208701612b3b565b601f01601f19169190910160400192915050565b80356001600160a01b0381168114612b0c57600080fd5b60008060408385031215612bbc57600080fd5b612bc583612b92565b946020939093013593505050565b600060208284031215612be557600080fd5b61236282612b92565b600080600060608486031215612c0357600080fd5b612c0c84612b92565b9250612c1a60208501612b92565b9150604084013590509250925092565b600060208284031215612c3c57600080fd5b5035919050565b60008060408385031215612c5657600080fd5b82359150612c6660208401612b92565b90509250929050565b634e487b7160e01b600052604160045260246000fd5b604051601f8201601f1916810167ffffffffffffffff81118282101715612cae57612cae612c6f565b604052919050565b600067ffffffffffffffff821115612cd057612cd0612c6f565b5060051b60200190565b600082601f830112612ceb57600080fd5b81356020612d00612cfb83612cb6565b612c85565b82815260059290921b84018101918181019086841115612d1f57600080fd5b8286015b84811015612d3a5780358352918301918301612d23565b509695505050505050565b60008060408385031215612d5857600080fd5b823567ffffffffffffffff80821115612d7057600080fd5b818501915085601f830112612d8457600080fd5b81356020612d94612cfb83612cb6565b82815260059290921b84018101918181019089841115612db357600080fd5b948201945b83861015612dd857612dc986612b92565b82529482019490820190612db8565b96505086013592505080821115612dee57600080fd5b50612dfb85828601612cda565b9150509250929050565b60008060408385031215612e1857600080fd5b612e2183612b92565b9150612c6660208401612b92565b6020808252825182820181905260009190848201906040850190845b81811015612e6757835183529284019291840191600101612e4b565b50909695505050505050565b600181811c90821680612e8757607f821691505b602082108103610cce57634e487b7160e01b600052602260045260246000fd5b634e487b7160e01b600052601160045260246000fd5b8082018082111561079057610790612ea7565b6020808252818101527f616d6f756e74206d7573742062652067726561746572207468616e207a65726f604082015260600190565b808202811582820484141761079057610790612ea7565b634e487b7160e01b600052603260045260246000fd5b600060208284031215612f4457600080fd5b5051919050565b600060208284031215612f5d57600080fd5b8151801515811461236257600080fd5b600060018201612f7f57612f7f612ea7565b5060010190565b8181038181111561079057610790612ea7565b600181815b80851115612107578160001904821115612fba57612fba612ea7565b80851615612fc757918102915b93841c9390800290612f9e565b600082612fe357506001610790565b81612ff057506000610790565b816001811461300657600281146130105761302c565b6001915050610790565b60ff84111561302157613021612ea7565b50506001821b610790565b5060208310610133831016604e8410600b841016171561304f575081810a610790565b6130598383612f99565b806000190482111561306d5761306d612ea7565b029392505050565b600061236260ff841683612fd4565b6000826130a157634e487b7160e01b600052601260045260246000fd5b500490565b60ff828116828216039081111561079057610790612ea7565b805169ffffffffffffffffffff81168114612b0c57600080fd5b600080600080600060a086880312156130f157600080fd5b6130fa866130bf565b945060208601519350604086015192506060860151915061311d608087016130bf565b90509295509295909350565b60006020828403121561313b57600080fd5b815160ff8116811461236257600080fd5b7f416363657373436f6e74726f6c3a206163636f756e7420000000000000000000815260008351613184816017850160208801612b3b565b7001034b99036b4b9b9b4b733903937b6329607d1b60179184019182015283516131b5816028840160208801612b3b565b01602801949350505050565b6000816131d0576131d0612ea7565b50600019019056fea2646970667358221220424ea52968d884da3e329e3a71320060411ae331da6d274d8200f02c87ff3d1364736f6c63430008120033",
    "sourcePath": "c:/Users/USER/streal/contracts/streal2.sol",
    "compiler": {
        "name": "solc",
        "version": "0.8.18+commit.87f61d96"
    },
    "functionHashes": {
        "ADMIN_ROLE()": "75b238fc",
        "DEFAULT_ADMIN_ROLE()": "a217fddf",
        "Liquidation_bonus()": "f70f4394",
        "_collateralDeposited(address,address)": "9998dcbe",
        "_collateralTokens(uint256)": "5f66a768",
        "airdrop(address[],uint256[])": "67243482",
        "airdrops()": "ff513591",
        "allowance(address,address)": "dd62ed3e",
        "approve(address,uint256)": "095ea7b3",
        "balance()": "b69ef8a8",
        "balanceOf(address)": "70a08231",
        "balanceOfAt(address,uint256)": "4ee2cd7e",
        "burn(uint256)": "42966c68",
        "burnForCommerce(uint256)": "3c44d740",
        "burnFrom(address,uint256)": "79cc6790",
        "calculateEquivalentAmountToMint(address,uint256)": "a5954834",
        "decimals()": "313ce567",
        "decreaseAllowance(address,uint256)": "a457c2d7",
        "depositCollateralAndMintStreal(address,uint256)": "fd489a8e",
        "depositStrealAndGetToken(uint256,address)": "9f222fe0",
        "getAccountCollateralValueInUsd(address)": "545af4fe",
        "getRoleAdmin(bytes32)": "248a9ca3",
        "getUsdValue(address,uint256)": "c660d112",
        "getVoteCount(address)": "e652f4cc",
        "grantRole(bytes32,address)": "2f2ff15d",
        "hasRole(bytes32,address)": "91d14854",
        "hasVoted(address)": "09eef43e",
        "increaseAllowance(address,uint256)": "39509351",
        "mintForCommerce(address,uint256)": "bf8daa95",
        "mintReward(address[],uint256[])": "e2f764a3",
        "mintedStreal(address)": "1ff9b703",
        "name()": "06fdde03",
        "owner()": "8da5cb5b",
        "priceFeed(address)": "1fd48b9a",
        "priceFeedAddress(uint256)": "2f61ebc8",
        "redeemCollateralForStreal(address,uint256)": "d88b2bee",
        "renounceOwnership()": "715018a6",
        "renounceRole(bytes32,address)": "36568abe",
        "revokeRole(bytes32,address)": "d547741f",
        "snapshot()": "9711715a",
        "supply()": "047fc9aa",
        "supportedTokens(uint256)": "c6255626",
        "supportsInterface(bytes4)": "01ffc9a7",
        "symbol()": "95d89b41",
        "totalSupply()": "18160ddd",
        "totalSupplyAt(uint256)": "981b24d0",
        "transfer(address,uint256)": "a9059cbb",
        "transferFrom(address,address,uint256)": "23b872dd",
        "transferOwnership(address)": "f2fde38b",
        "vote(address)": "6dd7d8ea",
        "votes(address)": "d8bff5a5",
        "withdraw()": "3ccfd60b"
    },
    "gasEstimates": {
        "creation": {
            "codeDepositCost": "2562800",
            "executionCost": "infinite",
            "totalCost": "infinite"
        },
        "external": {
            "ADMIN_ROLE()": "328",
            "DEFAULT_ADMIN_ROLE()": "307",
            "Liquidation_bonus()": "283",
            "_collateralDeposited(address,address)": "infinite",
            "_collateralTokens(uint256)": "4704",
            "airdrop(address[],uint256[])": "infinite",
            "airdrops()": "2427",
            "allowance(address,address)": "infinite",
            "approve(address,uint256)": "24703",
            "balance()": "infinite",
            "balanceOf(address)": "2629",
            "balanceOfAt(address,uint256)": "infinite",
            "burn(uint256)": "infinite",
            "burnForCommerce(uint256)": "infinite",
            "burnFrom(address,uint256)": "infinite",
            "calculateEquivalentAmountToMint(address,uint256)": "infinite",
            "decimals()": "311",
            "decreaseAllowance(address,uint256)": "27006",
            "depositCollateralAndMintStreal(address,uint256)": "infinite",
            "depositStrealAndGetToken(uint256,address)": "infinite",
            "getAccountCollateralValueInUsd(address)": "infinite",
            "getRoleAdmin(bytes32)": "2512",
            "getUsdValue(address,uint256)": "infinite",
            "getVoteCount(address)": "2700",
            "grantRole(bytes32,address)": "infinite",
            "hasRole(bytes32,address)": "2744",
            "hasVoted(address)": "2693",
            "increaseAllowance(address,uint256)": "27040",
            "mintForCommerce(address,uint256)": "infinite",
            "mintReward(address[],uint256[])": "infinite",
            "mintedStreal(address)": "2610",
            "name()": "infinite",
            "owner()": "2399",
            "priceFeed(address)": "2627",
            "priceFeedAddress(uint256)": "4726",
            "redeemCollateralForStreal(address,uint256)": "infinite",
            "renounceOwnership()": "infinite",
            "renounceRole(bytes32,address)": "29047",
            "revokeRole(bytes32,address)": "infinite",
            "snapshot()": "29939",
            "supply()": "2364",
            "supportedTokens(uint256)": "4681",
            "supportsInterface(bytes4)": "473",
            "symbol()": "infinite",
            "totalSupply()": "2449",
            "totalSupplyAt(uint256)": "infinite",
            "transfer(address,uint256)": "infinite",
            "transferFrom(address,address,uint256)": "infinite",
            "transferOwnership(address)": "28402",
            "vote(address)": "51420",
            "votes(address)": "2674",
            "withdraw()": "infinite"
        },
        "internal": {
            "_beforeTokenTransfer(address,address,uint256)": "infinite",
            "_burnStreal(uint256,address)": "infinite",
            "_getAccountInfo(address)": "infinite",
            "burnStreal(uint256)": "infinite",
            "depositCollateral(address,uint256)": "infinite",
            "getDecimals(address)": "infinite",
            "mint(address,uint256)": "infinite",
            "mintStreal(uint256)": "infinite"
        }
    }
}