{
  "_format": "hh-sol-artifact-1",
  "contractName": "OracleLib",
  "sourceName": "contracts/libraries/OracleLib.sol",
  "abi": [
    {
      "inputs": [
        {
          "internalType": "contract AggregatorV3Interface",
          "name": "",
          "type": "AggregatorV3Interface"
        }
      ],
      "name": "getTimeout",
      "outputs": [
        {
          "internalType": "uint256",
          "name": "",
          "type": "uint256"
        }
      ],
      "stateMutability": "pure",
      "type": "function"
    },
    {
      "inputs": [
        {
          "internalType": "contract AggregatorV3Interface",
          "name": "chainlinkFeed",
          "type": "AggregatorV3Interface"
        }
      ],
      "name": "staleCheckLatestRoundData",
      "outputs": [
        {
          "internalType": "uint80",
          "name": "",
          "type": "uint80"
        },
        {
          "internalType": "int256",
          "name": "",
          "type": "int256"
        },
        {
          "internalType": "uint256",
          "name": "",
          "type": "uint256"
        },
        {
          "internalType": "uint256",
          "name": "",
          "type": "uint256"
        },
        {
          "internalType": "uint80",
          "name": "",
          "type": "uint80"
        }
      ],
      "stateMutability": "view",
      "type": "function"
    }
  ],
  "bytecode": "0x6105fc610053600b82828239805160001a607314610046577f4e487b7100000000000000000000000000000000000000000000000000000000600052600060045260246000fd5b30600052607381538281f3fe73000000000000000000000000000000000000000030146080604052600436106100405760003560e01c80632ba1c96a1461004557806347096f8114610079575b600080fd5b61005f600480360381019061005a9190610289565b6100a9565b60405161007095949392919061030d565b60405180910390f35b610093600480360381019061008e9190610289565b610208565b6040516100a09190610360565b60405180910390f35b6000806000806000806000806000808a73ffffffffffffffffffffffffffffffffffffffff1663feaf968c6040518163ffffffff1660e01b815260040160a060405180830381865afa158015610103573d6000803e3d6000fd5b505050506040513d601f19601f8201168201806040525081019061012791906103ff565b94509450945094509450600082148061015757508469ffffffffffffffffffff168169ffffffffffffffffffff16105b610196576040517f08c379a000000000000000000000000000000000000000000000000000000000815260040161018d906104d7565b60405180910390fd5b600082426101a49190610526565b9050612a3081116101ea576040517f08c379a00000000000000000000000000000000000000000000000000000000081526004016101e1906105a6565b60405180910390fd5b85858585859a509a509a509a509a5050505050505091939590929450565b6000612a309050919050565b600080fd5b600073ffffffffffffffffffffffffffffffffffffffff82169050919050565b600061024482610219565b9050919050565b600061025682610239565b9050919050565b6102668161024b565b811461027157600080fd5b50565b6000813590506102838161025d565b92915050565b60006020828403121561029f5761029e610214565b5b60006102ad84828501610274565b91505092915050565b600069ffffffffffffffffffff82169050919050565b6102d5816102b6565b82525050565b6000819050919050565b6102ee816102db565b82525050565b6000819050919050565b610307816102f4565b82525050565b600060a08201905061032260008301886102cc565b61032f60208301876102e5565b61033c60408301866102fe565b61034960608301856102fe565b61035660808301846102cc565b9695505050505050565b600060208201905061037560008301846102fe565b92915050565b610384816102b6565b811461038f57600080fd5b50565b6000815190506103a18161037b565b92915050565b6103b0816102db565b81146103bb57600080fd5b50565b6000815190506103cd816103a7565b92915050565b6103dc816102f4565b81146103e757600080fd5b50565b6000815190506103f9816103d3565b92915050565b600080600080600060a0868803121561041b5761041a610214565b5b600061042988828901610392565b955050602061043a888289016103be565b945050604061044b888289016103ea565b935050606061045c888289016103ea565b925050608061046d88828901610392565b9150509295509295909350565b600082825260208201905092915050565b7f7374616c65205072696365000000000000000000000000000000000000000000600082015250565b60006104c1600b8361047a565b91506104cc8261048b565b602082019050919050565b600060208201905081810360008301526104f0816104b4565b9050919050565b7f4e487b7100000000000000000000000000000000000000000000000000000000600052601160045260246000fd5b6000610531826102f4565b915061053c836102f4565b9250828203905081811115610554576105536104f7565b5b92915050565b7f7374616c65207072696365000000000000000000000000000000000000000000600082015250565b6000610590600b8361047a565b915061059b8261055a565b602082019050919050565b600060208201905081810360008301526105bf81610583565b905091905056fea2646970667358221220d61e77e1adbddd7429e185232101bc9c477efb76179b72568ff056e7e72a4e2c64736f6c63430008120033",
  "linkReferences": {},
  "deployedLinkReferences": {}
}