{
  "_format": "hh-sol-artifact-1",
  "contractName": "streal1",
  "sourceName": "contracts/streal.sol",
  "abi": [
    {
      "inputs": [
        {
          "internalType": "string",
          "name": "_name",
          "type": "string"
        },
        {
          "internalType": "string",
          "name": "_symbol",
          "type": "string"
        }
      ],
      "stateMutability": "payable",
      "type": "constructor"
    },
    {
      "anonymous": false,
      "inputs": [
        {
          "indexed": true,
          "internalType": "address",
          "name": "owner",
          "type": "address"
        },
        {
          "indexed": true,
          "internalType": "address",
          "name": "spender",
          "type": "address"
        },
        {
          "indexed": false,
          "internalType": "uint256",
          "name": "value",
          "type": "uint256"
        }
      ],
      "name": "Approval",
      "type": "event"
    },
    {
      "anonymous": false,
      "inputs": [
        {
          "indexed": true,
          "internalType": "address",
          "name": "user",
          "type": "address"
        },
        {
          "indexed": false,
          "internalType": "uint256",
          "name": "reward",
          "type": "uint256"
        }
      ],
      "name": "EmergencyWithdrawal",
      "type": "event"
    },
    {
      "anonymous": false,
      "inputs": [
        {
          "indexed": false,
          "internalType": "uint256",
          "name": "value",
          "type": "uint256"
        },
        {
          "indexed": false,
          "internalType": "uint256",
          "name": "initialTotalSupply",
          "type": "uint256"
        },
        {
          "indexed": false,
          "internalType": "uint256",
          "name": "finalTotalSupply",
          "type": "uint256"
        }
      ],
      "name": "MintAndBurn",
      "type": "event"
    },
    {
      "anonymous": false,
      "inputs": [
        {
          "indexed": true,
          "internalType": "address",
          "name": "previousOwner",
          "type": "address"
        },
        {
          "indexed": true,
          "internalType": "address",
          "name": "newOwner",
          "type": "address"
        }
      ],
      "name": "OwnershipTransferred",
      "type": "event"
    },
    {
      "anonymous": false,
      "inputs": [
        {
          "indexed": true,
          "internalType": "address",
          "name": "user",
          "type": "address"
        },
        {
          "indexed": false,
          "internalType": "uint256",
          "name": "reward",
          "type": "uint256"
        }
      ],
      "name": "RewardClaimed",
      "type": "event"
    },
    {
      "anonymous": false,
      "inputs": [
        {
          "indexed": true,
          "internalType": "address",
          "name": "user",
          "type": "address"
        },
        {
          "indexed": false,
          "internalType": "uint256",
          "name": "reward",
          "type": "uint256"
        }
      ],
      "name": "RewardWithdrawn",
      "type": "event"
    },
    {
      "anonymous": false,
      "inputs": [
        {
          "indexed": true,
          "internalType": "address",
          "name": "staker",
          "type": "address"
        },
        {
          "indexed": false,
          "internalType": "uint256",
          "name": "value",
          "type": "uint256"
        }
      ],
      "name": "Staking",
      "type": "event"
    },
    {
      "anonymous": false,
      "inputs": [
        {
          "indexed": true,
          "internalType": "address",
          "name": "from",
          "type": "address"
        },
        {
          "indexed": true,
          "internalType": "address",
          "name": "to",
          "type": "address"
        },
        {
          "indexed": false,
          "internalType": "uint256",
          "name": "value",
          "type": "uint256"
        }
      ],
      "name": "Transfer",
      "type": "event"
    },
    {
      "anonymous": false,
      "inputs": [
        {
          "indexed": true,
          "internalType": "address",
          "name": "unstaker",
          "type": "address"
        },
        {
          "indexed": false,
          "internalType": "uint256",
          "name": "value",
          "type": "uint256"
        }
      ],
      "name": "Unstaking",
      "type": "event"
    },
    {
      "inputs": [
        {
          "internalType": "address[]",
          "name": "recipients",
          "type": "address[]"
        },
        {
          "internalType": "uint256[]",
          "name": "values",
          "type": "uint256[]"
        }
      ],
      "name": "airdrop",
      "outputs": [
        {
          "internalType": "bool",
          "name": "success",
          "type": "bool"
        }
      ],
      "stateMutability": "nonpayable",
      "type": "function"
    },
    {
      "inputs": [],
      "name": "airdrops",
      "outputs": [
        {
          "internalType": "uint256",
          "name": "",
          "type": "uint256"
        }
      ],
      "stateMutability": "view",
      "type": "function"
    },
    {
      "inputs": [
        {
          "internalType": "address",
          "name": "",
          "type": "address"
        },
        {
          "internalType": "address",
          "name": "",
          "type": "address"
        }
      ],
      "name": "allowance",
      "outputs": [
        {
          "internalType": "uint256",
          "name": "",
          "type": "uint256"
        }
      ],
      "stateMutability": "view",
      "type": "function"
    },
    {
      "inputs": [
        {
          "internalType": "address",
          "name": "spender",
          "type": "address"
        },
        {
          "internalType": "uint256",
          "name": "value",
          "type": "uint256"
        }
      ],
      "name": "approve",
      "outputs": [
        {
          "internalType": "bool",
          "name": "success",
          "type": "bool"
        }
      ],
      "stateMutability": "nonpayable",
      "type": "function"
    },
    {
      "inputs": [
        {
          "internalType": "address",
          "name": "",
          "type": "address"
        }
      ],
      "name": "balanceOf",
      "outputs": [
        {
          "internalType": "uint256",
          "name": "",
          "type": "uint256"
        }
      ],
      "stateMutability": "view",
      "type": "function"
    },
    {
      "inputs": [
        {
          "internalType": "uint256",
          "name": "value",
          "type": "uint256"
        }
      ],
      "name": "burn",
      "outputs": [
        {
          "internalType": "bool",
          "name": "success",
          "type": "bool"
        }
      ],
      "stateMutability": "nonpayable",
      "type": "function"
    },
    {
      "inputs": [
        {
          "internalType": "uint256",
          "name": "tokensToBuy",
          "type": "uint256"
        }
      ],
      "name": "buyTokens",
      "outputs": [],
      "stateMutability": "payable",
      "type": "function"
    },
    {
      "inputs": [],
      "name": "circulatingSupply",
      "outputs": [
        {
          "internalType": "uint256",
          "name": "",
          "type": "uint256"
        }
      ],
      "stateMutability": "view",
      "type": "function"
    },
    {
      "inputs": [],
      "name": "claimReward",
      "outputs": [],
      "stateMutability": "nonpayable",
      "type": "function"
    },
    {
      "inputs": [],
      "name": "decimals",
      "outputs": [
        {
          "internalType": "uint256",
          "name": "",
          "type": "uint256"
        }
      ],
      "stateMutability": "view",
      "type": "function"
    },
    {
      "inputs": [],
      "name": "emergencyWithdraw",
      "outputs": [],
      "stateMutability": "nonpayable",
      "type": "function"
    },
    {
      "inputs": [
        {
          "internalType": "uint256",
          "name": "value",
          "type": "uint256"
        }
      ],
      "name": "flashMint",
      "outputs": [],
      "stateMutability": "nonpayable",
      "type": "function"
    },
    {
      "inputs": [],
      "name": "getStakedAddresses",
      "outputs": [
        {
          "internalType": "address[]",
          "name": "",
          "type": "address[]"
        }
      ],
      "stateMutability": "view",
      "type": "function"
    },
    {
      "inputs": [
        {
          "internalType": "address",
          "name": "candidate",
          "type": "address"
        }
      ],
      "name": "getVoteCount",
      "outputs": [
        {
          "internalType": "uint256",
          "name": "count",
          "type": "uint256"
        }
      ],
      "stateMutability": "view",
      "type": "function"
    },
    {
      "inputs": [
        {
          "internalType": "address",
          "name": "",
          "type": "address"
        }
      ],
      "name": "hasVoted",
      "outputs": [
        {
          "internalType": "address",
          "name": "",
          "type": "address"
        }
      ],
      "stateMutability": "view",
      "type": "function"
    },
    {
      "inputs": [],
      "name": "initialSupply",
      "outputs": [
        {
          "internalType": "uint256",
          "name": "",
          "type": "uint256"
        }
      ],
      "stateMutability": "view",
      "type": "function"
    },
    {
      "inputs": [
        {
          "internalType": "address",
          "name": "",
          "type": "address"
        }
      ],
      "name": "isStaking",
      "outputs": [
        {
          "internalType": "bool",
          "name": "",
          "type": "bool"
        }
      ],
      "stateMutability": "view",
      "type": "function"
    },
    {
      "inputs": [
        {
          "internalType": "address",
          "name": "",
          "type": "address"
        }
      ],
      "name": "lastClaimTime",
      "outputs": [
        {
          "internalType": "uint256",
          "name": "",
          "type": "uint256"
        }
      ],
      "stateMutability": "view",
      "type": "function"
    },
    {
      "inputs": [],
      "name": "maxRewardRate",
      "outputs": [
        {
          "internalType": "uint256",
          "name": "",
          "type": "uint256"
        }
      ],
      "stateMutability": "view",
      "type": "function"
    },
    {
      "inputs": [],
      "name": "minStakeAmount",
      "outputs": [
        {
          "internalType": "uint256",
          "name": "",
          "type": "uint256"
        }
      ],
      "stateMutability": "view",
      "type": "function"
    },
    {
      "inputs": [],
      "name": "mine",
      "outputs": [
        {
          "internalType": "bool",
          "name": "",
          "type": "bool"
        }
      ],
      "stateMutability": "nonpayable",
      "type": "function"
    },
    {
      "inputs": [],
      "name": "mineRewards",
      "outputs": [
        {
          "internalType": "uint256",
          "name": "",
          "type": "uint256"
        }
      ],
      "stateMutability": "view",
      "type": "function"
    },
    {
      "inputs": [],
      "name": "name",
      "outputs": [
        {
          "internalType": "string",
          "name": "",
          "type": "string"
        }
      ],
      "stateMutability": "view",
      "type": "function"
    },
    {
      "inputs": [],
      "name": "owner",
      "outputs": [
        {
          "internalType": "address",
          "name": "",
          "type": "address"
        }
      ],
      "stateMutability": "view",
      "type": "function"
    },
    {
      "inputs": [
        {
          "internalType": "address",
          "name": "",
          "type": "address"
        }
      ],
      "name": "rewardBalance",
      "outputs": [
        {
          "internalType": "uint256",
          "name": "",
          "type": "uint256"
        }
      ],
      "stateMutability": "view",
      "type": "function"
    },
    {
      "inputs": [],
      "name": "rewardInterval",
      "outputs": [
        {
          "internalType": "uint256",
          "name": "",
          "type": "uint256"
        }
      ],
      "stateMutability": "view",
      "type": "function"
    },
    {
      "inputs": [],
      "name": "rewardRate",
      "outputs": [
        {
          "internalType": "uint256",
          "name": "",
          "type": "uint256"
        }
      ],
      "stateMutability": "view",
      "type": "function"
    },
    {
      "inputs": [
        {
          "internalType": "uint256",
          "name": "_rewardRate",
          "type": "uint256"
        }
      ],
      "name": "setRewardRate",
      "outputs": [],
      "stateMutability": "nonpayable",
      "type": "function"
    },
    {
      "inputs": [
        {
          "internalType": "uint256",
          "name": "_amount",
          "type": "uint256"
        }
      ],
      "name": "stake",
      "outputs": [
        {
          "internalType": "bool",
          "name": "success",
          "type": "bool"
        }
      ],
      "stateMutability": "payable",
      "type": "function"
    },
    {
      "inputs": [
        {
          "internalType": "uint256",
          "name": "",
          "type": "uint256"
        }
      ],
      "name": "stakeHolders",
      "outputs": [
        {
          "internalType": "address",
          "name": "",
          "type": "address"
        }
      ],
      "stateMutability": "view",
      "type": "function"
    },
    {
      "inputs": [],
      "name": "stakeRewards",
      "outputs": [
        {
          "internalType": "uint256",
          "name": "",
          "type": "uint256"
        }
      ],
      "stateMutability": "view",
      "type": "function"
    },
    {
      "inputs": [
        {
          "internalType": "address",
          "name": "",
          "type": "address"
        }
      ],
      "name": "stakeTime",
      "outputs": [
        {
          "internalType": "uint256",
          "name": "",
          "type": "uint256"
        }
      ],
      "stateMutability": "view",
      "type": "function"
    },
    {
      "inputs": [
        {
          "internalType": "address",
          "name": "",
          "type": "address"
        }
      ],
      "name": "stakedBalance",
      "outputs": [
        {
          "internalType": "uint256",
          "name": "",
          "type": "uint256"
        }
      ],
      "stateMutability": "view",
      "type": "function"
    },
    {
      "inputs": [],
      "name": "symbol",
      "outputs": [
        {
          "internalType": "string",
          "name": "",
          "type": "string"
        }
      ],
      "stateMutability": "view",
      "type": "function"
    },
    {
      "inputs": [],
      "name": "tokenPrice",
      "outputs": [
        {
          "internalType": "uint256",
          "name": "",
          "type": "uint256"
        }
      ],
      "stateMutability": "view",
      "type": "function"
    },
    {
      "inputs": [],
      "name": "tokensLeft",
      "outputs": [
        {
          "internalType": "uint256",
          "name": "",
          "type": "uint256"
        }
      ],
      "stateMutability": "view",
      "type": "function"
    },
    {
      "inputs": [],
      "name": "totalStakedBalance",
      "outputs": [
        {
          "internalType": "uint256",
          "name": "",
          "type": "uint256"
        }
      ],
      "stateMutability": "view",
      "type": "function"
    },
    {
      "inputs": [],
      "name": "totalSupply",
      "outputs": [
        {
          "internalType": "uint256",
          "name": "",
          "type": "uint256"
        }
      ],
      "stateMutability": "view",
      "type": "function"
    },
    {
      "inputs": [],
      "name": "totalTokensSold",
      "outputs": [
        {
          "internalType": "uint256",
          "name": "",
          "type": "uint256"
        }
      ],
      "stateMutability": "view",
      "type": "function"
    },
    {
      "inputs": [
        {
          "internalType": "address",
          "name": "to",
          "type": "address"
        },
        {
          "internalType": "uint256",
          "name": "value",
          "type": "uint256"
        }
      ],
      "name": "transfer",
      "outputs": [
        {
          "internalType": "bool",
          "name": "success",
          "type": "bool"
        }
      ],
      "stateMutability": "nonpayable",
      "type": "function"
    },
    {
      "inputs": [
        {
          "internalType": "address",
          "name": "from",
          "type": "address"
        },
        {
          "internalType": "address",
          "name": "to",
          "type": "address"
        },
        {
          "internalType": "uint256",
          "name": "value",
          "type": "uint256"
        }
      ],
      "name": "transferFrom",
      "outputs": [
        {
          "internalType": "bool",
          "name": "success",
          "type": "bool"
        }
      ],
      "stateMutability": "nonpayable",
      "type": "function"
    },
    {
      "inputs": [
        {
          "internalType": "address",
          "name": "newOwner",
          "type": "address"
        }
      ],
      "name": "transferOwnership",
      "outputs": [],
      "stateMutability": "nonpayable",
      "type": "function"
    },
    {
      "inputs": [
        {
          "internalType": "uint256",
          "name": "_amount",
          "type": "uint256"
        }
      ],
      "name": "unstake",
      "outputs": [
        {
          "internalType": "bool",
          "name": "success",
          "type": "bool"
        }
      ],
      "stateMutability": "nonpayable",
      "type": "function"
    },
    {
      "inputs": [
        {
          "internalType": "address",
          "name": "candidate",
          "type": "address"
        }
      ],
      "name": "vote",
      "outputs": [
        {
          "internalType": "bool",
          "name": "success",
          "type": "bool"
        }
      ],
      "stateMutability": "nonpayable",
      "type": "function"
    },
    {
      "inputs": [
        {
          "internalType": "address",
          "name": "",
          "type": "address"
        }
      ],
      "name": "votes",
      "outputs": [
        {
          "internalType": "uint256",
          "name": "",
          "type": "uint256"
        }
      ],
      "stateMutability": "view",
      "type": "function"
    },
    {
      "inputs": [],
      "name": "withdrawRewards",
      "outputs": [],
      "stateMutability": "nonpayable",
      "type": "function"
    }
  ],
  "bytecode": "0x6080604052601260025561012c600555600254600a62000020919062000480565b6103e86200002f9190620004d1565b600755600254600a62000043919062000480565b611770620000529190620004d1565b600855600254600a62000066919062000480565b612710620000759190620004d1565b600955600254600a62000089919062000480565b612710620000989190620004d1565b600a55600254600a620000ac919062000480565b610fa0620000bb9190620004d1565b600b5560405162005b7338038062005b738339818101604052810190620000e39190620006af565b8160009081620000f4919062000975565b50806001908162000106919062000975565b50600954601160003373ffffffffffffffffffffffffffffffffffffffff1673ffffffffffffffffffffffffffffffffffffffff16815260200190815260200160002081905550600854601160003373ffffffffffffffffffffffffffffffffffffffff1673ffffffffffffffffffffffffffffffffffffffff16815260200190815260200160002081905550600754601160003373ffffffffffffffffffffffffffffffffffffffff1673ffffffffffffffffffffffffffffffffffffffff1681526020019081526020016000206000828254620001e6919062000a5c565b92505081905550600a54601160003373ffffffffffffffffffffffffffffffffffffffff1673ffffffffffffffffffffffffffffffffffffffff168152602001908152602001600020600082825462000240919062000a5c565b92505081905550600b54601160003373ffffffffffffffffffffffffffffffffffffffff1673ffffffffffffffffffffffffffffffffffffffff16815260200190815260200160002060008282546200029a919062000a5c565b9250508190555060095460038190555033600e60006101000a81548173ffffffffffffffffffffffffffffffffffffffff021916908373ffffffffffffffffffffffffffffffffffffffff160217905550505062000a97565b7f4e487b7100000000000000000000000000000000000000000000000000000000600052601160045260246000fd5b60008160011c9050919050565b6000808291508390505b60018511156200038157808604811115620003595762000358620002f3565b5b6001851615620003695780820291505b8081029050620003798562000322565b945062000339565b94509492505050565b6000826200039c57600190506200046f565b81620003ac57600090506200046f565b8160018114620003c55760028114620003d05762000406565b60019150506200046f565b60ff841115620003e557620003e4620002f3565b5b8360020a915084821115620003ff57620003fe620002f3565b5b506200046f565b5060208310610133831016604e8410600b8410161715620004405782820a9050838111156200043a5762000439620002f3565b5b6200046f565b6200044f84848460016200032f565b92509050818404811115620004695762000468620002f3565b5b81810290505b9392505050565b6000819050919050565b60006200048d8262000476565b91506200049a8362000476565b9250620004c97fffffffffffffffffffffffffffffffffffffffffffffffffffffffffffffffff84846200038a565b905092915050565b6000620004de8262000476565b9150620004eb8362000476565b9250828202620004fb8162000476565b91508282048414831517620005155762000514620002f3565b5b5092915050565b6000604051905090565b600080fd5b600080fd5b600080fd5b600080fd5b6000601f19601f8301169050919050565b7f4e487b7100000000000000000000000000000000000000000000000000000000600052604160045260246000fd5b62000585826200053a565b810181811067ffffffffffffffff82111715620005a757620005a66200054b565b5b80604052505050565b6000620005bc6200051c565b9050620005ca82826200057a565b919050565b600067ffffffffffffffff821115620005ed57620005ec6200054b565b5b620005f8826200053a565b9050602081019050919050565b60005b838110156200062557808201518184015260208101905062000608565b60008484015250505050565b6000620006486200064284620005cf565b620005b0565b90508281526020810184848401111562000667576200066662000535565b5b6200067484828562000605565b509392505050565b600082601f83011262000694576200069362000530565b5b8151620006a684826020860162000631565b91505092915050565b60008060408385031215620006c957620006c862000526565b5b600083015167ffffffffffffffff811115620006ea57620006e96200052b565b5b620006f8858286016200067c565b925050602083015167ffffffffffffffff8111156200071c576200071b6200052b565b5b6200072a858286016200067c565b9150509250929050565b600081519050919050565b7f4e487b7100000000000000000000000000000000000000000000000000000000600052602260045260246000fd5b600060028204905060018216806200078757607f821691505b6020821081036200079d576200079c6200073f565b5b50919050565b60008190508160005260206000209050919050565b60006020601f8301049050919050565b600082821b905092915050565b600060088302620008077fffffffffffffffffffffffffffffffffffffffffffffffffffffffffffffffff82620007c8565b620008138683620007c8565b95508019841693508086168417925050509392505050565b6000819050919050565b600062000856620008506200084a8462000476565b6200082b565b62000476565b9050919050565b6000819050919050565b620008728362000835565b6200088a62000881826200085d565b848454620007d5565b825550505050565b600090565b620008a162000892565b620008ae81848462000867565b505050565b5b81811015620008d657620008ca60008262000897565b600181019050620008b4565b5050565b601f8211156200092557620008ef81620007a3565b620008fa84620007b8565b810160208510156200090a578190505b620009226200091985620007b8565b830182620008b3565b50505b505050565b600082821c905092915050565b60006200094a600019846008026200092a565b1980831691505092915050565b600062000965838362000937565b9150826002028217905092915050565b620009808262000734565b67ffffffffffffffff8111156200099c576200099b6200054b565b5b620009a882546200076e565b620009b5828285620008da565b600060209050601f831160018114620009ed5760008415620009d8578287015190505b620009e4858262000957565b86555062000a54565b601f198416620009fd86620007a3565b60005b8281101562000a275784890151825560018201915060208501945060208101905062000a00565b8683101562000a47578489015162000a43601f89168262000937565b8355505b6001600288020188555050505b505050505050565b600062000a698262000476565b915062000a768362000476565b925082820190508082111562000a915762000a90620002f3565b5b92915050565b6150cc8062000aa76000396000f3fe60806040526004361061027d5760003560e01c80637b0a47ee1161014f578063b77cf9c6116100c1578063db2e21bc1161007a578063db2e21bc14610a24578063dd62ed3e14610a3b578063e652f4cc14610a78578063f188768414610ab5578063f2fde38b14610ae0578063ff51359114610b095761027d565b8063b77cf9c614610926578063b88a802f14610963578063bec4de3f1461097a578063c7b8981c146109a5578063cf9d0b5f146109bc578063d8bff5a5146109e75761027d565b806399f4b2511161011357806399f4b251146107fd5780639e447fc614610828578063a694fc3a14610851578063a9059cbb14610881578063acad41a4146108be578063b31f8f93146108fb5761027d565b80637b0a47ee146107265780637ff9b596146107515780638da5cb5b1461077c5780639358928b146107a757806395d89b41146107d25761027d565b8063313ce567116101f357806367243482116101ac57806367243482146105ca57806367b40cf714610607578063680b9d49146106445780636dd7d8ea1461066f5780636f49712b146106ac57806370a08231146106e95761027d565b8063313ce567146104b35780633610724e146104de578063378dc3dc146104fa57806342966c6814610525578063602172671461056257806363b201171461059f5761027d565b806318160ddd1161024557806318160ddd1461037d57806319ffd7ce146103a85780632170e472146103d157806323b872dd1461040e5780632e17de781461044b57806330e7e8dc146104885761027d565b80630620eedc1461028257806306fdde03146102ad578063095ea7b3146102d857806309eef43e146103155780630d40ffc714610352575b600080fd5b34801561028e57600080fd5b50610297610b34565b6040516102a491906138aa565b60405180910390f35b3480156102b957600080fd5b506102c2610b3a565b6040516102cf9190613955565b60405180910390f35b3480156102e457600080fd5b506102ff60048036038101906102fa9190613a15565b610bc8565b60405161030c9190613a70565b60405180910390f35b34801561032157600080fd5b5061033c60048036038101906103379190613a8b565b610d14565b6040516103499190613ac7565b60405180910390f35b34801561035e57600080fd5b50610367610d47565b60405161037491906138aa565b60405180910390f35b34801561038957600080fd5b50610392610d4d565b60405161039f91906138aa565b60405180910390f35b3480156103b457600080fd5b506103cf60048036038101906103ca9190613ae2565b610d53565b005b3480156103dd57600080fd5b506103f860048036038101906103f39190613a8b565b6110ba565b60405161040591906138aa565b60405180910390f35b34801561041a57600080fd5b5061043560048036038101906104309190613b0f565b6110d2565b6040516104429190613a70565b60405180910390f35b34801561045757600080fd5b50610472600480360381019061046d9190613ae2565b61157e565b60405161047f9190613a70565b60405180910390f35b34801561049457600080fd5b5061049d611955565b6040516104aa91906138aa565b60405180910390f35b3480156104bf57600080fd5b506104c861195b565b6040516104d591906138aa565b60405180910390f35b6104f860048036038101906104f39190613ae2565b611961565b005b34801561050657600080fd5b5061050f611b70565b60405161051c91906138aa565b60405180910390f35b34801561053157600080fd5b5061054c60048036038101906105479190613ae2565b611b76565b6040516105599190613a70565b60405180910390f35b34801561056e57600080fd5b5061058960048036038101906105849190613a8b565b611d68565b60405161059691906138aa565b60405180910390f35b3480156105ab57600080fd5b506105b4611d80565b6040516105c191906138aa565b60405180910390f35b3480156105d657600080fd5b506105f160048036038101906105ec9190613d6d565b611d86565b6040516105fe9190613a70565b60405180910390f35b34801561061357600080fd5b5061062e60048036038101906106299190613a8b565b61200f565b60405161063b91906138aa565b60405180910390f35b34801561065057600080fd5b50610659612027565b6040516106669190613ea3565b60405180910390f35b34801561067b57600080fd5b5061069660048036038101906106919190613a8b565b6120b5565b6040516106a39190613a70565b60405180910390f35b3480156106b857600080fd5b506106d360048036038101906106ce9190613a8b565b61247f565b6040516106e09190613a70565b60405180910390f35b3480156106f557600080fd5b50610710600480360381019061070b9190613a8b565b61249f565b60405161071d91906138aa565b60405180910390f35b34801561073257600080fd5b5061073b6124b7565b60405161074891906138aa565b60405180910390f35b34801561075d57600080fd5b506107666124bd565b60405161077391906138aa565b60405180910390f35b34801561078857600080fd5b506107916124c8565b60405161079e9190613ac7565b60405180910390f35b3480156107b357600080fd5b506107bc6124ee565b6040516107c991906138aa565b60405180910390f35b3480156107de57600080fd5b506107e76124f4565b6040516107f49190613955565b60405180910390f35b34801561080957600080fd5b50610812612582565b60405161081f9190613a70565b60405180910390f35b34801561083457600080fd5b5061084f600480360381019061084a9190613ae2565b61291e565b005b61086b60048036038101906108669190613ae2565b6129fd565b6040516108789190613a70565b60405180910390f35b34801561088d57600080fd5b506108a860048036038101906108a39190613a15565b612db6565b6040516108b59190613a70565b60405180910390f35b3480156108ca57600080fd5b506108e560048036038101906108e09190613ae2565b612f55565b6040516108f29190613ac7565b60405180910390f35b34801561090757600080fd5b50610910612f94565b60405161091d91906138aa565b60405180910390f35b34801561093257600080fd5b5061094d60048036038101906109489190613a8b565b612f9a565b60405161095a91906138aa565b60405180910390f35b34801561096f57600080fd5b50610978612fb2565b005b34801561098657600080fd5b5061098f613228565b60405161099c91906138aa565b60405180910390f35b3480156109b157600080fd5b506109ba61322f565b005b3480156109c857600080fd5b506109d16133fa565b6040516109de91906138aa565b60405180910390f35b3480156109f357600080fd5b50610a0e6004803603810190610a099190613a8b565b613400565b604051610a1b91906138aa565b60405180910390f35b348015610a3057600080fd5b50610a39613418565b005b348015610a4757600080fd5b50610a626004803603810190610a5d9190613ec5565b6135e3565b604051610a6f91906138aa565b60405180910390f35b348015610a8457600080fd5b50610a9f6004803603810190610a9a9190613a8b565b613608565b604051610aac91906138aa565b60405180910390f35b348015610ac157600080fd5b50610aca6136bf565b604051610ad791906138aa565b60405180910390f35b348015610aec57600080fd5b50610b076004803603810190610b029190613a8b565b6136ca565b005b348015610b1557600080fd5b50610b1e613889565b604051610b2b91906138aa565b60405180910390f35b60045481565b60008054610b4790613f34565b80601f0160208091040260200160405190810160405280929190818152602001828054610b7390613f34565b8015610bc05780601f10610b9557610100808354040283529160200191610bc0565b820191906000526020600020905b815481529060010190602001808311610ba357829003601f168201915b505050505081565b6000600e60009054906101000a900473ffffffffffffffffffffffffffffffffffffffff1673ffffffffffffffffffffffffffffffffffffffff163373ffffffffffffffffffffffffffffffffffffffff1614610c2457600080fd5b81601260003373ffffffffffffffffffffffffffffffffffffffff1673ffffffffffffffffffffffffffffffffffffffff16815260200190815260200160002060008573ffffffffffffffffffffffffffffffffffffffff1673ffffffffffffffffffffffffffffffffffffffff168152602001908152602001600020819055508273ffffffffffffffffffffffffffffffffffffffff163373ffffffffffffffffffffffffffffffffffffffff167f8c5be1e5ebec7d5bd14f71427d1e84f3dd0314c0f7b2291e5b200ac8c7c3b92584604051610d0291906138aa565b60405180910390a36001905092915050565b60106020528060005260406000206000915054906101000a900473ffffffffffffffffffffffffffffffffffffffff1681565b6101f481565b60035481565b600e60009054906101000a900473ffffffffffffffffffffffffffffffffffffffff1673ffffffffffffffffffffffffffffffffffffffff163373ffffffffffffffffffffffffffffffffffffffff1614610de3576040517f08c379a0000000000000000000000000000000000000000000000000000000008152600401610dda90613fd7565b60405180910390fd5b6000600354905081601160003373ffffffffffffffffffffffffffffffffffffffff1673ffffffffffffffffffffffffffffffffffffffff168152602001908152602001600020541015610e6c576040517f08c379a0000000000000000000000000000000000000000000000000000000008152600401610e6390614043565b60405180910390fd5b7fffffffffffffffffffffffffffffffffffffffffffffffffffffffffffffffff8282610e999190614092565b1115610eda576040517f08c379a0000000000000000000000000000000000000000000000000000000008152600401610ed190614112565b60405180910390fd5b8181610ee69190614092565b60038190555081601160003373ffffffffffffffffffffffffffffffffffffffff1673ffffffffffffffffffffffffffffffffffffffff1681526020019081526020016000206000828254610f3b9190614092565b92505081905550610f4a61388f565b600060035490508160038190555082601160003373ffffffffffffffffffffffffffffffffffffffff1673ffffffffffffffffffffffffffffffffffffffff1681526020019081526020016000206000828254610fa79190614132565b925050819055503373ffffffffffffffffffffffffffffffffffffffff16600073ffffffffffffffffffffffffffffffffffffffff167fddf252ad1be2c89b69c2b068fc378daa952ba7f163c4a11628f55a4df523b3ef8560405161100c91906138aa565b60405180910390a3600073ffffffffffffffffffffffffffffffffffffffff163373ffffffffffffffffffffffffffffffffffffffff167fddf252ad1be2c89b69c2b068fc378daa952ba7f163c4a11628f55a4df523b3ef8560405161107291906138aa565b60405180910390a37f160fda8c97ef118b355921854375d9450e8fa37c707850d99838255ef8899fd68383836040516110ad93929190614166565b60405180910390a1505050565b60146020528060005260406000206000915090505481565b60008073ffffffffffffffffffffffffffffffffffffffff163373ffffffffffffffffffffffffffffffffffffffff1603611142576040517f08c379a0000000000000000000000000000000000000000000000000000000008152600401611139906141e9565b60405180910390fd5b600073ffffffffffffffffffffffffffffffffffffffff168473ffffffffffffffffffffffffffffffffffffffff16036111b1576040517f08c379a00000000000000000000000000000000000000000000000000000000081526004016111a890614255565b60405180910390fd5b600073ffffffffffffffffffffffffffffffffffffffff168373ffffffffffffffffffffffffffffffffffffffff1603611220576040517f08c379a0000000000000000000000000000000000000000000000000000000008152600401611217906142c1565b60405180910390fd5b81601160008673ffffffffffffffffffffffffffffffffffffffff1673ffffffffffffffffffffffffffffffffffffffff1681526020019081526020016000205410156112a2576040517f08c379a000000000000000000000000000000000000000000000000000000000815260040161129990614043565b60405180910390fd5b81601260008673ffffffffffffffffffffffffffffffffffffffff1673ffffffffffffffffffffffffffffffffffffffff16815260200190815260200160002060003373ffffffffffffffffffffffffffffffffffffffff1673ffffffffffffffffffffffffffffffffffffffff168152602001908152602001600020541015611361576040517f08c379a000000000000000000000000000000000000000000000000000000000815260040161135890614353565b60405180910390fd5b8273ffffffffffffffffffffffffffffffffffffffff168473ffffffffffffffffffffffffffffffffffffffff16036113cf576040517f08c379a00000000000000000000000000000000000000000000000000000000081526004016113c6906143e5565b60405180910390fd5b81601160008673ffffffffffffffffffffffffffffffffffffffff1673ffffffffffffffffffffffffffffffffffffffff168152602001908152602001600020600082825461141e9190614132565b9250508190555081601260008673ffffffffffffffffffffffffffffffffffffffff1673ffffffffffffffffffffffffffffffffffffffff16815260200190815260200160002060003373ffffffffffffffffffffffffffffffffffffffff1673ffffffffffffffffffffffffffffffffffffffff16815260200190815260200160002060008282546114b19190614132565b9250508190555081601160008573ffffffffffffffffffffffffffffffffffffffff1673ffffffffffffffffffffffffffffffffffffffff16815260200190815260200160002060008282546115079190614092565b925050819055508273ffffffffffffffffffffffffffffffffffffffff168473ffffffffffffffffffffffffffffffffffffffff167fddf252ad1be2c89b69c2b068fc378daa952ba7f163c4a11628f55a4df523b3ef8460405161156b91906138aa565b60405180910390a3600190509392505050565b600080601560003373ffffffffffffffffffffffffffffffffffffffff1673ffffffffffffffffffffffffffffffffffffffff1681526020019081526020016000205411611601576040517f08c379a00000000000000000000000000000000000000000000000000000000081526004016115f890614451565b60405180910390fd5b601360003373ffffffffffffffffffffffffffffffffffffffff1673ffffffffffffffffffffffffffffffffffffffff16815260200190815260200160002060009054906101000a900460ff1661168d576040517f08c379a0000000000000000000000000000000000000000000000000000000008152600401611684906144bd565b60405180910390fd5b81601560003373ffffffffffffffffffffffffffffffffffffffff1673ffffffffffffffffffffffffffffffffffffffff16815260200190815260200160002054101561170f576040517f08c379a000000000000000000000000000000000000000000000000000000000815260040161170690614529565b60405180910390fd5b6000601460003373ffffffffffffffffffffffffffffffffffffffff1673ffffffffffffffffffffffffffffffffffffffff168152602001908152602001600020544261175c9190614132565b9050600060646203f4806117709190614549565b82600554601560003373ffffffffffffffffffffffffffffffffffffffff1673ffffffffffffffffffffffffffffffffffffffff168152602001908152602001600020546117be9190614549565b6117c89190614549565b6117d291906145ba565b90506000601360003373ffffffffffffffffffffffffffffffffffffffff1673ffffffffffffffffffffffffffffffffffffffff16815260200190815260200160002060006101000a81548160ff02191690831515021790555083601560003373ffffffffffffffffffffffffffffffffffffffff1673ffffffffffffffffffffffffffffffffffffffff168152602001908152602001600020600082825461187b9190614132565b9250508190555083600460008282546118949190614132565b9250508190555080846118a79190614092565b601160003373ffffffffffffffffffffffffffffffffffffffff1673ffffffffffffffffffffffffffffffffffffffff16815260200190815260200160002060008282546118f59190614092565b925050819055503373ffffffffffffffffffffffffffffffffffffffff167ff2619dcba9802bb8ec071016f659320c48304701ba220f0420bed16f87139a668560405161194291906138aa565b60405180910390a2600192505050919050565b600a5481565b60025481565b6000819050600c546009546119769190614132565b600d8190555080600d5410156119c1576040517f08c379a00000000000000000000000000000000000000000000000000000000081526004016119b89061465d565b60405180910390fd5b600081662386f26fc100006119d69190614549565b905080341015611a1b576040517f08c379a0000000000000000000000000000000000000000000000000000000008152600401611a12906146c9565b60405180910390fd5b81600c6000828254611a2d9190614092565b9250508190555081601160003373ffffffffffffffffffffffffffffffffffffffff1673ffffffffffffffffffffffffffffffffffffffff1681526020019081526020016000206000828254611a839190614092565b925050819055503373ffffffffffffffffffffffffffffffffffffffff16600073ffffffffffffffffffffffffffffffffffffffff167fddf252ad1be2c89b69c2b068fc378daa952ba7f163c4a11628f55a4df523b3ef84604051611ae891906138aa565b60405180910390a38160086000828254611b029190614132565b9250508190555060008134611b179190614132565b90506000811115611b6a573373ffffffffffffffffffffffffffffffffffffffff166108fc829081150290604051600060405180830381858888f19350505050158015611b68573d6000803e3d6000fd5b505b50505050565b60095481565b6000600e60009054906101000a900473ffffffffffffffffffffffffffffffffffffffff1673ffffffffffffffffffffffffffffffffffffffff163373ffffffffffffffffffffffffffffffffffffffff1614611c08576040517f08c379a0000000000000000000000000000000000000000000000000000000008152600401611bff90613fd7565b60405180910390fd5b81601160003373ffffffffffffffffffffffffffffffffffffffff1673ffffffffffffffffffffffffffffffffffffffff168152602001908152602001600020541015611c8a576040517f08c379a0000000000000000000000000000000000000000000000000000000008152600401611c8190614043565b60405180910390fd5b8160036000828254611c9c9190614132565b9250508190555081601160003373ffffffffffffffffffffffffffffffffffffffff1673ffffffffffffffffffffffffffffffffffffffff1681526020019081526020016000206000828254611cf29190614132565b92505081905550600073ffffffffffffffffffffffffffffffffffffffff163373ffffffffffffffffffffffffffffffffffffffff167fddf252ad1be2c89b69c2b068fc378daa952ba7f163c4a11628f55a4df523b3ef84604051611d5791906138aa565b60405180910390a360019050919050565b60156020528060005260406000206000915090505481565b600c5481565b6000600e60009054906101000a900473ffffffffffffffffffffffffffffffffffffffff1673ffffffffffffffffffffffffffffffffffffffff163373ffffffffffffffffffffffffffffffffffffffff1614611e18576040517f08c379a0000000000000000000000000000000000000000000000000000000008152600401611e0f90613fd7565b60405180910390fd5b8151835114611e5c576040517f08c379a0000000000000000000000000000000000000000000000000000000008152600401611e5390614735565b60405180910390fd5b6000805b8451811015611f2d57600073ffffffffffffffffffffffffffffffffffffffff16858281518110611e9457611e93614755565b5b602002602001015173ffffffffffffffffffffffffffffffffffffffff1603611ef2576040517f08c379a0000000000000000000000000000000000000000000000000000000008152600401611ee9906147d0565b60405180910390fd5b838181518110611f0557611f04614755565b5b602002602001015182611f189190614092565b91508080611f25906147f0565b915050611e60565b50600b54811115611f73576040517f08c379a0000000000000000000000000000000000000000000000000000000008152600401611f6a90614884565b60405180910390fd5b60005b8451811015611fea57611fd6858281518110611f9557611f94614755565b5b6020026020010151600254600a611fac91906149d7565b868481518110611fbf57611fbe614755565b5b6020026020010151611fd19190614549565b612db6565b508080611fe2906147f0565b915050611f76565b5080600b6000828254611ffd9190614132565b92505081905550600191505092915050565b60166020528060005260406000206000915090505481565b606060068054806020026020016040519081016040528092919081815260200182805480156120ab57602002820191906000526020600020905b8160009054906101000a900473ffffffffffffffffffffffffffffffffffffffff1673ffffffffffffffffffffffffffffffffffffffff1681526020019060010190808311612061575b5050505050905090565b60008073ffffffffffffffffffffffffffffffffffffffff168273ffffffffffffffffffffffffffffffffffffffff1603612125576040517f08c379a000000000000000000000000000000000000000000000000000000000815260040161211c90614a6e565b60405180910390fd5b6001601160003373ffffffffffffffffffffffffffffffffffffffff1673ffffffffffffffffffffffffffffffffffffffff1681526020019081526020016000205410156121a8576040517f08c379a000000000000000000000000000000000000000000000000000000000815260040161219f90614043565b60405180910390fd5b3373ffffffffffffffffffffffffffffffffffffffff168273ffffffffffffffffffffffffffffffffffffffff1603612216576040517f08c379a000000000000000000000000000000000000000000000000000000000815260040161220d90614ada565b60405180910390fd5b8173ffffffffffffffffffffffffffffffffffffffff16601060003373ffffffffffffffffffffffffffffffffffffffff1673ffffffffffffffffffffffffffffffffffffffff16815260200190815260200160002060009054906101000a900473ffffffffffffffffffffffffffffffffffffffff1673ffffffffffffffffffffffffffffffffffffffff16036122e3576040517f08c379a00000000000000000000000000000000000000000000000000000000081526004016122da90614b6c565b60405180910390fd5b6001600f60008473ffffffffffffffffffffffffffffffffffffffff1673ffffffffffffffffffffffffffffffffffffffff16815260200190815260200160002060008282546123339190614092565b9250508190555081601060003373ffffffffffffffffffffffffffffffffffffffff1673ffffffffffffffffffffffffffffffffffffffff16815260200190815260200160002060006101000a81548173ffffffffffffffffffffffffffffffffffffffff021916908373ffffffffffffffffffffffffffffffffffffffff1602179055506001601160003373ffffffffffffffffffffffffffffffffffffffff1673ffffffffffffffffffffffffffffffffffffffff16815260200190815260200160002060008282546124089190614132565b92505081905550600073ffffffffffffffffffffffffffffffffffffffff163373ffffffffffffffffffffffffffffffffffffffff167fddf252ad1be2c89b69c2b068fc378daa952ba7f163c4a11628f55a4df523b3ef600160405161246e9190614bd1565b60405180910390a360019050919050565b60136020528060005260406000206000915054906101000a900460ff1681565b60116020528060005260406000206000915090505481565b60055481565b662386f26fc1000081565b600e60009054906101000a900473ffffffffffffffffffffffffffffffffffffffff1681565b60085481565b6001805461250190613f34565b80601f016020809104026020016040519081016040528092919081815260200182805461252d90613f34565b801561257a5780601f1061254f5761010080835404028352916020019161257a565b820191906000526020600020905b81548152906001019060200180831161255d57829003601f168201915b505050505081565b6000601860003373ffffffffffffffffffffffffffffffffffffffff1673ffffffffffffffffffffffffffffffffffffffff16815260200190815260200160002060009054906101000a900460ff1615612611576040517f08c379a000000000000000000000000000000000000000000000000000000000815260040161260890614c5e565b60405180910390fd5b426203f480601960003373ffffffffffffffffffffffffffffffffffffffff1673ffffffffffffffffffffffffffffffffffffffff168152602001908152602001600020546126609190614092565b11156126a1576040517f08c379a000000000000000000000000000000000000000000000000000000000815260040161269890614cf0565b60405180910390fd5b42601960003373ffffffffffffffffffffffffffffffffffffffff1673ffffffffffffffffffffffffffffffffffffffff168152602001908152602001600020819055506001601860003373ffffffffffffffffffffffffffffffffffffffff1673ffffffffffffffffffffffffffffffffffffffff16815260200190815260200160002060006101000a81548160ff021916908315150217905550600060646001600a546127509190614549565b61275a91906145ba565b90506000600a54116127a1576040517f08c379a000000000000000000000000000000000000000000000000000000000815260040161279890614d5c565b60405180910390fd5b60006103e86001600a546127b59190614549565b6127bf91906145ba565b905080600a60008282546127d39190614132565b9250508190555080601160003373ffffffffffffffffffffffffffffffffffffffff1673ffffffffffffffffffffffffffffffffffffffff16815260200190815260200160002060008282546128299190614092565b9250508190555081600360008282546128429190614092565b925050819055503373ffffffffffffffffffffffffffffffffffffffff16600073ffffffffffffffffffffffffffffffffffffffff167fddf252ad1be2c89b69c2b068fc378daa952ba7f163c4a11628f55a4df523b3ef836040516128a791906138aa565b60405180910390a33373ffffffffffffffffffffffffffffffffffffffff16600073ffffffffffffffffffffffffffffffffffffffff167fddf252ad1be2c89b69c2b068fc378daa952ba7f163c4a11628f55a4df523b3ef8460405161290d91906138aa565b60405180910390a360019250505090565b600e60009054906101000a900473ffffffffffffffffffffffffffffffffffffffff1673ffffffffffffffffffffffffffffffffffffffff163373ffffffffffffffffffffffffffffffffffffffff16146129ae576040517f08c379a00000000000000000000000000000000000000000000000000000000081526004016129a590614dc8565b60405180910390fd5b6101f48111156129f3576040517f08c379a00000000000000000000000000000000000000000000000000000000081526004016129ea90614e34565b60405180910390fd5b8060058190555050565b6000662386f26fc10000821015612a49576040517f08c379a0000000000000000000000000000000000000000000000000000000008152600401612a4090614ec6565b60405180910390fd5b81601160003373ffffffffffffffffffffffffffffffffffffffff1673ffffffffffffffffffffffffffffffffffffffff168152602001908152602001600020541015612acb576040517f08c379a0000000000000000000000000000000000000000000000000000000008152600401612ac290614043565b60405180910390fd5b601360003373ffffffffffffffffffffffffffffffffffffffff1673ffffffffffffffffffffffffffffffffffffffff16815260200190815260200160002060009054906101000a900460ff1615612b58576040517f08c379a0000000000000000000000000000000000000000000000000000000008152600401612b4f90614f32565b60405180910390fd5b60008211612b9b576040517f08c379a0000000000000000000000000000000000000000000000000000000008152600401612b9290614f9e565b60405180910390fd5b81601160003373ffffffffffffffffffffffffffffffffffffffff1673ffffffffffffffffffffffffffffffffffffffff1681526020019081526020016000206000828254612bea9190614132565b9250508190555081601560003373ffffffffffffffffffffffffffffffffffffffff1673ffffffffffffffffffffffffffffffffffffffff1681526020019081526020016000206000828254612c409190614092565b925050819055508160046000828254612c599190614092565b925050819055506001601360003373ffffffffffffffffffffffffffffffffffffffff1673ffffffffffffffffffffffffffffffffffffffff16815260200190815260200160002060006101000a81548160ff0219169083151502179055506006339080600181540180825580915050600190039060005260206000200160009091909190916101000a81548173ffffffffffffffffffffffffffffffffffffffff021916908373ffffffffffffffffffffffffffffffffffffffff16021790555042601460003373ffffffffffffffffffffffffffffffffffffffff1673ffffffffffffffffffffffffffffffffffffffff168152602001908152602001600020819055503373ffffffffffffffffffffffffffffffffffffffff167fb831f69f1cebc12b23cd864ce5bfea2669d01956050a0147d71d418074559c2183604051612da591906138aa565b60405180910390a260019050919050565b600081601160003373ffffffffffffffffffffffffffffffffffffffff1673ffffffffffffffffffffffffffffffffffffffff168152602001908152602001600020541015612e3a576040517f08c379a0000000000000000000000000000000000000000000000000000000008152600401612e3190614043565b60405180910390fd5b81601160003373ffffffffffffffffffffffffffffffffffffffff1673ffffffffffffffffffffffffffffffffffffffff1681526020019081526020016000206000828254612e899190614132565b9250508190555081601160008573ffffffffffffffffffffffffffffffffffffffff1673ffffffffffffffffffffffffffffffffffffffff1681526020019081526020016000206000828254612edf9190614092565b925050819055508273ffffffffffffffffffffffffffffffffffffffff163373ffffffffffffffffffffffffffffffffffffffff167fddf252ad1be2c89b69c2b068fc378daa952ba7f163c4a11628f55a4df523b3ef84604051612f4391906138aa565b60405180910390a36001905092915050565b60068181548110612f6557600080fd5b906000526020600020016000915054906101000a900473ffffffffffffffffffffffffffffffffffffffff1681565b600d5481565b60176020528060005260406000206000915090505481565b6000601560003373ffffffffffffffffffffffffffffffffffffffff1673ffffffffffffffffffffffffffffffffffffffff1681526020019081526020016000205411613034576040517f08c379a000000000000000000000000000000000000000000000000000000000815260040161302b90614451565b60405180910390fd5b6000601760003373ffffffffffffffffffffffffffffffffffffffff1673ffffffffffffffffffffffffffffffffffffffff16815260200190815260200160002054426130819190614132565b9050600060646203f4806130959190614549565b82600554601560003373ffffffffffffffffffffffffffffffffffffffff1673ffffffffffffffffffffffffffffffffffffffff168152602001908152602001600020546130e39190614549565b6130ed9190614549565b6130f791906145ba565b90506000811161313c576040517f08c379a00000000000000000000000000000000000000000000000000000000081526004016131339061500a565b60405180910390fd5b80601660003373ffffffffffffffffffffffffffffffffffffffff1673ffffffffffffffffffffffffffffffffffffffff168152602001908152602001600020600082825461318b9190614092565b9250508190555042601760003373ffffffffffffffffffffffffffffffffffffffff1673ffffffffffffffffffffffffffffffffffffffff168152602001908152602001600020819055503373ffffffffffffffffffffffffffffffffffffffff167f106f923f993c2149d49b4255ff723acafa1f2d94393f561d3eda32ae348f72418260405161321c91906138aa565b60405180910390a25050565b6203f48081565b6000601660003373ffffffffffffffffffffffffffffffffffffffff1673ffffffffffffffffffffffffffffffffffffffff16815260200190815260200160002054116132b1576040517f08c379a00000000000000000000000000000000000000000000000000000000081526004016132a89061500a565b60405180910390fd5b6000601660003373ffffffffffffffffffffffffffffffffffffffff1673ffffffffffffffffffffffffffffffffffffffff1681526020019081526020016000205490506000601660003373ffffffffffffffffffffffffffffffffffffffff1673ffffffffffffffffffffffffffffffffffffffff16815260200190815260200160002081905550806007600082825461334c9190614132565b9250508190555080601160003373ffffffffffffffffffffffffffffffffffffffff1673ffffffffffffffffffffffffffffffffffffffff16815260200190815260200160002060008282546133a29190614092565b925050819055503373ffffffffffffffffffffffffffffffffffffffff167f1d3eee4ca001cff39eec6ec7615aacf2f2bd61791273830728ba00ccbd6e1337826040516133ef91906138aa565b60405180910390a250565b60075481565b600f6020528060005260406000206000915090505481565b6000601560003373ffffffffffffffffffffffffffffffffffffffff1673ffffffffffffffffffffffffffffffffffffffff168152602001908152602001600020541161349a576040517f08c379a000000000000000000000000000000000000000000000000000000000815260040161349190614451565b60405180910390fd5b6000601560003373ffffffffffffffffffffffffffffffffffffffff1673ffffffffffffffffffffffffffffffffffffffff1681526020019081526020016000205490506000601560003373ffffffffffffffffffffffffffffffffffffffff1673ffffffffffffffffffffffffffffffffffffffff1681526020019081526020016000208190555080600460008282546135359190614132565b9250508190555080601160003373ffffffffffffffffffffffffffffffffffffffff1673ffffffffffffffffffffffffffffffffffffffff168152602001908152602001600020600082825461358b9190614092565b925050819055503373ffffffffffffffffffffffffffffffffffffffff167f23d6711a1d031134a36921253c75aa59e967d38e369ac625992824315e204f20826040516135d891906138aa565b60405180910390a250565b6012602052816000526040600020602052806000526040600020600091509150505481565b60008073ffffffffffffffffffffffffffffffffffffffff168273ffffffffffffffffffffffffffffffffffffffff1603613678576040517f08c379a000000000000000000000000000000000000000000000000000000000815260040161366f90614a6e565b60405180910390fd5b600f60008373ffffffffffffffffffffffffffffffffffffffff1673ffffffffffffffffffffffffffffffffffffffff168152602001908152602001600020549050919050565b662386f26fc1000081565b600e60009054906101000a900473ffffffffffffffffffffffffffffffffffffffff1673ffffffffffffffffffffffffffffffffffffffff163373ffffffffffffffffffffffffffffffffffffffff161461375a576040517f08c379a000000000000000000000000000000000000000000000000000000000815260040161375190613fd7565b60405180910390fd5b600073ffffffffffffffffffffffffffffffffffffffff168173ffffffffffffffffffffffffffffffffffffffff16036137c9576040517f08c379a00000000000000000000000000000000000000000000000000000000081526004016137c090615076565b60405180910390fd5b8073ffffffffffffffffffffffffffffffffffffffff16600e60009054906101000a900473ffffffffffffffffffffffffffffffffffffffff1673ffffffffffffffffffffffffffffffffffffffff167f8be0079c531659141344cd1fd0a4f28419497f9722a3daafe3b4186f6b6457e060405160405180910390a380600e60006101000a81548173ffffffffffffffffffffffffffffffffffffffff021916908373ffffffffffffffffffffffffffffffffffffffff16021790555050565b600b5481565b565b6000819050919050565b6138a481613891565b82525050565b60006020820190506138bf600083018461389b565b92915050565b600081519050919050565b600082825260208201905092915050565b60005b838110156138ff5780820151818401526020810190506138e4565b60008484015250505050565b6000601f19601f8301169050919050565b6000613927826138c5565b61393181856138d0565b93506139418185602086016138e1565b61394a8161390b565b840191505092915050565b6000602082019050818103600083015261396f818461391c565b905092915050565b6000604051905090565b600080fd5b600080fd5b600073ffffffffffffffffffffffffffffffffffffffff82169050919050565b60006139b68261398b565b9050919050565b6139c6816139ab565b81146139d157600080fd5b50565b6000813590506139e3816139bd565b92915050565b6139f281613891565b81146139fd57600080fd5b50565b600081359050613a0f816139e9565b92915050565b60008060408385031215613a2c57613a2b613981565b5b6000613a3a858286016139d4565b9250506020613a4b85828601613a00565b9150509250929050565b60008115159050919050565b613a6a81613a55565b82525050565b6000602082019050613a856000830184613a61565b92915050565b600060208284031215613aa157613aa0613981565b5b6000613aaf848285016139d4565b91505092915050565b613ac1816139ab565b82525050565b6000602082019050613adc6000830184613ab8565b92915050565b600060208284031215613af857613af7613981565b5b6000613b0684828501613a00565b91505092915050565b600080600060608486031215613b2857613b27613981565b5b6000613b36868287016139d4565b9350506020613b47868287016139d4565b9250506040613b5886828701613a00565b9150509250925092565b600080fd5b7f4e487b7100000000000000000000000000000000000000000000000000000000600052604160045260246000fd5b613b9f8261390b565b810181811067ffffffffffffffff82111715613bbe57613bbd613b67565b5b80604052505050565b6000613bd1613977565b9050613bdd8282613b96565b919050565b600067ffffffffffffffff821115613bfd57613bfc613b67565b5b602082029050602081019050919050565b600080fd5b6000613c26613c2184613be2565b613bc7565b90508083825260208201905060208402830185811115613c4957613c48613c0e565b5b835b81811015613c725780613c5e88826139d4565b845260208401935050602081019050613c4b565b5050509392505050565b600082601f830112613c9157613c90613b62565b5b8135613ca1848260208601613c13565b91505092915050565b600067ffffffffffffffff821115613cc557613cc4613b67565b5b602082029050602081019050919050565b6000613ce9613ce484613caa565b613bc7565b90508083825260208201905060208402830185811115613d0c57613d0b613c0e565b5b835b81811015613d355780613d218882613a00565b845260208401935050602081019050613d0e565b5050509392505050565b600082601f830112613d5457613d53613b62565b5b8135613d64848260208601613cd6565b91505092915050565b60008060408385031215613d8457613d83613981565b5b600083013567ffffffffffffffff811115613da257613da1613986565b5b613dae85828601613c7c565b925050602083013567ffffffffffffffff811115613dcf57613dce613986565b5b613ddb85828601613d3f565b9150509250929050565b600081519050919050565b600082825260208201905092915050565b6000819050602082019050919050565b613e1a816139ab565b82525050565b6000613e2c8383613e11565b60208301905092915050565b6000602082019050919050565b6000613e5082613de5565b613e5a8185613df0565b9350613e6583613e01565b8060005b83811015613e96578151613e7d8882613e20565b9750613e8883613e38565b925050600181019050613e69565b5085935050505092915050565b60006020820190508181036000830152613ebd8184613e45565b905092915050565b60008060408385031215613edc57613edb613981565b5b6000613eea858286016139d4565b9250506020613efb858286016139d4565b9150509250929050565b7f4e487b7100000000000000000000000000000000000000000000000000000000600052602260045260246000fd5b60006002820490506001821680613f4c57607f821691505b602082108103613f5f57613f5e613f05565b5b50919050565b7f4f6e6c79206f776e65722063616e2063616c6c20746869732066756e6374696f60008201527f6e00000000000000000000000000000000000000000000000000000000000000602082015250565b6000613fc16021836138d0565b9150613fcc82613f65565b604082019050919050565b60006020820190508181036000830152613ff081613fb4565b9050919050565b7f496e73756666696369656e742062616c616e6365000000000000000000000000600082015250565b600061402d6014836138d0565b915061403882613ff7565b602082019050919050565b6000602082019050818103600083015261405c81614020565b9050919050565b7f4e487b7100000000000000000000000000000000000000000000000000000000600052601160045260246000fd5b600061409d82613891565b91506140a883613891565b92508282019050808211156140c0576140bf614063565b5b92915050565b7f496e76616c696420746f74616c20737570706c79000000000000000000000000600082015250565b60006140fc6014836138d0565b9150614107826140c6565b602082019050919050565b6000602082019050818103600083015261412b816140ef565b9050919050565b600061413d82613891565b915061414883613891565b92508282039050818111156141605761415f614063565b5b92915050565b600060608201905061417b600083018661389b565b614188602083018561389b565b614195604083018461389b565b949350505050565b7f496e76616c69642073656e646572206164647265737300000000000000000000600082015250565b60006141d36016836138d0565b91506141de8261419d565b602082019050919050565b60006020820190508181036000830152614202816141c6565b9050919050565b7f496e76616c69642066726f6d2061646472657373000000000000000000000000600082015250565b600061423f6014836138d0565b915061424a82614209565b602082019050919050565b6000602082019050818103600083015261426e81614232565b9050919050565b7f496e76616c696420746f20616464726573730000000000000000000000000000600082015250565b60006142ab6012836138d0565b91506142b682614275565b602082019050919050565b600060208201905081810360008301526142da8161429e565b9050919050565b7f4e6f7420617574686f72697a656420746f207370656e64207468697320616d6f60008201527f756e740000000000000000000000000000000000000000000000000000000000602082015250565b600061433d6023836138d0565b9150614348826142e1565b604082019050919050565b6000602082019050818103600083015261436c81614330565b9050919050565b7f43616e6e6f74207472616e7366657220746f207468652073616d65206164647260008201527f6573730000000000000000000000000000000000000000000000000000000000602082015250565b60006143cf6023836138d0565b91506143da82614373565b604082019050919050565b600060208201905081810360008301526143fe816143c2565b9050919050565b7f4e6f207374616b65642062616c616e6365000000000000000000000000000000600082015250565b600061443b6011836138d0565b915061444682614405565b602082019050919050565b6000602082019050818103600083015261446a8161442e565b9050919050565b7f596f7520617265206e6f74207374616b696e6700000000000000000000000000600082015250565b60006144a76013836138d0565b91506144b282614471565b602082019050919050565b600060208201905081810360008301526144d68161449a565b9050919050565b7f496e73756666696369656e74207374616b65642062616c616e63650000000000600082015250565b6000614513601b836138d0565b915061451e826144dd565b602082019050919050565b6000602082019050818103600083015261454281614506565b9050919050565b600061455482613891565b915061455f83613891565b925082820261456d81613891565b9150828204841483151761458457614583614063565b5b5092915050565b7f4e487b7100000000000000000000000000000000000000000000000000000000600052601260045260246000fd5b60006145c582613891565b91506145d083613891565b9250826145e0576145df61458b565b5b828204905092915050565b7f496e73756666696369656e7420746f6b656e73206c65667420666f722073616c60008201527f6500000000000000000000000000000000000000000000000000000000000000602082015250565b60006146476021836138d0565b9150614652826145eb565b604082019050919050565b600060208201905081810360008301526146768161463a565b9050919050565b7f496e73756666696369656e742045746865722073656e74000000000000000000600082015250565b60006146b36017836138d0565b91506146be8261467d565b602082019050919050565b600060208201905081810360008301526146e2816146a6565b9050919050565b7f496e76616c696420696e70757420617272617973000000000000000000000000600082015250565b600061471f6014836138d0565b915061472a826146e9565b602082019050919050565b6000602082019050818103600083015261474e81614712565b9050919050565b7f4e487b7100000000000000000000000000000000000000000000000000000000600052603260045260246000fd5b7f496e76616c696420726563697069656e74206164647265737300000000000000600082015250565b60006147ba6019836138d0565b91506147c582614784565b602082019050919050565b600060208201905081810360008301526147e9816147ad565b9050919050565b60006147fb82613891565b91507fffffffffffffffffffffffffffffffffffffffffffffffffffffffffffffffff820361482d5761482c614063565b5b600182019050919050565b7f496e73756666696369656e742061697264726f702062616c616e636500000000600082015250565b600061486e601c836138d0565b915061487982614838565b602082019050919050565b6000602082019050818103600083015261489d81614861565b9050919050565b60008160011c9050919050565b6000808291508390505b60018511156148fb578086048111156148d7576148d6614063565b5b60018516156148e65780820291505b80810290506148f4856148a4565b94506148bb565b94509492505050565b60008261491457600190506149d0565b8161492257600090506149d0565b8160018114614938576002811461494257614971565b60019150506149d0565b60ff84111561495457614953614063565b5b8360020a91508482111561496b5761496a614063565b5b506149d0565b5060208310610133831016604e8410600b84101617156149a65782820a9050838111156149a1576149a0614063565b5b6149d0565b6149b384848460016148b1565b925090508184048111156149ca576149c9614063565b5b81810290505b9392505050565b60006149e282613891565b91506149ed83613891565b9250614a1a7fffffffffffffffffffffffffffffffffffffffffffffffffffffffffffffffff8484614904565b905092915050565b7f496e76616c69642063616e646964617465206164647265737300000000000000600082015250565b6000614a586019836138d0565b9150614a6382614a22565b602082019050919050565b60006020820190508181036000830152614a8781614a4b565b9050919050565b7f596f752063616e6e6f7420766f746520666f7220796f757273656c6600000000600082015250565b6000614ac4601c836138d0565b9150614acf82614a8e565b602082019050919050565b60006020820190508181036000830152614af381614ab7565b9050919050565b7f596f75206861766520616c726561647920766f74656420666f7220746869732060008201527f63616e6469646174650000000000000000000000000000000000000000000000602082015250565b6000614b566029836138d0565b9150614b6182614afa565b604082019050919050565b60006020820190508181036000830152614b8581614b49565b9050919050565b6000819050919050565b6000819050919050565b6000614bbb614bb6614bb184614b8c565b614b96565b613891565b9050919050565b614bcb81614ba0565b82525050565b6000602082019050614be66000830184614bc2565b92915050565b7f596f75206861766520616c7265616479206d696e656420696e2074686973206960008201527f6e74657276616c00000000000000000000000000000000000000000000000000602082015250565b6000614c486027836138d0565b9150614c5382614bec565b604082019050919050565b60006020820190508181036000830152614c7781614c3b565b9050919050565b7f596f75206d7573742077616974206265666f7265206d696e696e67206167616960008201527f6e00000000000000000000000000000000000000000000000000000000000000602082015250565b6000614cda6021836138d0565b9150614ce582614c7e565b604082019050919050565b60006020820190508181036000830152614d0981614ccd565b9050919050565b7f6e6f206675727468657220746f6b656e732063616e206265206d696e65640000600082015250565b6000614d46601e836138d0565b9150614d5182614d10565b602082019050919050565b60006020820190508181036000830152614d7581614d39565b9050919050565b7f4e6f7420617574686f72697a6564000000000000000000000000000000000000600082015250565b6000614db2600e836138d0565b9150614dbd82614d7c565b602082019050919050565b60006020820190508181036000830152614de181614da5565b9050919050565b7f4578636565646564206d6178696d756d20726577617264207261746500000000600082015250565b6000614e1e601c836138d0565b9150614e2982614de8565b602082019050919050565b60006020820190508181036000830152614e4d81614e11565b9050919050565b7f5374616b6520616d6f756e742063616e2774206265206c657373207468616e2060008201527f6d696e5374616b65416d6f756e74000000000000000000000000000000000000602082015250565b6000614eb0602e836138d0565b9150614ebb82614e54565b604082019050919050565b60006020820190508181036000830152614edf81614ea3565b9050919050565b7f416c7265616479207374616b696e670000000000000000000000000000000000600082015250565b6000614f1c600f836138d0565b9150614f2782614ee6565b602082019050919050565b60006020820190508181036000830152614f4b81614f0f565b9050919050565b7f496e76616c6964207374616b696e6720616d6f756e7400000000000000000000600082015250565b6000614f886016836138d0565b9150614f9382614f52565b602082019050919050565b60006020820190508181036000830152614fb781614f7b565b9050919050565b7f4e6f207265776172647320617661696c61626c65000000000000000000000000600082015250565b6000614ff46014836138d0565b9150614fff82614fbe565b602082019050919050565b6000602082019050818103600083015261502381614fe7565b9050919050565b7f496e76616c696420616464726573730000000000000000000000000000000000600082015250565b6000615060600f836138d0565b915061506b8261502a565b602082019050919050565b6000602082019050818103600083015261508f81615053565b905091905056fea2646970667358221220878fabe537b834c6454dd321655d5dca31831c4a52810c925da901a138ec456764736f6c63430008120033",
  "linkReferences": {},
  "deployedLinkReferences": {}
}