{
  "_format": "hh-sol-artifact-1",
  "contractName": "Vault",
  "sourceName": "contracts/Vault.sol",
  "abi": [
    {
      "inputs": [],
      "stateMutability": "nonpayable",
      "type": "constructor"
    },
    {
      "anonymous": false,
      "inputs": [
        {
          "indexed": true,
          "internalType": "bytes32",
          "name": "role",
          "type": "bytes32"
        },
        {
          "indexed": true,
          "internalType": "bytes32",
          "name": "previousAdminRole",
          "type": "bytes32"
        },
        {
          "indexed": true,
          "internalType": "bytes32",
          "name": "newAdminRole",
          "type": "bytes32"
        }
      ],
      "name": "RoleAdminChanged",
      "type": "event"
    },
    {
      "anonymous": false,
      "inputs": [
        {
          "indexed": true,
          "internalType": "bytes32",
          "name": "role",
          "type": "bytes32"
        },
        {
          "indexed": true,
          "internalType": "address",
          "name": "account",
          "type": "address"
        },
        {
          "indexed": true,
          "internalType": "address",
          "name": "sender",
          "type": "address"
        }
      ],
      "name": "RoleGranted",
      "type": "event"
    },
    {
      "anonymous": false,
      "inputs": [
        {
          "indexed": true,
          "internalType": "bytes32",
          "name": "role",
          "type": "bytes32"
        },
        {
          "indexed": true,
          "internalType": "address",
          "name": "account",
          "type": "address"
        },
        {
          "indexed": true,
          "internalType": "address",
          "name": "sender",
          "type": "address"
        }
      ],
      "name": "RoleRevoked",
      "type": "event"
    },
    {
      "anonymous": false,
      "inputs": [
        {
          "indexed": true,
          "internalType": "address",
          "name": "user",
          "type": "address"
        },
        {
          "indexed": false,
          "internalType": "uint256",
          "name": "amount",
          "type": "uint256"
        }
      ],
      "name": "collateralDeposit",
      "type": "event"
    },
    {
      "inputs": [],
      "name": "DEFAULT_ADMIN_ROLE",
      "outputs": [
        {
          "internalType": "bytes32",
          "name": "",
          "type": "bytes32"
        }
      ],
      "stateMutability": "view",
      "type": "function"
    },
    {
      "inputs": [
        {
          "internalType": "address",
          "name": "_CDS",
          "type": "address"
        }
      ],
      "name": "SetCDS",
      "outputs": [],
      "stateMutability": "nonpayable",
      "type": "function"
    },
    {
      "inputs": [
        {
          "internalType": "address",
          "name": "",
          "type": "address"
        }
      ],
      "name": "balance",
      "outputs": [
        {
          "internalType": "uint256",
          "name": "",
          "type": "uint256"
        }
      ],
      "stateMutability": "view",
      "type": "function"
    },
    {
      "inputs": [
        {
          "internalType": "address",
          "name": "user",
          "type": "address"
        },
        {
          "internalType": "address",
          "name": "tokenAddress",
          "type": "address"
        },
        {
          "internalType": "uint256",
          "name": "amount",
          "type": "uint256"
        }
      ],
      "name": "deposit",
      "outputs": [],
      "stateMutability": "nonpayable",
      "type": "function"
    },
    {
      "inputs": [
        {
          "internalType": "address",
          "name": "token",
          "type": "address"
        }
      ],
      "name": "getBalance",
      "outputs": [
        {
          "internalType": "uint256",
          "name": "balances",
          "type": "uint256"
        }
      ],
      "stateMutability": "view",
      "type": "function"
    },
    {
      "inputs": [
        {
          "internalType": "bytes32",
          "name": "role",
          "type": "bytes32"
        }
      ],
      "name": "getRoleAdmin",
      "outputs": [
        {
          "internalType": "bytes32",
          "name": "",
          "type": "bytes32"
        }
      ],
      "stateMutability": "view",
      "type": "function"
    },
    {
      "inputs": [
        {
          "internalType": "bytes32",
          "name": "role",
          "type": "bytes32"
        },
        {
          "internalType": "address",
          "name": "account",
          "type": "address"
        }
      ],
      "name": "grantRole",
      "outputs": [],
      "stateMutability": "nonpayable",
      "type": "function"
    },
    {
      "inputs": [
        {
          "internalType": "bytes32",
          "name": "role",
          "type": "bytes32"
        },
        {
          "internalType": "address",
          "name": "account",
          "type": "address"
        }
      ],
      "name": "hasRole",
      "outputs": [
        {
          "internalType": "bool",
          "name": "",
          "type": "bool"
        }
      ],
      "stateMutability": "view",
      "type": "function"
    },
    {
      "inputs": [],
      "name": "i_streal",
      "outputs": [
        {
          "internalType": "contract Streal",
          "name": "",
          "type": "address"
        }
      ],
      "stateMutability": "view",
      "type": "function"
    },
    {
      "inputs": [
        {
          "internalType": "bytes32",
          "name": "role",
          "type": "bytes32"
        },
        {
          "internalType": "address",
          "name": "account",
          "type": "address"
        }
      ],
      "name": "renounceRole",
      "outputs": [],
      "stateMutability": "nonpayable",
      "type": "function"
    },
    {
      "inputs": [
        {
          "internalType": "bytes32",
          "name": "role",
          "type": "bytes32"
        },
        {
          "internalType": "address",
          "name": "account",
          "type": "address"
        }
      ],
      "name": "revokeRole",
      "outputs": [],
      "stateMutability": "nonpayable",
      "type": "function"
    },
    {
      "inputs": [
        {
          "internalType": "bytes4",
          "name": "interfaceId",
          "type": "bytes4"
        }
      ],
      "name": "supportsInterface",
      "outputs": [
        {
          "internalType": "bool",
          "name": "",
          "type": "bool"
        }
      ],
      "stateMutability": "view",
      "type": "function"
    },
    {
      "inputs": [
        {
          "internalType": "address",
          "name": "token",
          "type": "address"
        },
        {
          "internalType": "address",
          "name": "recipient",
          "type": "address"
        },
        {
          "internalType": "uint256",
          "name": "amount",
          "type": "uint256"
        }
      ],
      "name": "transferToken",
      "outputs": [],
      "stateMutability": "nonpayable",
      "type": "function"
    },
    {
      "inputs": [
        {
          "internalType": "address",
          "name": "token",
          "type": "address"
        },
        {
          "internalType": "uint256",
          "name": "amount",
          "type": "uint256"
        }
      ],
      "name": "withdraw",
      "outputs": [],
      "stateMutability": "nonpayable",
      "type": "function"
    }
  ],
  "bytecode": "0x608060405234801561001057600080fd5b50600160008190555033600260006101000a81548173ffffffffffffffffffffffffffffffffffffffff021916908373ffffffffffffffffffffffffffffffffffffffff160217905550611ea7806100696000396000f3fe608060405234801561001057600080fd5b50600436106100ea5760003560e01c8063a217fddf1161008c578063e3d670d711610066578063e3d670d714610247578063f3fef3a314610277578063f5537ede14610293578063f8b2cb4f146102af576100ea565b8063a217fddf146101ef578063d547741f1461020d578063dc108f7e14610229576100ea565b80632f2ff15d116100c85780632f2ff15d1461016b57806336568abe146101875780638340f549146101a357806391d14854146101bf576100ea565b806301ffc9a7146100ef578063066284bd1461011f578063248a9ca31461013b575b600080fd5b610109600480360381019061010491906112d4565b6102df565b604051610116919061131c565b60405180910390f35b61013960048036038101906101349190611395565b610359565b005b610155600480360381019061015091906113f8565b61046e565b6040516101629190611434565b60405180910390f35b6101856004803603810190610180919061144f565b61048e565b005b6101a1600480360381019061019c919061144f565b6104af565b005b6101bd60048036038101906101b891906114c5565b610532565b005b6101d960048036038101906101d4919061144f565b6107d5565b6040516101e6919061131c565b60405180910390f35b6101f7610840565b6040516102049190611434565b60405180910390f35b6102276004803603810190610222919061144f565b610847565b005b610231610868565b60405161023e9190611577565b60405180910390f35b610261600480360381019061025c9190611395565b61088e565b60405161026e91906115a1565b60405180910390f35b610291600480360381019061028c91906115bc565b6108a6565b005b6102ad60048036038101906102a891906114c5565b610a85565b005b6102c960048036038101906102c49190611395565b610c65565b6040516102d691906115a1565b60405180910390f35b60007f7965db0b000000000000000000000000000000000000000000000000000000007bffffffffffffffffffffffffffffffffffffffffffffffffffffffff1916827bffffffffffffffffffffffffffffffffffffffffffffffffffffffff19161480610352575061035182610ce8565b5b9050919050565b600260009054906101000a900473ffffffffffffffffffffffffffffffffffffffff1673ffffffffffffffffffffffffffffffffffffffff163373ffffffffffffffffffffffffffffffffffffffff16146103e9576040517f08c379a00000000000000000000000000000000000000000000000000000000081526004016103e09061167f565b60405180910390fd5b80600560006101000a81548173ffffffffffffffffffffffffffffffffffffffff021916908373ffffffffffffffffffffffffffffffffffffffff16021790555080600360006101000a81548173ffffffffffffffffffffffffffffffffffffffff021916908373ffffffffffffffffffffffffffffffffffffffff16021790555050565b600060016000838152602001908152602001600020600101549050919050565b6104978261046e565b6104a081610d52565b6104aa8383610d66565b505050565b6104b7610e46565b73ffffffffffffffffffffffffffffffffffffffff168173ffffffffffffffffffffffffffffffffffffffff1614610524576040517f08c379a000000000000000000000000000000000000000000000000000000000815260040161051b90611711565b60405180910390fd5b61052e8282610e4e565b5050565b60008111610575576040517f08c379a000000000000000000000000000000000000000000000000000000000815260040161056c9061177d565b60405180910390fd5b600073ffffffffffffffffffffffffffffffffffffffff168273ffffffffffffffffffffffffffffffffffffffff16036105e4576040517f08c379a00000000000000000000000000000000000000000000000000000000081526004016105db906117e9565b60405180910390fd5b80600460008473ffffffffffffffffffffffffffffffffffffffff1673ffffffffffffffffffffffffffffffffffffffff16815260200190815260200160002060008282546106339190611838565b925050819055506000600560009054906101000a900473ffffffffffffffffffffffffffffffffffffffff1673ffffffffffffffffffffffffffffffffffffffff1663f970c3b73385856040518463ffffffff1660e01b815260040161069b9392919061187b565b6020604051808303816000875af11580156106ba573d6000803e3d6000fd5b505050506040513d601f19601f820116820180604052508101906106de91906118c7565b9050600560009054906101000a900473ffffffffffffffffffffffffffffffffffffffff1673ffffffffffffffffffffffffffffffffffffffff1663bf8daa9585836040518363ffffffff1660e01b815260040161073d9291906118f4565b6020604051808303816000875af115801561075c573d6000803e3d6000fd5b505050506040513d601f19601f820116820180604052508101906107809190611949565b508373ffffffffffffffffffffffffffffffffffffffff167fed3a9c3fe4ed1aa3197251f30b3974c16b11b2f781cf154d8c5840542a97136e836040516107c791906115a1565b60405180910390a250505050565b60006001600084815260200190815260200160002060000160008373ffffffffffffffffffffffffffffffffffffffff1673ffffffffffffffffffffffffffffffffffffffff16815260200190815260200160002060009054906101000a900460ff16905092915050565b6000801b81565b6108508261046e565b61085981610d52565b6108638383610e4e565b505050565b600560009054906101000a900473ffffffffffffffffffffffffffffffffffffffff1681565b60046020528060005260406000206000915090505481565b6108ae610f30565b600260009054906101000a900473ffffffffffffffffffffffffffffffffffffffff1673ffffffffffffffffffffffffffffffffffffffff163373ffffffffffffffffffffffffffffffffffffffff161461093e576040517f08c379a0000000000000000000000000000000000000000000000000000000008152600401610935906119e8565b60405180910390fd5b808273ffffffffffffffffffffffffffffffffffffffff166370a08231306040518263ffffffff1660e01b81526004016109789190611a08565b602060405180830381865afa158015610995573d6000803e3d6000fd5b505050506040513d601f19601f820116820180604052508101906109b991906118c7565b10156109fa576040517f08c379a00000000000000000000000000000000000000000000000000000000081526004016109f190611a6f565b60405180910390fd5b8173ffffffffffffffffffffffffffffffffffffffff1663a9059cbb33836040518363ffffffff1660e01b8152600401610a359291906118f4565b6020604051808303816000875af1158015610a54573d6000803e3d6000fd5b505050506040513d601f19601f82011682018060405250810190610a789190611949565b50610a81610f7f565b5050565b610a8d610f30565b600360009054906101000a900473ffffffffffffffffffffffffffffffffffffffff1673ffffffffffffffffffffffffffffffffffffffff163373ffffffffffffffffffffffffffffffffffffffff1614610b1d576040517f08c379a0000000000000000000000000000000000000000000000000000000008152600401610b1490611b01565b60405180910390fd5b808373ffffffffffffffffffffffffffffffffffffffff166370a08231306040518263ffffffff1660e01b8152600401610b579190611a08565b602060405180830381865afa158015610b74573d6000803e3d6000fd5b505050506040513d601f19601f82011682018060405250810190610b9891906118c7565b1015610bd9576040517f08c379a0000000000000000000000000000000000000000000000000000000008152600401610bd090611a6f565b60405180910390fd5b8273ffffffffffffffffffffffffffffffffffffffff1663a9059cbb83836040518363ffffffff1660e01b8152600401610c149291906118f4565b6020604051808303816000875af1158015610c33573d6000803e3d6000fd5b505050506040513d601f19601f82011682018060405250810190610c579190611949565b50610c60610f7f565b505050565b60008173ffffffffffffffffffffffffffffffffffffffff166370a08231306040518263ffffffff1660e01b8152600401610ca09190611a08565b602060405180830381865afa158015610cbd573d6000803e3d6000fd5b505050506040513d601f19601f82011682018060405250810190610ce191906118c7565b9050919050565b60007f01ffc9a7000000000000000000000000000000000000000000000000000000007bffffffffffffffffffffffffffffffffffffffffffffffffffffffff1916827bffffffffffffffffffffffffffffffffffffffffffffffffffffffff1916149050919050565b610d6381610d5e610e46565b610f89565b50565b610d7082826107d5565b610e4257600180600084815260200190815260200160002060000160008373ffffffffffffffffffffffffffffffffffffffff1673ffffffffffffffffffffffffffffffffffffffff16815260200190815260200160002060006101000a81548160ff021916908315150217905550610de7610e46565b73ffffffffffffffffffffffffffffffffffffffff168173ffffffffffffffffffffffffffffffffffffffff16837f2f8788117e7eff1d82e926ec794901d17c78024a50270940304540a733656f0d60405160405180910390a45b5050565b600033905090565b610e5882826107d5565b15610f2c5760006001600084815260200190815260200160002060000160008373ffffffffffffffffffffffffffffffffffffffff1673ffffffffffffffffffffffffffffffffffffffff16815260200190815260200160002060006101000a81548160ff021916908315150217905550610ed1610e46565b73ffffffffffffffffffffffffffffffffffffffff168173ffffffffffffffffffffffffffffffffffffffff16837ff6391f5c32d9c69d2a47ea670b442974b53935d1edc7fd64eb21e047a839171b60405160405180910390a45b5050565b600260005403610f75576040517f08c379a0000000000000000000000000000000000000000000000000000000008152600401610f6c90611b6d565b60405180910390fd5b6002600081905550565b6001600081905550565b610f9382826107d5565b61100a57610fa08161100e565b610fae8360001c602061103b565b604051602001610fbf929190611c96565b6040516020818303038152906040526040517f08c379a00000000000000000000000000000000000000000000000000000000081526004016110019190611d1a565b60405180910390fd5b5050565b60606110348273ffffffffffffffffffffffffffffffffffffffff16601460ff1661103b565b9050919050565b60606000600283600261104e9190611d3c565b6110589190611838565b67ffffffffffffffff81111561107157611070611d7e565b5b6040519080825280601f01601f1916602001820160405280156110a35781602001600182028036833780820191505090505b5090507f3000000000000000000000000000000000000000000000000000000000000000816000815181106110db576110da611dad565b5b60200101907effffffffffffffffffffffffffffffffffffffffffffffffffffffffffffff1916908160001a9053507f78000000000000000000000000000000000000000000000000000000000000008160018151811061113f5761113e611dad565b5b60200101907effffffffffffffffffffffffffffffffffffffffffffffffffffffffffffff1916908160001a9053506000600184600261117f9190611d3c565b6111899190611838565b90505b6001811115611229577f3031323334353637383961626364656600000000000000000000000000000000600f8616601081106111cb576111ca611dad565b5b1a60f81b8282815181106111e2576111e1611dad565b5b60200101907effffffffffffffffffffffffffffffffffffffffffffffffffffffffffffff1916908160001a905350600485901c94508061122290611ddc565b905061118c565b506000841461126d576040517f08c379a000000000000000000000000000000000000000000000000000000000815260040161126490611e51565b60405180910390fd5b8091505092915050565b600080fd5b60007fffffffff0000000000000000000000000000000000000000000000000000000082169050919050565b6112b18161127c565b81146112bc57600080fd5b50565b6000813590506112ce816112a8565b92915050565b6000602082840312156112ea576112e9611277565b5b60006112f8848285016112bf565b91505092915050565b60008115159050919050565b61131681611301565b82525050565b6000602082019050611331600083018461130d565b92915050565b600073ffffffffffffffffffffffffffffffffffffffff82169050919050565b600061136282611337565b9050919050565b61137281611357565b811461137d57600080fd5b50565b60008135905061138f81611369565b92915050565b6000602082840312156113ab576113aa611277565b5b60006113b984828501611380565b91505092915050565b6000819050919050565b6113d5816113c2565b81146113e057600080fd5b50565b6000813590506113f2816113cc565b92915050565b60006020828403121561140e5761140d611277565b5b600061141c848285016113e3565b91505092915050565b61142e816113c2565b82525050565b60006020820190506114496000830184611425565b92915050565b6000806040838503121561146657611465611277565b5b6000611474858286016113e3565b925050602061148585828601611380565b9150509250929050565b6000819050919050565b6114a28161148f565b81146114ad57600080fd5b50565b6000813590506114bf81611499565b92915050565b6000806000606084860312156114de576114dd611277565b5b60006114ec86828701611380565b93505060206114fd86828701611380565b925050604061150e868287016114b0565b9150509250925092565b6000819050919050565b600061153d61153861153384611337565b611518565b611337565b9050919050565b600061154f82611522565b9050919050565b600061156182611544565b9050919050565b61157181611556565b82525050565b600060208201905061158c6000830184611568565b92915050565b61159b8161148f565b82525050565b60006020820190506115b66000830184611592565b92915050565b600080604083850312156115d3576115d2611277565b5b60006115e185828601611380565b92505060206115f2858286016114b0565b9150509250929050565b600082825260208201905092915050565b7f6f6e6c79206f776e65722063616e2063616c6c20746869732066756e6374696f60008201527f6e00000000000000000000000000000000000000000000000000000000000000602082015250565b60006116696021836115fc565b91506116748261160d565b604082019050919050565b600060208201905081810360008301526116988161165c565b9050919050565b7f416363657373436f6e74726f6c3a2063616e206f6e6c792072656e6f756e636560008201527f20726f6c657320666f722073656c660000000000000000000000000000000000602082015250565b60006116fb602f836115fc565b91506117068261169f565b604082019050919050565b6000602082019050818103600083015261172a816116ee565b9050919050565b7f416d6f756e74206d7573742062652067726561746572207468616e207a65726f600082015250565b60006117676020836115fc565b915061177282611731565b602082019050919050565b600060208201905081810360008301526117968161175a565b9050919050565b7f496e76616c696420746f6b656e20616464726573730000000000000000000000600082015250565b60006117d36015836115fc565b91506117de8261179d565b602082019050919050565b60006020820190508181036000830152611802816117c6565b9050919050565b7f4e487b7100000000000000000000000000000000000000000000000000000000600052601160045260246000fd5b60006118438261148f565b915061184e8361148f565b925082820190508082111561186657611865611809565b5b92915050565b61187581611357565b82525050565b6000606082019050611890600083018661186c565b61189d602083018561186c565b6118aa6040830184611592565b949350505050565b6000815190506118c181611499565b92915050565b6000602082840312156118dd576118dc611277565b5b60006118eb848285016118b2565b91505092915050565b6000604082019050611909600083018561186c565b6119166020830184611592565b9392505050565b61192681611301565b811461193157600080fd5b50565b6000815190506119438161191d565b92915050565b60006020828403121561195f5761195e611277565b5b600061196d84828501611934565b91505092915050565b7f6f6e6c7920746865206f776e65722063616e2063616c6c20746869732066756e60008201527f6374696f6e000000000000000000000000000000000000000000000000000000602082015250565b60006119d26025836115fc565b91506119dd82611976565b604082019050919050565b60006020820190508181036000830152611a01816119c5565b9050919050565b6000602082019050611a1d600083018461186c565b92915050565b7f496e73756666696369656e742062616c616e63652e0000000000000000000000600082015250565b6000611a596015836115fc565b9150611a6482611a23565b602082019050919050565b60006020820190508181036000830152611a8881611a4c565b9050919050565b7f46756e6374696f6e206f6e6c792061636365737369626c6520746f205374726560008201527f616c20636f6e7472616374000000000000000000000000000000000000000000602082015250565b6000611aeb602b836115fc565b9150611af682611a8f565b604082019050919050565b60006020820190508181036000830152611b1a81611ade565b9050919050565b7f5265656e7472616e637947756172643a207265656e7472616e742063616c6c00600082015250565b6000611b57601f836115fc565b9150611b6282611b21565b602082019050919050565b60006020820190508181036000830152611b8681611b4a565b9050919050565b600081905092915050565b7f416363657373436f6e74726f6c3a206163636f756e7420000000000000000000600082015250565b6000611bce601783611b8d565b9150611bd982611b98565b601782019050919050565b600081519050919050565b60005b83811015611c0d578082015181840152602081019050611bf2565b60008484015250505050565b6000611c2482611be4565b611c2e8185611b8d565b9350611c3e818560208601611bef565b80840191505092915050565b7f206973206d697373696e6720726f6c6520000000000000000000000000000000600082015250565b6000611c80601183611b8d565b9150611c8b82611c4a565b601182019050919050565b6000611ca182611bc1565b9150611cad8285611c19565b9150611cb882611c73565b9150611cc48284611c19565b91508190509392505050565b6000601f19601f8301169050919050565b6000611cec82611be4565b611cf681856115fc565b9350611d06818560208601611bef565b611d0f81611cd0565b840191505092915050565b60006020820190508181036000830152611d348184611ce1565b905092915050565b6000611d478261148f565b9150611d528361148f565b9250828202611d608161148f565b91508282048414831517611d7757611d76611809565b5b5092915050565b7f4e487b7100000000000000000000000000000000000000000000000000000000600052604160045260246000fd5b7f4e487b7100000000000000000000000000000000000000000000000000000000600052603260045260246000fd5b6000611de78261148f565b915060008203611dfa57611df9611809565b5b600182039050919050565b7f537472696e67733a20686578206c656e67746820696e73756666696369656e74600082015250565b6000611e3b6020836115fc565b9150611e4682611e05565b602082019050919050565b60006020820190508181036000830152611e6a81611e2e565b905091905056fea2646970667358221220844473306e6fb3819fb077228ab88e53f9f5063fe1434a1df91d80017e996f1464736f6c63430008120033",
  "linkReferences": {},
  "deployedLinkReferences": {}
}