{
  "_format": "hh-sol-artifact-1",
  "contractName": "ICO",
  "sourceName": "contracts/ICO.sol",
  "abi": [
    {
      "inputs": [],
      "stateMutability": "nonpayable",
      "type": "constructor"
    },
    {
      "anonymous": false,
      "inputs": [
        {
          "indexed": true,
          "internalType": "address",
          "name": "previousOwner",
          "type": "address"
        },
        {
          "indexed": true,
          "internalType": "address",
          "name": "newOwner",
          "type": "address"
        }
      ],
      "name": "OwnershipTransferred",
      "type": "event"
    },
    {
      "inputs": [],
      "name": "ICOpricePeg",
      "outputs": [
        {
          "internalType": "uint256",
          "name": "",
          "type": "uint256"
        }
      ],
      "stateMutability": "view",
      "type": "function"
    },
    {
      "inputs": [
        {
          "internalType": "address",
          "name": "",
          "type": "address"
        }
      ],
      "name": "balance",
      "outputs": [
        {
          "internalType": "uint256",
          "name": "",
          "type": "uint256"
        }
      ],
      "stateMutability": "view",
      "type": "function"
    },
    {
      "inputs": [
        {
          "internalType": "address",
          "name": "tokenAddress",
          "type": "address"
        },
        {
          "internalType": "uint256",
          "name": "amount",
          "type": "uint256"
        }
      ],
      "name": "deposit",
      "outputs": [],
      "stateMutability": "nonpayable",
      "type": "function"
    },
    {
      "inputs": [
        {
          "internalType": "address",
          "name": "tokenAddress",
          "type": "address"
        }
      ],
      "name": "getDecimals",
      "outputs": [
        {
          "internalType": "uint8",
          "name": "",
          "type": "uint8"
        }
      ],
      "stateMutability": "view",
      "type": "function"
    },
    {
      "inputs": [
        {
          "internalType": "uint256",
          "name": "index",
          "type": "uint256"
        },
        {
          "internalType": "address",
          "name": "newToken",
          "type": "address"
        }
      ],
      "name": "modifyToken",
      "outputs": [],
      "stateMutability": "nonpayable",
      "type": "function"
    },
    {
      "inputs": [],
      "name": "owner",
      "outputs": [
        {
          "internalType": "address",
          "name": "",
          "type": "address"
        }
      ],
      "stateMutability": "view",
      "type": "function"
    },
    {
      "inputs": [
        {
          "internalType": "uint256",
          "name": "index",
          "type": "uint256"
        }
      ],
      "name": "removeToken",
      "outputs": [],
      "stateMutability": "nonpayable",
      "type": "function"
    },
    {
      "inputs": [
        {
          "internalType": "uint256",
          "name": "index",
          "type": "uint256"
        }
      ],
      "name": "removeVault",
      "outputs": [],
      "stateMutability": "nonpayable",
      "type": "function"
    },
    {
      "inputs": [],
      "name": "renounceOwnership",
      "outputs": [],
      "stateMutability": "nonpayable",
      "type": "function"
    },
    {
      "inputs": [
        {
          "internalType": "uint256",
          "name": "_pricePeg",
          "type": "uint256"
        }
      ],
      "name": "setPricePeg",
      "outputs": [],
      "stateMutability": "nonpayable",
      "type": "function"
    },
    {
      "inputs": [
        {
          "internalType": "address",
          "name": "_supportedTokens",
          "type": "address"
        }
      ],
      "name": "setSupportedToken",
      "outputs": [],
      "stateMutability": "nonpayable",
      "type": "function"
    },
    {
      "inputs": [
        {
          "internalType": "address",
          "name": "_vault",
          "type": "address"
        }
      ],
      "name": "setVault",
      "outputs": [],
      "stateMutability": "nonpayable",
      "type": "function"
    },
    {
      "inputs": [
        {
          "internalType": "uint256",
          "name": "",
          "type": "uint256"
        }
      ],
      "name": "supportedTokens",
      "outputs": [
        {
          "internalType": "address",
          "name": "",
          "type": "address"
        }
      ],
      "stateMutability": "view",
      "type": "function"
    },
    {
      "inputs": [
        {
          "internalType": "address",
          "name": "newOwner",
          "type": "address"
        }
      ],
      "name": "transferOwnership",
      "outputs": [],
      "stateMutability": "nonpayable",
      "type": "function"
    },
    {
      "inputs": [
        {
          "internalType": "uint256",
          "name": "",
          "type": "uint256"
        }
      ],
      "name": "vault",
      "outputs": [
        {
          "internalType": "address",
          "name": "",
          "type": "address"
        }
      ],
      "stateMutability": "view",
      "type": "function"
    }
  ],
  "bytecode": "0x608060405234801561001057600080fd5b5061002d61002261003260201b60201c565b61003a60201b60201c565b6100fe565b600033905090565b60008060009054906101000a900473ffffffffffffffffffffffffffffffffffffffff169050816000806101000a81548173ffffffffffffffffffffffffffffffffffffffff021916908373ffffffffffffffffffffffffffffffffffffffff1602179055508173ffffffffffffffffffffffffffffffffffffffff168173ffffffffffffffffffffffffffffffffffffffff167f8be0079c531659141344cd1fd0a4f28419497f9722a3daafe3b4186f6b6457e060405160405180910390a35050565b61195e8061010d6000396000f3fe608060405234801561001057600080fd5b50600436106100f55760003560e01c8063bc2f2dcf11610097578063e3d670d711610066578063e3d670d71461025a578063e84e11421461028a578063eaadd976146102a8578063f2fde38b146102c4576100f5565b8063bc2f2dcf146101c2578063c6255626146101de578063c6ef02c41461020e578063cf54aaa01461022a576100f5565b80636817031b116100d35780636817031b1461014e578063715018a61461016a57806381a36fb6146101745780638da5cb5b146101a4576100f5565b806326d96114146100fa57806336c5d7241461011657806347e7ef2414610132575b600080fd5b610114600480360381019061010f9190610fa6565b6102e0565b005b610130600480360381019061012b9190610fa6565b610305565b005b61014c60048036038101906101479190611031565b610463565b005b61016860048036038101906101639190611071565b6108b0565b005b61017261091e565b005b61018e60048036038101906101899190610fa6565b610932565b60405161019b91906110ad565b60405180910390f35b6101ac610971565b6040516101b991906110ad565b60405180910390f35b6101dc60048036038101906101d79190611071565b61099a565b005b6101f860048036038101906101f39190610fa6565b610a08565b60405161020591906110ad565b60405180910390f35b610228600480360381019061022391906110c8565b610a47565b005b610244600480360381019061023f9190611071565b610af7565b6040516102519190611124565b60405180910390f35b610274600480360381019061026f9190611071565b610b74565b604051610281919061114e565b60405180910390f35b610292610b8c565b60405161029f919061114e565b60405180910390f35b6102c260048036038101906102bd9190610fa6565b610b92565b005b6102de60048036038101906102d99190611071565b610cf0565b005b6102e8610d73565b670de0b6b3a7640000816102fc9190611198565b60048190555050565b61030d610d73565b6002805490508110610354576040517f08c379a000000000000000000000000000000000000000000000000000000000815260040161034b90611237565b60405180910390fd5b60016002805490506103669190611257565b811461041957600260016002805490506103809190611257565b815481106103915761039061128b565b5b9060005260206000200160009054906101000a900473ffffffffffffffffffffffffffffffffffffffff16600282815481106103d0576103cf61128b565b5b9060005260206000200160006101000a81548173ffffffffffffffffffffffffffffffffffffffff021916908373ffffffffffffffffffffffffffffffffffffffff1602179055505b600280548061042b5761042a6112ba565b5b6001900381819060005260206000200160006101000a81549073ffffffffffffffffffffffffffffffffffffffff0219169055905550565b600073ffffffffffffffffffffffffffffffffffffffff168273ffffffffffffffffffffffffffffffffffffffff16141580156104a557506104a482610df1565b5b6104e4576040517f08c379a00000000000000000000000000000000000000000000000000000000081526004016104db90611335565b60405180910390fd5b60008111610527576040517f08c379a000000000000000000000000000000000000000000000000000000000815260040161051e906113a1565b60405180910390fd5b600073ffffffffffffffffffffffffffffffffffffffff168273ffffffffffffffffffffffffffffffffffffffff1603610596576040517f08c379a000000000000000000000000000000000000000000000000000000000815260040161058d9061140d565b60405180910390fd5b60006105a183610af7565b60ff169050600081600a6105b59190611560565b836105c09190611198565b9050808473ffffffffffffffffffffffffffffffffffffffff166370a08231336040518263ffffffff1660e01b81526004016105fc91906110ad565b602060405180830381865afa158015610619573d6000803e3d6000fd5b505050506040513d601f19601f8201168201806040525081019061063d91906115c0565b101561067e576040517f08c379a000000000000000000000000000000000000000000000000000000000815260040161067590611639565b60405180910390fd5b60006004548360126106909190611257565b600a61069c9190611560565b836106a79190611198565b6106b19190611688565b90506000670de0b6b3a7640000826106c99190611198565b90508573ffffffffffffffffffffffffffffffffffffffff166323b872dd336106f0610971565b866040518463ffffffff1660e01b815260040161070f939291906116b9565b6020604051808303816000875af115801561072e573d6000803e3d6000fd5b505050506040513d601f19601f820116820180604052508101906107529190611728565b5060036001815481106107685761076761128b565b5b9060005260206000200160009054906101000a900473ffffffffffffffffffffffffffffffffffffffff1673ffffffffffffffffffffffffffffffffffffffff166323b872dd60036000815481106107c3576107c261128b565b5b9060005260206000200160009054906101000a900473ffffffffffffffffffffffffffffffffffffffff1633846040518463ffffffff1660e01b815260040161080e939291906116b9565b6020604051808303816000875af115801561082d573d6000803e3d6000fd5b505050506040513d601f19601f820116820180604052508101906108519190611728565b5084600160008873ffffffffffffffffffffffffffffffffffffffff1673ffffffffffffffffffffffffffffffffffffffff16815260200190815260200160002060008282546108a19190611755565b92505081905550505050505050565b6108b8610d73565b6003819080600181540180825580915050600190039060005260206000200160009091909190916101000a81548173ffffffffffffffffffffffffffffffffffffffff021916908373ffffffffffffffffffffffffffffffffffffffff16021790555050565b610926610d73565b6109306000610e9f565b565b6003818154811061094257600080fd5b906000526020600020016000915054906101000a900473ffffffffffffffffffffffffffffffffffffffff1681565b60008060009054906101000a900473ffffffffffffffffffffffffffffffffffffffff16905090565b6109a2610d73565b6002819080600181540180825580915050600190039060005260206000200160009091909190916101000a81548173ffffffffffffffffffffffffffffffffffffffff021916908373ffffffffffffffffffffffffffffffffffffffff16021790555050565b60028181548110610a1857600080fd5b906000526020600020016000915054906101000a900473ffffffffffffffffffffffffffffffffffffffff1681565b610a4f610d73565b6002805490508210610a96576040517f08c379a0000000000000000000000000000000000000000000000000000000008152600401610a8d90611237565b60405180910390fd5b8060028381548110610aab57610aaa61128b565b5b9060005260206000200160006101000a81548173ffffffffffffffffffffffffffffffffffffffff021916908373ffffffffffffffffffffffffffffffffffffffff1602179055505050565b6000808290508073ffffffffffffffffffffffffffffffffffffffff1663313ce5676040518163ffffffff1660e01b8152600401602060405180830381865afa158015610b48573d6000803e3d6000fd5b505050506040513d601f19601f82011682018060405250810190610b6c91906117b5565b915050919050565b60016020528060005260406000206000915090505481565b60045481565b610b9a610d73565b6003805490508110610be1576040517f08c379a0000000000000000000000000000000000000000000000000000000008152600401610bd890611237565b60405180910390fd5b6001600380549050610bf39190611257565b8114610ca65760036001600380549050610c0d9190611257565b81548110610c1e57610c1d61128b565b5b9060005260206000200160009054906101000a900473ffffffffffffffffffffffffffffffffffffffff1660038281548110610c5d57610c5c61128b565b5b9060005260206000200160006101000a81548173ffffffffffffffffffffffffffffffffffffffff021916908373ffffffffffffffffffffffffffffffffffffffff1602179055505b6003805480610cb857610cb76112ba565b5b6001900381819060005260206000200160006101000a81549073ffffffffffffffffffffffffffffffffffffffff0219169055905550565b610cf8610d73565b600073ffffffffffffffffffffffffffffffffffffffff168173ffffffffffffffffffffffffffffffffffffffff1603610d67576040517f08c379a0000000000000000000000000000000000000000000000000000000008152600401610d5e90611854565b60405180910390fd5b610d7081610e9f565b50565b610d7b610f63565b73ffffffffffffffffffffffffffffffffffffffff16610d99610971565b73ffffffffffffffffffffffffffffffffffffffff1614610def576040517f08c379a0000000000000000000000000000000000000000000000000000000008152600401610de6906118c0565b60405180910390fd5b565b600080600090505b600280549050811015610e94578273ffffffffffffffffffffffffffffffffffffffff1660028281548110610e3157610e3061128b565b5b9060005260206000200160009054906101000a900473ffffffffffffffffffffffffffffffffffffffff1673ffffffffffffffffffffffffffffffffffffffff1603610e81576001915050610e9a565b8080610e8c906118e0565b915050610df9565b50600090505b919050565b60008060009054906101000a900473ffffffffffffffffffffffffffffffffffffffff169050816000806101000a81548173ffffffffffffffffffffffffffffffffffffffff021916908373ffffffffffffffffffffffffffffffffffffffff1602179055508173ffffffffffffffffffffffffffffffffffffffff168173ffffffffffffffffffffffffffffffffffffffff167f8be0079c531659141344cd1fd0a4f28419497f9722a3daafe3b4186f6b6457e060405160405180910390a35050565b600033905090565b600080fd5b6000819050919050565b610f8381610f70565b8114610f8e57600080fd5b50565b600081359050610fa081610f7a565b92915050565b600060208284031215610fbc57610fbb610f6b565b5b6000610fca84828501610f91565b91505092915050565b600073ffffffffffffffffffffffffffffffffffffffff82169050919050565b6000610ffe82610fd3565b9050919050565b61100e81610ff3565b811461101957600080fd5b50565b60008135905061102b81611005565b92915050565b6000806040838503121561104857611047610f6b565b5b60006110568582860161101c565b925050602061106785828601610f91565b9150509250929050565b60006020828403121561108757611086610f6b565b5b60006110958482850161101c565b91505092915050565b6110a781610ff3565b82525050565b60006020820190506110c2600083018461109e565b92915050565b600080604083850312156110df576110de610f6b565b5b60006110ed85828601610f91565b92505060206110fe8582860161101c565b9150509250929050565b600060ff82169050919050565b61111e81611108565b82525050565b60006020820190506111396000830184611115565b92915050565b61114881610f70565b82525050565b6000602082019050611163600083018461113f565b92915050565b7f4e487b7100000000000000000000000000000000000000000000000000000000600052601160045260246000fd5b60006111a382610f70565b91506111ae83610f70565b92508282026111bc81610f70565b915082820484148315176111d3576111d2611169565b5b5092915050565b600082825260208201905092915050565b7f496e76616c696420696e64657800000000000000000000000000000000000000600082015250565b6000611221600d836111da565b915061122c826111eb565b602082019050919050565b6000602082019050818103600083015261125081611214565b9050919050565b600061126282610f70565b915061126d83610f70565b925082820390508181111561128557611284611169565b5b92915050565b7f4e487b7100000000000000000000000000000000000000000000000000000000600052603260045260246000fd5b7f4e487b7100000000000000000000000000000000000000000000000000000000600052603160045260246000fd5b7f746f6b656e206e6f7420737570706f7274656400000000000000000000000000600082015250565b600061131f6013836111da565b915061132a826112e9565b602082019050919050565b6000602082019050818103600083015261134e81611312565b9050919050565b7f416d6f756e74206d7573742062652067726561746572207468616e207a65726f600082015250565b600061138b6020836111da565b915061139682611355565b602082019050919050565b600060208201905081810360008301526113ba8161137e565b9050919050565b7f496e76616c696420746f6b656e20616464726573730000000000000000000000600082015250565b60006113f76015836111da565b9150611402826113c1565b602082019050919050565b60006020820190508181036000830152611426816113ea565b9050919050565b60008160011c9050919050565b6000808291508390505b6001851115611484578086048111156114605761145f611169565b5b600185161561146f5780820291505b808102905061147d8561142d565b9450611444565b94509492505050565b60008261149d5760019050611559565b816114ab5760009050611559565b81600181146114c157600281146114cb576114fa565b6001915050611559565b60ff8411156114dd576114dc611169565b5b8360020a9150848211156114f4576114f3611169565b5b50611559565b5060208310610133831016604e8410600b841016171561152f5782820a90508381111561152a57611529611169565b5b611559565b61153c848484600161143a565b9250905081840481111561155357611552611169565b5b81810290505b9392505050565b600061156b82610f70565b915061157683610f70565b92506115a37fffffffffffffffffffffffffffffffffffffffffffffffffffffffffffffffff848461148d565b905092915050565b6000815190506115ba81610f7a565b92915050565b6000602082840312156115d6576115d5610f6b565b5b60006115e4848285016115ab565b91505092915050565b7f496e73756666696369656e742062616c616e63652e0000000000000000000000600082015250565b60006116236015836111da565b915061162e826115ed565b602082019050919050565b6000602082019050818103600083015261165281611616565b9050919050565b7f4e487b7100000000000000000000000000000000000000000000000000000000600052601260045260246000fd5b600061169382610f70565b915061169e83610f70565b9250826116ae576116ad611659565b5b828204905092915050565b60006060820190506116ce600083018661109e565b6116db602083018561109e565b6116e8604083018461113f565b949350505050565b60008115159050919050565b611705816116f0565b811461171057600080fd5b50565b600081519050611722816116fc565b92915050565b60006020828403121561173e5761173d610f6b565b5b600061174c84828501611713565b91505092915050565b600061176082610f70565b915061176b83610f70565b925082820190508082111561178357611782611169565b5b92915050565b61179281611108565b811461179d57600080fd5b50565b6000815190506117af81611789565b92915050565b6000602082840312156117cb576117ca610f6b565b5b60006117d9848285016117a0565b91505092915050565b7f4f776e61626c653a206e6577206f776e657220697320746865207a65726f206160008201527f6464726573730000000000000000000000000000000000000000000000000000602082015250565b600061183e6026836111da565b9150611849826117e2565b604082019050919050565b6000602082019050818103600083015261186d81611831565b9050919050565b7f4f776e61626c653a2063616c6c6572206973206e6f7420746865206f776e6572600082015250565b60006118aa6020836111da565b91506118b582611874565b602082019050919050565b600060208201905081810360008301526118d98161189d565b9050919050565b60006118eb82610f70565b91507fffffffffffffffffffffffffffffffffffffffffffffffffffffffffffffffff820361191d5761191c611169565b5b60018201905091905056fea264697066735822122059244cda54915a8fe8801895824e75f96d0c4491b22169643c2cd456736d9f5164736f6c63430008120033",
  "linkReferences": {},
  "deployedLinkReferences": {}
}