{
  "_format": "hh-sol-artifact-1",
  "contractName": "Streal",
  "sourceName": "contracts/streal2.sol",
  "abi": [
    {
      "inputs": [],
      "stateMutability": "nonpayable",
      "type": "constructor"
    },
    {
      "anonymous": false,
      "inputs": [
        {
          "indexed": true,
          "internalType": "address",
          "name": "owner",
          "type": "address"
        },
        {
          "indexed": true,
          "internalType": "address",
          "name": "spender",
          "type": "address"
        },
        {
          "indexed": false,
          "internalType": "uint256",
          "name": "value",
          "type": "uint256"
        }
      ],
      "name": "Approval",
      "type": "event"
    },
    {
      "anonymous": false,
      "inputs": [
        {
          "indexed": true,
          "internalType": "address",
          "name": "previousOwner",
          "type": "address"
        },
        {
          "indexed": true,
          "internalType": "address",
          "name": "newOwner",
          "type": "address"
        }
      ],
      "name": "OwnershipTransferred",
      "type": "event"
    },
    {
      "anonymous": false,
      "inputs": [
        {
          "indexed": false,
          "internalType": "uint256",
          "name": "id",
          "type": "uint256"
        }
      ],
      "name": "Snapshot",
      "type": "event"
    },
    {
      "anonymous": false,
      "inputs": [
        {
          "indexed": true,
          "internalType": "address",
          "name": "from",
          "type": "address"
        },
        {
          "indexed": true,
          "internalType": "address",
          "name": "to",
          "type": "address"
        },
        {
          "indexed": false,
          "internalType": "uint256",
          "name": "value",
          "type": "uint256"
        }
      ],
      "name": "Transfer",
      "type": "event"
    },
    {
      "anonymous": false,
      "inputs": [
        {
          "indexed": true,
          "internalType": "address",
          "name": "user",
          "type": "address"
        },
        {
          "indexed": false,
          "internalType": "uint256",
          "name": "amount",
          "type": "uint256"
        }
      ],
      "name": "airdropped",
      "type": "event"
    },
    {
      "anonymous": false,
      "inputs": [
        {
          "indexed": true,
          "internalType": "address",
          "name": "user",
          "type": "address"
        },
        {
          "indexed": true,
          "internalType": "address",
          "name": "token",
          "type": "address"
        },
        {
          "indexed": false,
          "internalType": "uint256",
          "name": "amount",
          "type": "uint256"
        }
      ],
      "name": "collateralDeposited",
      "type": "event"
    },
    {
      "anonymous": false,
      "inputs": [
        {
          "indexed": true,
          "internalType": "address",
          "name": "recipients",
          "type": "address"
        }
      ],
      "name": "mintRewards",
      "type": "event"
    },
    {
      "anonymous": false,
      "inputs": [
        {
          "indexed": true,
          "internalType": "address",
          "name": "user",
          "type": "address"
        },
        {
          "indexed": false,
          "internalType": "uint256",
          "name": "amount",
          "type": "uint256"
        }
      ],
      "name": "redeemedCollateral",
      "type": "event"
    },
    {
      "anonymous": false,
      "inputs": [
        {
          "indexed": true,
          "internalType": "address",
          "name": "user",
          "type": "address"
        },
        {
          "indexed": false,
          "internalType": "uint256",
          "name": "amount",
          "type": "uint256"
        }
      ],
      "name": "strealDeposited",
      "type": "event"
    },
    {
      "anonymous": false,
      "inputs": [
        {
          "indexed": true,
          "internalType": "address",
          "name": "user",
          "type": "address"
        }
      ],
      "name": "voted",
      "type": "event"
    },
    {
      "anonymous": false,
      "inputs": [
        {
          "indexed": true,
          "internalType": "address",
          "name": "user",
          "type": "address"
        },
        {
          "indexed": false,
          "internalType": "uint256",
          "name": "amount",
          "type": "uint256"
        }
      ],
      "name": "withdrawal",
      "type": "event"
    },
    {
      "inputs": [
        {
          "internalType": "uint256",
          "name": "tokenIndex",
          "type": "uint256"
        }
      ],
      "name": "ModifyTokenAndFeed",
      "outputs": [],
      "stateMutability": "nonpayable",
      "type": "function"
    },
    {
      "inputs": [
        {
          "internalType": "address",
          "name": "",
          "type": "address"
        },
        {
          "internalType": "address",
          "name": "",
          "type": "address"
        }
      ],
      "name": "_collateralDeposited",
      "outputs": [
        {
          "internalType": "uint256",
          "name": "",
          "type": "uint256"
        }
      ],
      "stateMutability": "view",
      "type": "function"
    },
    {
      "inputs": [
        {
          "internalType": "uint256",
          "name": "",
          "type": "uint256"
        }
      ],
      "name": "_collateralTokens",
      "outputs": [
        {
          "internalType": "address",
          "name": "",
          "type": "address"
        }
      ],
      "stateMutability": "view",
      "type": "function"
    },
    {
      "inputs": [
        {
          "internalType": "address",
          "name": "user",
          "type": "address"
        }
      ],
      "name": "_getAccountInfo",
      "outputs": [
        {
          "internalType": "uint256",
          "name": "totalStrealMinted",
          "type": "uint256"
        },
        {
          "internalType": "uint256",
          "name": "collateralValueInUsd",
          "type": "uint256"
        }
      ],
      "stateMutability": "view",
      "type": "function"
    },
    {
      "inputs": [
        {
          "internalType": "address[]",
          "name": "recipients",
          "type": "address[]"
        },
        {
          "internalType": "uint256[]",
          "name": "values",
          "type": "uint256[]"
        }
      ],
      "name": "airdrop",
      "outputs": [
        {
          "internalType": "bool",
          "name": "success",
          "type": "bool"
        }
      ],
      "stateMutability": "nonpayable",
      "type": "function"
    },
    {
      "inputs": [],
      "name": "airdropLockTime",
      "outputs": [
        {
          "internalType": "uint256",
          "name": "",
          "type": "uint256"
        }
      ],
      "stateMutability": "view",
      "type": "function"
    },
    {
      "inputs": [],
      "name": "airdropLockTimeSet",
      "outputs": [
        {
          "internalType": "uint256",
          "name": "",
          "type": "uint256"
        }
      ],
      "stateMutability": "view",
      "type": "function"
    },
    {
      "inputs": [
        {
          "internalType": "address",
          "name": "",
          "type": "address"
        }
      ],
      "name": "airdropTimes",
      "outputs": [
        {
          "internalType": "uint256",
          "name": "",
          "type": "uint256"
        }
      ],
      "stateMutability": "view",
      "type": "function"
    },
    {
      "inputs": [
        {
          "internalType": "address",
          "name": "",
          "type": "address"
        }
      ],
      "name": "airdroppedAddress",
      "outputs": [
        {
          "internalType": "bool",
          "name": "",
          "type": "bool"
        }
      ],
      "stateMutability": "view",
      "type": "function"
    },
    {
      "inputs": [
        {
          "internalType": "uint256",
          "name": "",
          "type": "uint256"
        }
      ],
      "name": "airdroppedAddresses",
      "outputs": [
        {
          "internalType": "address",
          "name": "",
          "type": "address"
        }
      ],
      "stateMutability": "view",
      "type": "function"
    },
    {
      "inputs": [],
      "name": "airdrops",
      "outputs": [
        {
          "internalType": "uint256",
          "name": "",
          "type": "uint256"
        }
      ],
      "stateMutability": "view",
      "type": "function"
    },
    {
      "inputs": [
        {
          "internalType": "address",
          "name": "owner",
          "type": "address"
        },
        {
          "internalType": "address",
          "name": "spender",
          "type": "address"
        }
      ],
      "name": "allowance",
      "outputs": [
        {
          "internalType": "uint256",
          "name": "",
          "type": "uint256"
        }
      ],
      "stateMutability": "view",
      "type": "function"
    },
    {
      "inputs": [
        {
          "internalType": "address",
          "name": "spender",
          "type": "address"
        },
        {
          "internalType": "uint256",
          "name": "amount",
          "type": "uint256"
        }
      ],
      "name": "approve",
      "outputs": [
        {
          "internalType": "bool",
          "name": "",
          "type": "bool"
        }
      ],
      "stateMutability": "nonpayable",
      "type": "function"
    },
    {
      "inputs": [],
      "name": "balance",
      "outputs": [
        {
          "internalType": "uint256[]",
          "name": "",
          "type": "uint256[]"
        }
      ],
      "stateMutability": "view",
      "type": "function"
    },
    {
      "inputs": [
        {
          "internalType": "address",
          "name": "account",
          "type": "address"
        }
      ],
      "name": "balanceOf",
      "outputs": [
        {
          "internalType": "uint256",
          "name": "",
          "type": "uint256"
        }
      ],
      "stateMutability": "view",
      "type": "function"
    },
    {
      "inputs": [
        {
          "internalType": "address",
          "name": "account",
          "type": "address"
        },
        {
          "internalType": "uint256",
          "name": "snapshotId",
          "type": "uint256"
        }
      ],
      "name": "balanceOfAt",
      "outputs": [
        {
          "internalType": "uint256",
          "name": "",
          "type": "uint256"
        }
      ],
      "stateMutability": "view",
      "type": "function"
    },
    {
      "inputs": [
        {
          "internalType": "uint256",
          "name": "_amount",
          "type": "uint256"
        }
      ],
      "name": "burn",
      "outputs": [],
      "stateMutability": "nonpayable",
      "type": "function"
    },
    {
      "inputs": [
        {
          "internalType": "uint256",
          "name": "_amount",
          "type": "uint256"
        }
      ],
      "name": "burnForCommerce",
      "outputs": [],
      "stateMutability": "nonpayable",
      "type": "function"
    },
    {
      "inputs": [
        {
          "internalType": "address",
          "name": "account",
          "type": "address"
        },
        {
          "internalType": "uint256",
          "name": "amount",
          "type": "uint256"
        }
      ],
      "name": "burnFrom",
      "outputs": [],
      "stateMutability": "nonpayable",
      "type": "function"
    },
    {
      "inputs": [
        {
          "internalType": "address",
          "name": "tokenCollateralAddress",
          "type": "address"
        },
        {
          "internalType": "uint256",
          "name": "amountCollateral",
          "type": "uint256"
        }
      ],
      "name": "calculateEquivalentAmountToMint",
      "outputs": [
        {
          "internalType": "uint256",
          "name": "",
          "type": "uint256"
        }
      ],
      "stateMutability": "view",
      "type": "function"
    },
    {
      "inputs": [],
      "name": "decimals",
      "outputs": [
        {
          "internalType": "uint8",
          "name": "",
          "type": "uint8"
        }
      ],
      "stateMutability": "view",
      "type": "function"
    },
    {
      "inputs": [
        {
          "internalType": "address",
          "name": "spender",
          "type": "address"
        },
        {
          "internalType": "uint256",
          "name": "subtractedValue",
          "type": "uint256"
        }
      ],
      "name": "decreaseAllowance",
      "outputs": [
        {
          "internalType": "bool",
          "name": "",
          "type": "bool"
        }
      ],
      "stateMutability": "nonpayable",
      "type": "function"
    },
    {
      "inputs": [
        {
          "internalType": "address",
          "name": "user",
          "type": "address"
        },
        {
          "internalType": "address",
          "name": "tokenCollateralAddress",
          "type": "address"
        },
        {
          "internalType": "uint256",
          "name": "_amount",
          "type": "uint256"
        }
      ],
      "name": "depositCollateral",
      "outputs": [
        {
          "internalType": "uint256",
          "name": "payment",
          "type": "uint256"
        }
      ],
      "stateMutability": "nonpayable",
      "type": "function"
    },
    {
      "inputs": [
        {
          "internalType": "address",
          "name": "tokenCollateralAddress",
          "type": "address"
        },
        {
          "internalType": "uint256",
          "name": "amountCollateral",
          "type": "uint256"
        }
      ],
      "name": "depositCollateralAndMintStreal",
      "outputs": [],
      "stateMutability": "nonpayable",
      "type": "function"
    },
    {
      "inputs": [],
      "name": "depositLocktime",
      "outputs": [
        {
          "internalType": "uint256",
          "name": "",
          "type": "uint256"
        }
      ],
      "stateMutability": "view",
      "type": "function"
    },
    {
      "inputs": [
        {
          "internalType": "uint256",
          "name": "amountStreal",
          "type": "uint256"
        },
        {
          "internalType": "address",
          "name": "tokenCollateralAddress",
          "type": "address"
        }
      ],
      "name": "depositStrealAndGetToken",
      "outputs": [],
      "stateMutability": "nonpayable",
      "type": "function"
    },
    {
      "inputs": [
        {
          "internalType": "address",
          "name": "user",
          "type": "address"
        }
      ],
      "name": "getAccountCollateralValueInUsd",
      "outputs": [
        {
          "internalType": "uint256",
          "name": "totalCollateralValueInUsd",
          "type": "uint256"
        }
      ],
      "stateMutability": "view",
      "type": "function"
    },
    {
      "inputs": [
        {
          "internalType": "address",
          "name": "tokenAddress",
          "type": "address"
        }
      ],
      "name": "getDecimals",
      "outputs": [
        {
          "internalType": "uint8",
          "name": "",
          "type": "uint8"
        }
      ],
      "stateMutability": "view",
      "type": "function"
    },
    {
      "inputs": [
        {
          "internalType": "address",
          "name": "token",
          "type": "address"
        },
        {
          "internalType": "uint256",
          "name": "amount",
          "type": "uint256"
        }
      ],
      "name": "getUsdValue",
      "outputs": [
        {
          "internalType": "uint256",
          "name": "",
          "type": "uint256"
        }
      ],
      "stateMutability": "view",
      "type": "function"
    },
    {
      "inputs": [
        {
          "internalType": "address",
          "name": "user",
          "type": "address"
        }
      ],
      "name": "getUserStartTime",
      "outputs": [
        {
          "internalType": "uint256",
          "name": "",
          "type": "uint256"
        }
      ],
      "stateMutability": "view",
      "type": "function"
    },
    {
      "inputs": [
        {
          "internalType": "address",
          "name": "",
          "type": "address"
        }
      ],
      "name": "hasVoted",
      "outputs": [
        {
          "internalType": "address",
          "name": "",
          "type": "address"
        }
      ],
      "stateMutability": "view",
      "type": "function"
    },
    {
      "inputs": [
        {
          "internalType": "address",
          "name": "spender",
          "type": "address"
        },
        {
          "internalType": "uint256",
          "name": "addedValue",
          "type": "uint256"
        }
      ],
      "name": "increaseAllowance",
      "outputs": [
        {
          "internalType": "bool",
          "name": "",
          "type": "bool"
        }
      ],
      "stateMutability": "nonpayable",
      "type": "function"
    },
    {
      "inputs": [
        {
          "internalType": "address",
          "name": "_to",
          "type": "address"
        },
        {
          "internalType": "uint256",
          "name": "amount",
          "type": "uint256"
        }
      ],
      "name": "mintForCommerce",
      "outputs": [
        {
          "internalType": "bool",
          "name": "",
          "type": "bool"
        }
      ],
      "stateMutability": "nonpayable",
      "type": "function"
    },
    {
      "inputs": [
        {
          "internalType": "address[]",
          "name": "recipients",
          "type": "address[]"
        },
        {
          "internalType": "uint256[]",
          "name": "amounts",
          "type": "uint256[]"
        }
      ],
      "name": "mintReward",
      "outputs": [
        {
          "internalType": "bool",
          "name": "",
          "type": "bool"
        }
      ],
      "stateMutability": "nonpayable",
      "type": "function"
    },
    {
      "inputs": [
        {
          "internalType": "address",
          "name": "",
          "type": "address"
        }
      ],
      "name": "mintedStreal",
      "outputs": [
        {
          "internalType": "uint256",
          "name": "",
          "type": "uint256"
        }
      ],
      "stateMutability": "view",
      "type": "function"
    },
    {
      "inputs": [],
      "name": "name",
      "outputs": [
        {
          "internalType": "string",
          "name": "",
          "type": "string"
        }
      ],
      "stateMutability": "view",
      "type": "function"
    },
    {
      "inputs": [],
      "name": "owner",
      "outputs": [
        {
          "internalType": "address",
          "name": "",
          "type": "address"
        }
      ],
      "stateMutability": "view",
      "type": "function"
    },
    {
      "inputs": [
        {
          "internalType": "address",
          "name": "",
          "type": "address"
        }
      ],
      "name": "priceFeed",
      "outputs": [
        {
          "internalType": "address",
          "name": "",
          "type": "address"
        }
      ],
      "stateMutability": "view",
      "type": "function"
    },
    {
      "inputs": [
        {
          "internalType": "uint256",
          "name": "",
          "type": "uint256"
        }
      ],
      "name": "priceFeedAddress",
      "outputs": [
        {
          "internalType": "address",
          "name": "",
          "type": "address"
        }
      ],
      "stateMutability": "view",
      "type": "function"
    },
    {
      "inputs": [
        {
          "internalType": "address",
          "name": "tokenCollateralAddress",
          "type": "address"
        },
        {
          "internalType": "uint256",
          "name": "amountCollateral",
          "type": "uint256"
        }
      ],
      "name": "redeemCollateralForStreal",
      "outputs": [],
      "stateMutability": "nonpayable",
      "type": "function"
    },
    {
      "inputs": [],
      "name": "renounceOwnership",
      "outputs": [],
      "stateMutability": "nonpayable",
      "type": "function"
    },
    {
      "inputs": [
        {
          "internalType": "uint256",
          "name": "_airdropLockTime",
          "type": "uint256"
        },
        {
          "internalType": "uint256",
          "name": "_depositLocktime",
          "type": "uint256"
        }
      ],
      "name": "setAirdropLockTime",
      "outputs": [],
      "stateMutability": "nonpayable",
      "type": "function"
    },
    {
      "inputs": [
        {
          "internalType": "address",
          "name": "_contractAddress",
          "type": "address"
        }
      ],
      "name": "setContractAddress",
      "outputs": [],
      "stateMutability": "nonpayable",
      "type": "function"
    },
    {
      "inputs": [
        {
          "internalType": "uint256",
          "name": "_value",
          "type": "uint256"
        }
      ],
      "name": "setStrealValue",
      "outputs": [],
      "stateMutability": "nonpayable",
      "type": "function"
    },
    {
      "inputs": [
        {
          "internalType": "address",
          "name": "_supportedToken",
          "type": "address"
        },
        {
          "internalType": "address",
          "name": "_PriceFeed",
          "type": "address"
        }
      ],
      "name": "setSupportedTokensAndFeed",
      "outputs": [],
      "stateMutability": "nonpayable",
      "type": "function"
    },
    {
      "inputs": [],
      "name": "snapshot",
      "outputs": [],
      "stateMutability": "nonpayable",
      "type": "function"
    },
    {
      "inputs": [],
      "name": "supply",
      "outputs": [
        {
          "internalType": "uint256",
          "name": "",
          "type": "uint256"
        }
      ],
      "stateMutability": "view",
      "type": "function"
    },
    {
      "inputs": [
        {
          "internalType": "uint256",
          "name": "",
          "type": "uint256"
        }
      ],
      "name": "supportedTokens",
      "outputs": [
        {
          "internalType": "address",
          "name": "",
          "type": "address"
        }
      ],
      "stateMutability": "view",
      "type": "function"
    },
    {
      "inputs": [],
      "name": "symbol",
      "outputs": [
        {
          "internalType": "string",
          "name": "",
          "type": "string"
        }
      ],
      "stateMutability": "view",
      "type": "function"
    },
    {
      "inputs": [],
      "name": "totalSupply",
      "outputs": [
        {
          "internalType": "uint256",
          "name": "",
          "type": "uint256"
        }
      ],
      "stateMutability": "view",
      "type": "function"
    },
    {
      "inputs": [
        {
          "internalType": "uint256",
          "name": "snapshotId",
          "type": "uint256"
        }
      ],
      "name": "totalSupplyAt",
      "outputs": [
        {
          "internalType": "uint256",
          "name": "",
          "type": "uint256"
        }
      ],
      "stateMutability": "view",
      "type": "function"
    },
    {
      "inputs": [
        {
          "internalType": "address",
          "name": "to",
          "type": "address"
        },
        {
          "internalType": "uint256",
          "name": "amount",
          "type": "uint256"
        }
      ],
      "name": "transfer",
      "outputs": [
        {
          "internalType": "bool",
          "name": "",
          "type": "bool"
        }
      ],
      "stateMutability": "nonpayable",
      "type": "function"
    },
    {
      "inputs": [
        {
          "internalType": "address",
          "name": "from",
          "type": "address"
        },
        {
          "internalType": "address",
          "name": "to",
          "type": "address"
        },
        {
          "internalType": "uint256",
          "name": "amount",
          "type": "uint256"
        }
      ],
      "name": "transferFrom",
      "outputs": [
        {
          "internalType": "bool",
          "name": "",
          "type": "bool"
        }
      ],
      "stateMutability": "nonpayable",
      "type": "function"
    },
    {
      "inputs": [
        {
          "internalType": "address",
          "name": "newOwner",
          "type": "address"
        }
      ],
      "name": "transferOwnership",
      "outputs": [],
      "stateMutability": "nonpayable",
      "type": "function"
    },
    {
      "inputs": [
        {
          "internalType": "address",
          "name": "candidate",
          "type": "address"
        },
        {
          "internalType": "uint256",
          "name": "_amount",
          "type": "uint256"
        }
      ],
      "name": "vote",
      "outputs": [
        {
          "internalType": "bool",
          "name": "success",
          "type": "bool"
        }
      ],
      "stateMutability": "nonpayable",
      "type": "function"
    },
    {
      "inputs": [
        {
          "internalType": "address",
          "name": "",
          "type": "address"
        }
      ],
      "name": "votes",
      "outputs": [
        {
          "internalType": "uint256",
          "name": "",
          "type": "uint256"
        }
      ],
      "stateMutability": "view",
      "type": "function"
    },
    {
      "inputs": [],
      "name": "withdraw",
      "outputs": [],
      "stateMutability": "nonpayable",
      "type": "function"
    }
  ],
  "bytecode": "0x60806040526a21165458500521280000006010556aa56fa5b99019a5c80000006011553480156200002f57600080fd5b506040518060400160405280600681526020017f53747265616c00000000000000000000000000000000000000000000000000008152506040518060400160405280600381526020017f53545200000000000000000000000000000000000000000000000000000000008152508160039081620000ad9190620008bd565b508060049081620000bf9190620008bd565b505050620000e2620000d66200010460201b60201c565b6200010c60201b60201c565b6001600a81905550620000fe33601154620001d260201b60201c565b62000b29565b600033905090565b6000600960009054906101000a900473ffffffffffffffffffffffffffffffffffffffff16905081600960006101000a81548173ffffffffffffffffffffffffffffffffffffffff021916908373ffffffffffffffffffffffffffffffffffffffff1602179055508173ffffffffffffffffffffffffffffffffffffffff168173ffffffffffffffffffffffffffffffffffffffff167f8be0079c531659141344cd1fd0a4f28419497f9722a3daafe3b4186f6b6457e060405160405180910390a35050565b600073ffffffffffffffffffffffffffffffffffffffff168273ffffffffffffffffffffffffffffffffffffffff160362000244576040517f08c379a00000000000000000000000000000000000000000000000000000000081526004016200023b9062000a05565b60405180910390fd5b62000258600083836200033f60201b60201c565b80600260008282546200026c919062000a56565b92505081905550806000808473ffffffffffffffffffffffffffffffffffffffff1673ffffffffffffffffffffffffffffffffffffffff168152602001908152602001600020600082825401925050819055508173ffffffffffffffffffffffffffffffffffffffff16600073ffffffffffffffffffffffffffffffffffffffff167fddf252ad1be2c89b69c2b068fc378daa952ba7f163c4a11628f55a4df523b3ef836040516200031f919062000aa2565b60405180910390a36200033b600083836200035c60201b60201c565b5050565b620003578383836200036160201b620037f71760201c565b505050565b505050565b620003798383836200045a60201b620038af1760201c565b600073ffffffffffffffffffffffffffffffffffffffff168373ffffffffffffffffffffffffffffffffffffffff1603620003d557620003bf826200045f60201b60201c565b620003cf620004c260201b60201c565b62000455565b600073ffffffffffffffffffffffffffffffffffffffff168273ffffffffffffffffffffffffffffffffffffffff160362000431576200041b836200045f60201b60201c565b6200042b620004c260201b60201c565b62000454565b62000442836200045f60201b60201c565b62000453826200045f60201b60201c565b5b5b505050565b505050565b620004bf600560008373ffffffffffffffffffffffffffffffffffffffff1673ffffffffffffffffffffffffffffffffffffffff168152602001908152602001600020620004b383620004e660201b60201c565b6200052e60201b60201c565b50565b620004e46006620004d8620005ba60201b60201c565b6200052e60201b60201c565b565b60008060008373ffffffffffffffffffffffffffffffffffffffff1673ffffffffffffffffffffffffffffffffffffffff168152602001908152602001600020549050919050565b600062000540620005c460201b60201c565b9050806200055784600001620005e260201b60201c565b1015620005b55782600001819080600181540180825580915050600190039060005260206000200160009091909190915055826001018290806001815401808255809150506001900390600052602060002001600090919091909150555b505050565b6000600254905090565b6000620005dd60086200063560201b620038b41760201c565b905090565b600080828054905003620005fa576000905062000630565b81600183805490506200060e919062000abf565b8154811062000622576200062162000afa565b5b906000526020600020015490505b919050565b600081600001549050919050565b600081519050919050565b7f4e487b7100000000000000000000000000000000000000000000000000000000600052604160045260246000fd5b7f4e487b7100000000000000000000000000000000000000000000000000000000600052602260045260246000fd5b60006002820490506001821680620006c557607f821691505b602082108103620006db57620006da6200067d565b5b50919050565b60008190508160005260206000209050919050565b60006020601f8301049050919050565b600082821b905092915050565b600060088302620007457fffffffffffffffffffffffffffffffffffffffffffffffffffffffffffffffff8262000706565b62000751868362000706565b95508019841693508086168417925050509392505050565b6000819050919050565b6000819050919050565b60006200079e62000798620007928462000769565b62000773565b62000769565b9050919050565b6000819050919050565b620007ba836200077d565b620007d2620007c982620007a5565b84845462000713565b825550505050565b600090565b620007e9620007da565b620007f6818484620007af565b505050565b5b818110156200081e5762000812600082620007df565b600181019050620007fc565b5050565b601f8211156200086d576200083781620006e1565b6200084284620006f6565b8101602085101562000852578190505b6200086a6200086185620006f6565b830182620007fb565b50505b505050565b600082821c905092915050565b6000620008926000198460080262000872565b1980831691505092915050565b6000620008ad83836200087f565b9150826002028217905092915050565b620008c88262000643565b67ffffffffffffffff811115620008e457620008e36200064e565b5b620008f08254620006ac565b620008fd82828562000822565b600060209050601f83116001811462000935576000841562000920578287015190505b6200092c85826200089f565b8655506200099c565b601f1984166200094586620006e1565b60005b828110156200096f5784890151825560018201915060208501945060208101905062000948565b868310156200098f57848901516200098b601f8916826200087f565b8355505b6001600288020188555050505b505050505050565b600082825260208201905092915050565b7f45524332303a206d696e7420746f20746865207a65726f206164647265737300600082015250565b6000620009ed601f83620009a4565b9150620009fa82620009b5565b602082019050919050565b6000602082019050818103600083015262000a2081620009de565b9050919050565b7f4e487b7100000000000000000000000000000000000000000000000000000000600052601160045260246000fd5b600062000a638262000769565b915062000a708362000769565b925082820190508082111562000a8b5762000a8a62000a27565b5b92915050565b62000a9c8162000769565b82525050565b600060208201905062000ab9600083018462000a91565b92915050565b600062000acc8262000769565b915062000ad98362000769565b925082820390508181111562000af45762000af362000a27565b5b92915050565b7f4e487b7100000000000000000000000000000000000000000000000000000000600052603260045260246000fd5b615e9f8062000b396000396000f3fe608060405234801561001057600080fd5b50600436106103835760003560e01c806384b0fe80116101de578063b15f0a0d1161010f578063d88b2bee116100ad578063f2fde38b1161007c578063f2fde38b14610b8b578063f970c3b714610ba7578063fd489a8e14610bd7578063ff51359114610bf357610383565b8063d88b2bee14610adf578063d8bff5a514610afb578063dd62ed3e14610b2b578063e2f764a314610b5b57610383565b8063c6255626116100e9578063c625562614610a1f578063c660d11214610a4f578063cc20743d14610a7f578063cf54aaa014610aaf57610383565b8063b15f0a0d146109b5578063b69ef8a8146109d1578063bf8daa95146109ef57610383565b80639998dcbe1161017c578063a595483411610156578063a59548341461091b578063a9059cbb1461094b578063ae9fea2d1461097b578063b03b937c1461099957610383565b80639998dcbe1461089f5780639f222fe0146108cf578063a457c2d7146108eb57610383565b806393a23c8c116101b857806393a23c8c1461081757806395d89b41146108475780639711715a14610865578063981b24d01461086f57610383565b806384b0fe80146107bf5780638b94b84b146107db5780638da5cb5b146107f957610383565b80633c44d740116102b85780635f66a7681161025657806370a082311161023057806370a082311461074d578063715018a61461077d57806371f2ceee1461078757806379cc6790146107a357610383565b80635f66a768146106bd5780635f74bbde146106ed578063672434821461071d57610383565b8063477bddaa11610292578063477bddaa146106115780634ee2cd7e1461062d578063545af4fe1461065d57806358b35ce41461068d57610383565b80633c44d740146105cf5780633ccfd60b146105eb57806342966c68146105f557610383565b806318160ddd1161032557806323b872dd116102ff57806323b872dd146105215780632f61ebc814610551578063313ce56714610581578063395093511461059f57610383565b806318160ddd146104a35780631fd48b9a146104c15780631ff9b703146104f157610383565b806306fdde031161036157806306fdde03146103f5578063095ea7b31461041357806309eef43e146104435780630c59ef341461047357610383565b8063037768c214610388578063047fc9aa146103b957806306dfa992146103d7575b600080fd5b6103a2600480360381019061039d91906148a6565b610c11565b6040516103b09291906148ec565b60405180910390f35b6103c1610c66565b6040516103ce9190614915565b60405180910390f35b6103df610c6c565b6040516103ec9190614915565b60405180910390f35b6103fd610c72565b60405161040a91906149c0565b60405180910390f35b61042d60048036038101906104289190614a0e565b610d04565b60405161043a9190614a69565b60405180910390f35b61045d600480360381019061045891906148a6565b610d27565b60405161046a9190614a93565b60405180910390f35b61048d600480360381019061048891906148a6565b610d5a565b60405161049a9190614915565b60405180910390f35b6104ab610e00565b6040516104b89190614915565b60405180910390f35b6104db60048036038101906104d691906148a6565b610e0a565b6040516104e89190614a93565b60405180910390f35b61050b600480360381019061050691906148a6565b610e3d565b6040516105189190614915565b60405180910390f35b61053b60048036038101906105369190614aae565b610e55565b6040516105489190614a69565b60405180910390f35b61056b60048036038101906105669190614b01565b610e84565b6040516105789190614a93565b60405180910390f35b610589610ec3565b6040516105969190614b4a565b60405180910390f35b6105b960048036038101906105b49190614a0e565b610ecc565b6040516105c69190614a69565b60405180910390f35b6105e960048036038101906105e49190614b01565b610f03565b005b6105f3610f64565b005b61060f600480360381019061060a9190614b01565b61112c565b005b61062b600480360381019061062691906148a6565b611160565b005b61064760048036038101906106429190614a0e565b61120f565b6040516106549190614915565b60405180910390f35b610677600480360381019061067291906148a6565b61127f565b6040516106849190614915565b60405180910390f35b6106a760048036038101906106a29190614b01565b61138a565b6040516106b49190614a93565b60405180910390f35b6106d760048036038101906106d29190614b01565b6113c9565b6040516106e49190614a93565b60405180910390f35b61070760048036038101906107029190614a0e565b611408565b6040516107149190614a69565b60405180910390f35b61073760048036038101906107329190614d70565b61165f565b6040516107449190614a69565b60405180910390f35b610767600480360381019061076291906148a6565b611a0f565b6040516107749190614915565b60405180910390f35b610785611a57565b005b6107a1600480360381019061079c9190614b01565b611a6b565b005b6107bd60048036038101906107b89190614a0e565b611a7d565b005b6107d960048036038101906107d49190614b01565b611a9d565b005b6107e3611dc4565b6040516107f09190614915565b60405180910390f35b610801611dca565b60405161080e9190614a93565b60405180910390f35b610831600480360381019061082c91906148a6565b611df4565b60405161083e9190614915565b60405180910390f35b61084f611e0c565b60405161085c91906149c0565b60405180910390f35b61086d611e9e565b005b61088960048036038101906108849190614b01565b611eb1565b6040516108969190614915565b60405180910390f35b6108b960048036038101906108b49190614de8565b611ee2565b6040516108c69190614915565b60405180910390f35b6108e960048036038101906108e49190614e28565b611f07565b005b61090560048036038101906109009190614a0e565b61246c565b6040516109129190614a69565b60405180910390f35b61093560048036038101906109309190614a0e565b6124e3565b6040516109429190614915565b60405180910390f35b61096560048036038101906109609190614a0e565b612567565b6040516109729190614a69565b60405180910390f35b61098361258a565b6040516109909190614915565b60405180910390f35b6109b360048036038101906109ae9190614de8565b612590565b005b6109cf60048036038101906109ca9190614e68565b612837565b005b6109d9612858565b6040516109e69190614f66565b60405180910390f35b610a096004803603810190610a049190614a0e565b6129b4565b604051610a169190614a69565b60405180910390f35b610a396004803603810190610a349190614b01565b612a65565b604051610a469190614a93565b60405180910390f35b610a696004803603810190610a649190614a0e565b612aa4565b604051610a769190614915565b60405180910390f35b610a996004803603810190610a9491906148a6565b612bb9565b604051610aa69190614a69565b60405180910390f35b610ac96004803603810190610ac491906148a6565b612bd9565b604051610ad69190614b4a565b60405180910390f35b610af96004803603810190610af49190614a0e565b612c56565b005b610b156004803603810190610b1091906148a6565b6131a8565b604051610b229190614915565b60405180910390f35b610b456004803603810190610b409190614de8565b6131c0565b604051610b529190614915565b60405180910390f35b610b756004803603810190610b709190614d70565b613247565b604051610b829190614a69565b60405180910390f35b610ba56004803603810190610ba091906148a6565b61339a565b005b610bc16004803603810190610bbc9190614aae565b61341d565b604051610bce9190614915565b60405180910390f35b610bf16004803603810190610bec9190614a0e565b6137d3565b005b610bfb6137f1565b604051610c089190614915565b60405180910390f35b600080601760008473ffffffffffffffffffffffffffffffffffffffff1673ffffffffffffffffffffffffffffffffffffffff168152602001908152602001600020549150610c5f8361127f565b9050915091565b60115481565b60135481565b606060038054610c8190614fb7565b80601f0160208091040260200160405190810160405280929190818152602001828054610cad90614fb7565b8015610cfa5780601f10610ccf57610100808354040283529160200191610cfa565b820191906000526020600020905b815481529060010190602001808311610cdd57829003601f168201915b5050505050905090565b600080610d0f6138c2565b9050610d1c8185856138ca565b600191505092915050565b601b6020528060005260406000206000915054906101000a900473ffffffffffffffffffffffffffffffffffffffff1681565b6000601d60008373ffffffffffffffffffffffffffffffffffffffff1673ffffffffffffffffffffffffffffffffffffffff16815260200190815260200160002060009054906101000a900460ff1615610df557601c60008373ffffffffffffffffffffffffffffffffffffffff1673ffffffffffffffffffffffffffffffffffffffff168152602001908152602001600020549050610dfb565b60145490505b919050565b6000600254905090565b60196020528060005260406000206000915054906101000a900473ffffffffffffffffffffffffffffffffffffffff1681565b60176020528060005260406000206000915090505481565b600080610e606138c2565b9050610e6d858285613a93565b610e78858585613b1f565b60019150509392505050565b600e8181548110610e9457600080fd5b906000526020600020016000915054906101000a900473ffffffffffffffffffffffffffffffffffffffff1681565b60006012905090565b600080610ed76138c2565b9050610ef8818585610ee985896131c0565b610ef39190615017565b6138ca565b600191505092915050565b610f0b613d95565b8060008111610f1957600080fd5b610f21613e13565b6000610f2c33611a0f565b905082811015610f3b57600080fd5b610f57670de0b6b3a764000084610f52919061504b565b613e62565b50610f60613e76565b5050565b610f6c613d95565b60005b600d80549050811015611129576000600d8281548110610f9257610f9161508d565b5b9060005260206000200160009054906101000a900473ffffffffffffffffffffffffffffffffffffffff16905060008173ffffffffffffffffffffffffffffffffffffffff166370a08231306040518263ffffffff1660e01b8152600401610ffa9190614a93565b602060405180830381865afa158015611017573d6000803e3d6000fd5b505050506040513d601f19601f8201168201806040525081019061103b91906150d1565b905060008111156110c6578173ffffffffffffffffffffffffffffffffffffffff1663a9059cbb33836040518363ffffffff1660e01b81526004016110819291906150fe565b6020604051808303816000875af11580156110a0573d6000803e3d6000fd5b505050506040513d601f19601f820116820180604052508101906110c49190615153565b505b3373ffffffffffffffffffffffffffffffffffffffff167f5a6b26bafd3957bf06ea3b4915f51221953ed272573c779820e6e39df3e646cf8260405161110c9190614915565b60405180910390a25050808061112190615180565b915050610f6f565b50565b600061113733611a0f565b90506000821161114657600080fd5b8181101561115357600080fd5b61115c82613e62565b5050565b611168613d95565b6015819080600181540180825580915050600190039060005260206000200160009091909190916101000a81548173ffffffffffffffffffffffffffffffffffffffff021916908373ffffffffffffffffffffffffffffffffffffffff16021790555080601660006101000a81548173ffffffffffffffffffffffffffffffffffffffff021916908373ffffffffffffffffffffffffffffffffffffffff16021790555050565b600080600061125c84600560008873ffffffffffffffffffffffffffffffffffffffff1673ffffffffffffffffffffffffffffffffffffffff168152602001908152602001600020613e80565b91509150816112735761126e85611a0f565b611275565b805b9250505092915050565b600080600090505b600b80549050811015611384576000600b82815481106112aa576112a961508d565b5b9060005260206000200160009054906101000a900473ffffffffffffffffffffffffffffffffffffffff1690506000601860008673ffffffffffffffffffffffffffffffffffffffff1673ffffffffffffffffffffffffffffffffffffffff16815260200190815260200160002060008373ffffffffffffffffffffffffffffffffffffffff1673ffffffffffffffffffffffffffffffffffffffff1681526020019081526020016000205490506113628282612aa4565b8461136d9190615017565b93505050808061137c90615180565b915050611287565b50919050565b600f818154811061139a57600080fd5b906000526020600020016000915054906101000a900473ffffffffffffffffffffffffffffffffffffffff1681565b600b81815481106113d957600080fd5b906000526020600020016000915054906101000a900473ffffffffffffffffffffffffffffffffffffffff1681565b60003373ffffffffffffffffffffffffffffffffffffffff168373ffffffffffffffffffffffffffffffffffffffff160361144257600080fd5b8273ffffffffffffffffffffffffffffffffffffffff16601b60003373ffffffffffffffffffffffffffffffffffffffff1673ffffffffffffffffffffffffffffffffffffffff16815260200190815260200160002060009054906101000a900473ffffffffffffffffffffffffffffffffffffffff1673ffffffffffffffffffffffffffffffffffffffff16036114d957600080fd5b8160016114e6919061504b565b601a60008573ffffffffffffffffffffffffffffffffffffffff1673ffffffffffffffffffffffffffffffffffffffff16815260200190815260200160002060008282546115349190615017565b9250508190555082601b60003373ffffffffffffffffffffffffffffffffffffffff1673ffffffffffffffffffffffffffffffffffffffff16815260200190815260200160002060006101000a81548173ffffffffffffffffffffffffffffffffffffffff021916908373ffffffffffffffffffffffffffffffffffffffff1602179055506116163360156001815481106115d2576115d161508d565b5b9060005260206000200160009054906101000a900473ffffffffffffffffffffffffffffffffffffffff16670de0b6b3a764000085611611919061504b565b613b1f565b8273ffffffffffffffffffffffffffffffffffffffff167faec2ccae8681fd01ad220ecb7e9b5f7d485b1cc3cc01599acb1578016b30a6bd60405160405180910390a292915050565b6000611669613d95565b611671613e13565b815183511461167f57600080fd5b6000805b845181101561171a57600073ffffffffffffffffffffffffffffffffffffffff168582815181106116b7576116b661508d565b5b602002602001015173ffffffffffffffffffffffffffffffffffffffff16036116df57600080fd5b8381815181106116f2576116f161508d565b5b6020026020010151826117059190615017565b9150808061171290615180565b915050611683565b5060105481111561172a57600080fd5b60005b845181101561191f5761178785828151811061174c5761174b61508d565b5b6020026020010151670de0b6b3a76400008684815181106117705761176f61508d565b5b6020026020010151611782919061504b565b612567565b50600f85828151811061179d5761179c61508d565b5b60200260200101519080600181540180825580915050600190039060005260206000200160009091909190916101000a81548173ffffffffffffffffffffffffffffffffffffffff021916908373ffffffffffffffffffffffffffffffffffffffff1602179055506001601d600087848151811061181e5761181d61508d565b5b602002602001015173ffffffffffffffffffffffffffffffffffffffff1673ffffffffffffffffffffffffffffffffffffffff16815260200190815260200160002060006101000a81548160ff02191690831515021790555084818151811061188a5761188961508d565b5b602002602001015173ffffffffffffffffffffffffffffffffffffffff167f3ea1f7fd2e5f2a54346a9c36803b810392514eea944090aa52756d8044b140ae670de0b6b3a76400008684815181106118e5576118e461508d565b5b60200260200101516118f7919061504b565b6040516119049190614915565b60405180910390a2808061191790615180565b91505061172d565b5060005b845181101561199d5742601c60008784815181106119445761194361508d565b5b602002602001015173ffffffffffffffffffffffffffffffffffffffff1673ffffffffffffffffffffffffffffffffffffffff16815260200190815260200160002081905550808061199590615180565b915050611923565b50670de0b6b3a7640000816119b2919061504b565b601060008282546119c391906151c8565b9250508190555060006119dc6119d7611dca565b611a0f565b9050670de0b6b3a7640000826119f2919061504b565b816119fd91906151c8565b90505050611a09613e76565b92915050565b60008060008373ffffffffffffffffffffffffffffffffffffffff1673ffffffffffffffffffffffffffffffffffffffff168152602001908152602001600020549050919050565b611a5f613d95565b611a696000613f75565b565b611a73613d95565b80600c8190555050565b611a8f82611a896138c2565b83613a93565b611a99828261403b565b5050565b611aa5613d95565b600d805490508110611ab657600080fd5b6001600d80549050611ac891906151c8565b8114611c2757600d6001600d80549050611ae291906151c8565b81548110611af357611af261508d565b5b9060005260206000200160009054906101000a900473ffffffffffffffffffffffffffffffffffffffff16600d8281548110611b3257611b3161508d565b5b9060005260206000200160006101000a81548173ffffffffffffffffffffffffffffffffffffffff021916908373ffffffffffffffffffffffffffffffffffffffff160217905550600b6001600b80549050611b8e91906151c8565b81548110611b9f57611b9e61508d565b5b9060005260206000200160009054906101000a900473ffffffffffffffffffffffffffffffffffffffff16600b8281548110611bde57611bdd61508d565b5b9060005260206000200160006101000a81548173ffffffffffffffffffffffffffffffffffffffff021916908373ffffffffffffffffffffffffffffffffffffffff1602179055505b600d805480611c3957611c386151fc565b5b6001900381819060005260206000200160006101000a81549073ffffffffffffffffffffffffffffffffffffffff02191690559055600b805480611c8057611c7f6151fc565b5b6001900381819060005260206000200160006101000a81549073ffffffffffffffffffffffffffffffffffffffff021916905590556001600e80549050611cc791906151c8565b8114611d7a57600e6001600e80549050611ce191906151c8565b81548110611cf257611cf161508d565b5b9060005260206000200160009054906101000a900473ffffffffffffffffffffffffffffffffffffffff16600e8281548110611d3157611d3061508d565b5b9060005260206000200160006101000a81548173ffffffffffffffffffffffffffffffffffffffff021916908373ffffffffffffffffffffffffffffffffffffffff1602179055505b600e805480611d8c57611d8b6151fc565b5b6001900381819060005260206000200160006101000a81549073ffffffffffffffffffffffffffffffffffffffff0219169055905550565b60145481565b6000600960009054906101000a900473ffffffffffffffffffffffffffffffffffffffff16905090565b601c6020528060005260406000206000915090505481565b606060048054611e1b90614fb7565b80601f0160208091040260200160405190810160405280929190818152602001828054611e4790614fb7565b8015611e945780601f10611e6957610100808354040283529160200191611e94565b820191906000526020600020905b815481529060010190602001808311611e7757829003601f168201915b5050505050905090565b611ea6613d95565b611eae614208565b50565b6000806000611ec1846006613e80565b9150915081611ed757611ed2610e00565b611ed9565b805b92505050919050565b6018602052816000526040600020602052806000526040600020600091509150505481565b611f9781600d805480602002602001604051908101604052809291908181526020018280548015611f8d57602002820191906000526020600020905b8160009054906101000a900473ffffffffffffffffffffffffffffffffffffffff1673ffffffffffffffffffffffffffffffffffffffff1681526020019060010190808311611f43575b505050505061425e565b611fd6576040517f08c379a0000000000000000000000000000000000000000000000000000000008152600401611fcd9061529d565b60405180910390fd5b601354611fe233610d5a565b611fec9190615017565b421015611ff857600080fd5b601d60003373ffffffffffffffffffffffffffffffffffffffff1673ffffffffffffffffffffffffffffffffffffffff16815260200190815260200160002060009054906101000a900460ff1615612085576040517f08c379a000000000000000000000000000000000000000000000000000000000815260040161207c90615309565b60405180910390fd5b600061209082612bd9565b9050600081600a6120a1919061545c565b600c54856120af919061504b565b6120b9919061504b565b9050600060646003836120cc919061504b565b6120d691906154d6565b9050600081836120e691906151c8565b9050600081846120f691906151c8565b9050600085600a612107919061545c565b8361211291906154d6565b905061213133670de0b6b3a76400008a61212c919061504b565b61403b565b61215561213c611dca565b670de0b6b3a76400008a612150919061504b565b6142e5565b601660009054906101000a900473ffffffffffffffffffffffffffffffffffffffff1673ffffffffffffffffffffffffffffffffffffffff1663f5537ede8861219c611dca565b856040518463ffffffff1660e01b81526004016121bb93929190615507565b600060405180830381600087803b1580156121d557600080fd5b505af11580156121e9573d6000803e3d6000fd5b50505050601660009054906101000a900473ffffffffffffffffffffffffffffffffffffffff1673ffffffffffffffffffffffffffffffffffffffff1663f5537ede8833866040518463ffffffff1660e01b815260040161224c93929190615507565b600060405180830381600087803b15801561226657600080fd5b505af115801561227a573d6000803e3d6000fd5b50505050828261228a9190615017565b601860003373ffffffffffffffffffffffffffffffffffffffff1673ffffffffffffffffffffffffffffffffffffffff16815260200190815260200160002060008973ffffffffffffffffffffffffffffffffffffffff1673ffffffffffffffffffffffffffffffffffffffff16815260200190815260200160002054106124145782826123189190615017565b601860003373ffffffffffffffffffffffffffffffffffffffff1673ffffffffffffffffffffffffffffffffffffffff16815260200190815260200160002060008973ffffffffffffffffffffffffffffffffffffffff1673ffffffffffffffffffffffffffffffffffffffff16815260200190815260200160002060008282546123a391906151c8565b92505081905550670de0b6b3a7640000886123be919061504b565b601760003373ffffffffffffffffffffffffffffffffffffffff1673ffffffffffffffffffffffffffffffffffffffff168152602001908152602001600020600082825461240c91906151c8565b925050819055505b3373ffffffffffffffffffffffffffffffffffffffff167f60d1fd7fd855dfe756b409098634ddac69f2cab9378c527ea6f5683bb8421b038260405161245a9190614915565b60405180910390a25050505050505050565b6000806124776138c2565b9050600061248582866131c0565b9050838110156124ca576040517f08c379a00000000000000000000000000000000000000000000000000000000081526004016124c1906155b0565b60405180910390fd5b6124d782868684036138ca565b60019250505092915050565b6000806124ef84612bd9565b9050600081600a612500919061545c565b8461250b919061504b565b90506000670de0b6b3a7640000600c54612525919061504b565b905060008184601261253791906155d0565b600a612543919061545c565b8461254e919061504b565b61255891906154d6565b90508094505050505092915050565b6000806125726138c2565b905061257f818585613b1f565b600191505092915050565b60125481565b612598613d95565b600d829080600181540180825580915050600190039060005260206000200160009091909190916101000a81548173ffffffffffffffffffffffffffffffffffffffff021916908373ffffffffffffffffffffffffffffffffffffffff160217905550600e819080600181540180825580915050600190039060005260206000200160009091909190916101000a81548173ffffffffffffffffffffffffffffffffffffffff021916908373ffffffffffffffffffffffffffffffffffffffff160217905550600e80549050600d805490501461267457600080fd5b60005b600d8054905081101561283257600e81815481106126985761269761508d565b5b9060005260206000200160009054906101000a900473ffffffffffffffffffffffffffffffffffffffff1660196000600d84815481106126db576126da61508d565b5b9060005260206000200160009054906101000a900473ffffffffffffffffffffffffffffffffffffffff1673ffffffffffffffffffffffffffffffffffffffff1673ffffffffffffffffffffffffffffffffffffffff16815260200190815260200160002060006101000a81548173ffffffffffffffffffffffffffffffffffffffff021916908373ffffffffffffffffffffffffffffffffffffffff160217905550600b600d82815481106127945761279361508d565b5b9060005260206000200160009054906101000a900473ffffffffffffffffffffffffffffffffffffffff169080600181540180825580915050600190039060005260206000200160009091909190916101000a81548173ffffffffffffffffffffffffffffffffffffffff021916908373ffffffffffffffffffffffffffffffffffffffff160217905550808061282a90615180565b915050612677565b505050565b61283f613d95565b8160128190555080601381905550426014819055505050565b60606000600d8054905067ffffffffffffffff81111561287b5761287a614b6a565b5b6040519080825280602002602001820160405280156128a95781602001602082028036833780820191505090505b50905060005b600d805490508110156129ac576000600d82815481106128d2576128d161508d565b5b9060005260206000200160009054906101000a900473ffffffffffffffffffffffffffffffffffffffff1690508073ffffffffffffffffffffffffffffffffffffffff166370a08231306040518263ffffffff1660e01b81526004016129389190614a93565b602060405180830381865afa158015612955573d6000803e3d6000fd5b505050506040513d601f19601f8201168201806040525081019061297991906150d1565b83838151811061298c5761298b61508d565b5b6020026020010181815250505080806129a490615180565b9150506128af565b508091505090565b60006129be613e13565b60156000815481106129d3576129d261508d565b5b9060005260206000200160009054906101000a900473ffffffffffffffffffffffffffffffffffffffff1673ffffffffffffffffffffffffffffffffffffffff163373ffffffffffffffffffffffffffffffffffffffff1614612a3557600080fd5b60008390506000831015612a4857600080fd5b612a5281846142e5565b6001915050612a5f613e76565b92915050565b600d8181548110612a7557600080fd5b906000526020600020016000915054906101000a900473ffffffffffffffffffffffffffffffffffffffff1681565b600080601960008573ffffffffffffffffffffffffffffffffffffffff1673ffffffffffffffffffffffffffffffffffffffff16815260200190815260200160002060009054906101000a900473ffffffffffffffffffffffffffffffffffffffff16905060008173ffffffffffffffffffffffffffffffffffffffff1663feaf968c6040518163ffffffff1660e01b815260040160a060405180830381865afa158015612b56573d6000803e3d6000fd5b505050506040513d601f19601f82011682018060405250810190612b7a919061567d565b505050915050670de0b6b3a7640000846402540be40083612b9b919061504b565b612ba5919061504b565b612baf91906154d6565b9250505092915050565b601d6020528060005260406000206000915054906101000a900460ff1681565b6000808290508073ffffffffffffffffffffffffffffffffffffffff1663313ce5676040518163ffffffff1660e01b8152600401602060405180830381865afa158015612c2a573d6000803e3d6000fd5b505050506040513d601f19601f82011682018060405250810190612c4e9190615724565b915050919050565b612ce682600d805480602002602001604051908101604052809291908181526020018280548015612cdc57602002820191906000526020600020905b8160009054906101000a900473ffffffffffffffffffffffffffffffffffffffff1673ffffffffffffffffffffffffffffffffffffffff1681526020019060010190808311612c92575b505050505061425e565b612d25576040517f08c379a0000000000000000000000000000000000000000000000000000000008152600401612d1c9061529d565b60405180910390fd5b601254612d3133610d5a565b612d3b9190615017565b421015612d4757600080fd5b601d60003373ffffffffffffffffffffffffffffffffffffffff1673ffffffffffffffffffffffffffffffffffffffff16815260200190815260200160002060009054906101000a900460ff1615612d9e57600080fd5b6000612da983612bd9565b9050600081600a612dba919061545c565b83612dc5919061504b565b90506000612dd385856124e3565b90506000670de0b6b3a764000082612deb919061504b565b905060006064600585612dfe919061504b565b612e0891906154d6565b905083601860003373ffffffffffffffffffffffffffffffffffffffff1673ffffffffffffffffffffffffffffffffffffffff16815260200190815260200160002060008973ffffffffffffffffffffffffffffffffffffffff1673ffffffffffffffffffffffffffffffffffffffff168152602001908152602001600020541015612e9357600080fd5b83601860003373ffffffffffffffffffffffffffffffffffffffff1673ffffffffffffffffffffffffffffffffffffffff16815260200190815260200160002060008973ffffffffffffffffffffffffffffffffffffffff1673ffffffffffffffffffffffffffffffffffffffff1681526020019081526020016000206000828254612f1f91906151c8565b9250508190555060008185612f3491906151c8565b9050600086600a612f45919061545c565b82612f5091906154d6565b905060008973ffffffffffffffffffffffffffffffffffffffff166370a082316015600081548110612f8557612f8461508d565b5b9060005260206000200160009054906101000a900473ffffffffffffffffffffffffffffffffffffffff166040518263ffffffff1660e01b8152600401612fcc9190614a93565b602060405180830381865afa158015612fe9573d6000803e3d6000fd5b505050506040513d601f19601f8201168201806040525081019061300d91906150d1565b90508281101561301c57600080fd5b601660009054906101000a900473ffffffffffffffffffffffffffffffffffffffff1673ffffffffffffffffffffffffffffffffffffffff1663f5537ede8b33866040518463ffffffff1660e01b815260040161307b93929190615507565b600060405180830381600087803b15801561309557600080fd5b505af11580156130a9573d6000803e3d6000fd5b50505050601660009054906101000a900473ffffffffffffffffffffffffffffffffffffffff1673ffffffffffffffffffffffffffffffffffffffff1663f5537ede8b6130f4611dca565b876040518463ffffffff1660e01b815260040161311393929190615507565b600060405180830381600087803b15801561312d57600080fd5b505af1158015613141573d6000803e3d6000fd5b5050505061314e8561443b565b3373ffffffffffffffffffffffffffffffffffffffff167f920a3c8586f296bd0cf50659d78531871da77c0699c12e5fd7afd2fb95c592a0836040516131949190614915565b60405180910390a250505050505050505050565b601a6020528060005260406000206000915090505481565b6000600160008473ffffffffffffffffffffffffffffffffffffffff1673ffffffffffffffffffffffffffffffffffffffff16815260200190815260200160002060008373ffffffffffffffffffffffffffffffffffffffff1673ffffffffffffffffffffffffffffffffffffffff16815260200190815260200160002054905092915050565b6000613251613d95565b613259613e13565b815183511461326757600080fd5b60005b83518110156133875760008482815181106132885761328761508d565b5b6020026020010151905060008483815181106132a7576132a661508d565b5b60200260200101519050600073ffffffffffffffffffffffffffffffffffffffff168273ffffffffffffffffffffffffffffffffffffffff16036132ea57600080fd5b60008110156132f857600080fd5b85838151811061330b5761330a61508d565b5b602002602001015173ffffffffffffffffffffffffffffffffffffffff167f896dadd6e1b6d419e549525c037d8d20b5a294b61dacda17b7de7632fbf8893360405160405180910390a261337282670de0b6b3a76400008361336d919061504b565b6142e5565b5050808061337f90615180565b91505061326a565b5060019050613394613e76565b92915050565b6133a2613d95565b600073ffffffffffffffffffffffffffffffffffffffff168173ffffffffffffffffffffffffffffffffffffffff1603613411576040517f08c379a0000000000000000000000000000000000000000000000000000000008152600401613408906157c3565b60405180910390fd5b61341a81613f75565b50565b6000816000811161342d57600080fd5b613435613e13565b83600073ffffffffffffffffffffffffffffffffffffffff16601960008373ffffffffffffffffffffffffffffffffffffffff1673ffffffffffffffffffffffffffffffffffffffff16815260200190815260200160002060009054906101000a900473ffffffffffffffffffffffffffffffffffffffff1673ffffffffffffffffffffffffffffffffffffffff16036134ce57600080fd5b61355e85600d80548060200260200160405190810160405280929190818152602001828054801561355457602002820191906000526020600020905b8160009054906101000a900473ffffffffffffffffffffffffffffffffffffffff1673ffffffffffffffffffffffffffffffffffffffff168152602001906001019080831161350a575b505050505061425e565b61359d576040517f08c379a00000000000000000000000000000000000000000000000000000000081526004016135949061529d565b60405180910390fd5b60006135a886612bd9565b9050600081600a6135b9919061545c565b866135c4919061504b565b905080601860008a73ffffffffffffffffffffffffffffffffffffffff1673ffffffffffffffffffffffffffffffffffffffff16815260200190815260200160002060008973ffffffffffffffffffffffffffffffffffffffff1673ffffffffffffffffffffffffffffffffffffffff16815260200190815260200160002060008282546136529190615017565b925050819055508673ffffffffffffffffffffffffffffffffffffffff168873ffffffffffffffffffffffffffffffffffffffff167fe4c032bd651f378a59936633a0f92b7497fd3577f65c95dc20a01acface334cc836040516136b69190614915565b60405180910390a38673ffffffffffffffffffffffffffffffffffffffff166323b872dd8960156000815481106136f0576136ef61508d565b5b9060005260206000200160009054906101000a900473ffffffffffffffffffffffffffffffffffffffff16846040518463ffffffff1660e01b815260040161373a93929190615507565b6020604051808303816000875af1158015613759573d6000803e3d6000fd5b505050506040513d601f19601f8201168201806040525081019061377d9190615153565b50600082600a61378d919061545c565b8261379891906154d6565b905060006137a689836124e3565b9050670de0b6b3a7640000816137bc919061504b565b965050505050506137cb613e76565b509392505050565b60006137e033848461341d565b90506137ec338261446d565b505050565b60105481565b6138028383836138af565b600073ffffffffffffffffffffffffffffffffffffffff168373ffffffffffffffffffffffffffffffffffffffff160361384c5761383f826144ef565b613847614542565b6138aa565b600073ffffffffffffffffffffffffffffffffffffffff168273ffffffffffffffffffffffffffffffffffffffff160361389657613889836144ef565b613891614542565b6138a9565b61389f836144ef565b6138a8826144ef565b5b5b505050565b505050565b600081600001549050919050565b600033905090565b600073ffffffffffffffffffffffffffffffffffffffff168373ffffffffffffffffffffffffffffffffffffffff1603613939576040517f08c379a000000000000000000000000000000000000000000000000000000000815260040161393090615855565b60405180910390fd5b600073ffffffffffffffffffffffffffffffffffffffff168273ffffffffffffffffffffffffffffffffffffffff16036139a8576040517f08c379a000000000000000000000000000000000000000000000000000000000815260040161399f906158e7565b60405180910390fd5b80600160008573ffffffffffffffffffffffffffffffffffffffff1673ffffffffffffffffffffffffffffffffffffffff16815260200190815260200160002060008473ffffffffffffffffffffffffffffffffffffffff1673ffffffffffffffffffffffffffffffffffffffff168152602001908152602001600020819055508173ffffffffffffffffffffffffffffffffffffffff168373ffffffffffffffffffffffffffffffffffffffff167f8c5be1e5ebec7d5bd14f71427d1e84f3dd0314c0f7b2291e5b200ac8c7c3b92583604051613a869190614915565b60405180910390a3505050565b6000613a9f84846131c0565b90507fffffffffffffffffffffffffffffffffffffffffffffffffffffffffffffffff8114613b195781811015613b0b576040517f08c379a0000000000000000000000000000000000000000000000000000000008152600401613b0290615953565b60405180910390fd5b613b1884848484036138ca565b5b50505050565b600073ffffffffffffffffffffffffffffffffffffffff168373ffffffffffffffffffffffffffffffffffffffff1603613b8e576040517f08c379a0000000000000000000000000000000000000000000000000000000008152600401613b85906159e5565b60405180910390fd5b600073ffffffffffffffffffffffffffffffffffffffff168273ffffffffffffffffffffffffffffffffffffffff1603613bfd576040517f08c379a0000000000000000000000000000000000000000000000000000000008152600401613bf490615a77565b60405180910390fd5b613c08838383614556565b60008060008573ffffffffffffffffffffffffffffffffffffffff1673ffffffffffffffffffffffffffffffffffffffff16815260200190815260200160002054905081811015613c8e576040517f08c379a0000000000000000000000000000000000000000000000000000000008152600401613c8590615b09565b60405180910390fd5b8181036000808673ffffffffffffffffffffffffffffffffffffffff1673ffffffffffffffffffffffffffffffffffffffff16815260200190815260200160002081905550816000808573ffffffffffffffffffffffffffffffffffffffff1673ffffffffffffffffffffffffffffffffffffffff168152602001908152602001600020600082825401925050819055508273ffffffffffffffffffffffffffffffffffffffff168473ffffffffffffffffffffffffffffffffffffffff167fddf252ad1be2c89b69c2b068fc378daa952ba7f163c4a11628f55a4df523b3ef84604051613d7c9190614915565b60405180910390a3613d8f848484614566565b50505050565b613d9d6138c2565b73ffffffffffffffffffffffffffffffffffffffff16613dbb611dca565b73ffffffffffffffffffffffffffffffffffffffff1614613e11576040517f08c379a0000000000000000000000000000000000000000000000000000000008152600401613e0890615b75565b60405180910390fd5b565b6002600a5403613e58576040517f08c379a0000000000000000000000000000000000000000000000000000000008152600401613e4f90615be1565b60405180910390fd5b6002600a81905550565b613e73613e6d6138c2565b8261403b565b50565b6001600a81905550565b60008060008411613ec6576040517f08c379a0000000000000000000000000000000000000000000000000000000008152600401613ebd90615c4d565b60405180910390fd5b613ece61456b565b841115613f10576040517f08c379a0000000000000000000000000000000000000000000000000000000008152600401613f0790615cb9565b60405180910390fd5b6000613f28858560000161457c90919063ffffffff16565b905083600001805490508103613f45576000809250925050613f6e565b6001846001018281548110613f5d57613f5c61508d565b5b906000526020600020015492509250505b9250929050565b6000600960009054906101000a900473ffffffffffffffffffffffffffffffffffffffff16905081600960006101000a81548173ffffffffffffffffffffffffffffffffffffffff021916908373ffffffffffffffffffffffffffffffffffffffff1602179055508173ffffffffffffffffffffffffffffffffffffffff168173ffffffffffffffffffffffffffffffffffffffff167f8be0079c531659141344cd1fd0a4f28419497f9722a3daafe3b4186f6b6457e060405160405180910390a35050565b600073ffffffffffffffffffffffffffffffffffffffff168273ffffffffffffffffffffffffffffffffffffffff16036140aa576040517f08c379a00000000000000000000000000000000000000000000000000000000081526004016140a190615d4b565b60405180910390fd5b6140b682600083614556565b60008060008473ffffffffffffffffffffffffffffffffffffffff1673ffffffffffffffffffffffffffffffffffffffff1681526020019081526020016000205490508181101561413c576040517f08c379a000000000000000000000000000000000000000000000000000000000815260040161413390615ddd565b60405180910390fd5b8181036000808573ffffffffffffffffffffffffffffffffffffffff1673ffffffffffffffffffffffffffffffffffffffff1681526020019081526020016000208190555081600260008282540392505081905550600073ffffffffffffffffffffffffffffffffffffffff168373ffffffffffffffffffffffffffffffffffffffff167fddf252ad1be2c89b69c2b068fc378daa952ba7f163c4a11628f55a4df523b3ef846040516141ef9190614915565b60405180910390a361420383600084614566565b505050565b60006142146008614635565b600061421e61456b565b90507f8030e83b04d87bef53480e26263266d6ca66863aa8506aca6f2559d18aa1cb678160405161424f9190614915565b60405180910390a18091505090565b600080600090505b82518110156142d9578373ffffffffffffffffffffffffffffffffffffffff168382815181106142995761429861508d565b5b602002602001015173ffffffffffffffffffffffffffffffffffffffff16036142c65760019150506142df565b80806142d190615180565b915050614266565b50600090505b92915050565b600073ffffffffffffffffffffffffffffffffffffffff168273ffffffffffffffffffffffffffffffffffffffff1603614354576040517f08c379a000000000000000000000000000000000000000000000000000000000815260040161434b90615e49565b60405180910390fd5b61436060008383614556565b80600260008282546143729190615017565b92505081905550806000808473ffffffffffffffffffffffffffffffffffffffff1673ffffffffffffffffffffffffffffffffffffffff168152602001908152602001600020600082825401925050819055508173ffffffffffffffffffffffffffffffffffffffff16600073ffffffffffffffffffffffffffffffffffffffff167fddf252ad1be2c89b69c2b068fc378daa952ba7f163c4a11628f55a4df523b3ef836040516144239190614915565b60405180910390a361443760008383614566565b5050565b806000811161444957600080fd5b614451613e13565b6000829050614460813361464b565b50614469613e76565b5050565b806000811161447b57600080fd5b81601760008573ffffffffffffffffffffffffffffffffffffffff1673ffffffffffffffffffffffffffffffffffffffff16815260200190815260200160002060008282546144ca9190615017565b9250508190555060006144dd84846146ae565b9050806144e957600080fd5b50505050565b61453f600560008373ffffffffffffffffffffffffffffffffffffffff1673ffffffffffffffffffffffffffffffffffffffff16815260200190815260200160002061453a83611a0f565b61471b565b50565b614554600661454f610e00565b61471b565b565b6145618383836137f7565b505050565b505050565b600061457760086138b4565b905090565b600080838054905003614592576000905061462f565b600080848054905090505b808210156145e65760006145b18383614796565b9050846145be87836147bc565b6000015411156145d0578091506145e0565b6001816145dd9190615017565b92505b5061459d565b60008211801561460e5750836146088660018561460391906151c8565b6147bc565b60000154145b156146295760018261462091906151c8565b9250505061462f565b81925050505b92915050565b6001816000016000828254019250508190555050565b81601760008373ffffffffffffffffffffffffffffffffffffffff1673ffffffffffffffffffffffffffffffffffffffff168152602001908152602001600020600082825461469a91906151c8565b925050819055506146aa8261112c565b5050565b60006146b8613e13565b600073ffffffffffffffffffffffffffffffffffffffff168373ffffffffffffffffffffffffffffffffffffffff16036146f157600080fd5b60008210156146ff57600080fd5b61470983836142e5565b60019050614715613e76565b92915050565b600061472561456b565b905080614734846000016147de565b10156147915782600001819080600181540180825580915050600190039060005260206000200160009091909190915055826001018290806001815401808255809150506001900390600052602060002001600090919091909150555b505050565b600060028284186147a791906154d6565b8284166147b49190615017565b905092915050565b600080836000528260206000200190506147d58161482a565b91505092915050565b6000808280549050036147f45760009050614825565b816001838054905061480691906151c8565b815481106148175761481661508d565b5b906000526020600020015490505b919050565b6000819050919050565b6000604051905090565b600080fd5b600080fd5b600073ffffffffffffffffffffffffffffffffffffffff82169050919050565b600061487382614848565b9050919050565b61488381614868565b811461488e57600080fd5b50565b6000813590506148a08161487a565b92915050565b6000602082840312156148bc576148bb61483e565b5b60006148ca84828501614891565b91505092915050565b6000819050919050565b6148e6816148d3565b82525050565b600060408201905061490160008301856148dd565b61490e60208301846148dd565b9392505050565b600060208201905061492a60008301846148dd565b92915050565b600081519050919050565b600082825260208201905092915050565b60005b8381101561496a57808201518184015260208101905061494f565b60008484015250505050565b6000601f19601f8301169050919050565b600061499282614930565b61499c818561493b565b93506149ac81856020860161494c565b6149b581614976565b840191505092915050565b600060208201905081810360008301526149da8184614987565b905092915050565b6149eb816148d3565b81146149f657600080fd5b50565b600081359050614a08816149e2565b92915050565b60008060408385031215614a2557614a2461483e565b5b6000614a3385828601614891565b9250506020614a44858286016149f9565b9150509250929050565b60008115159050919050565b614a6381614a4e565b82525050565b6000602082019050614a7e6000830184614a5a565b92915050565b614a8d81614868565b82525050565b6000602082019050614aa86000830184614a84565b92915050565b600080600060608486031215614ac757614ac661483e565b5b6000614ad586828701614891565b9350506020614ae686828701614891565b9250506040614af7868287016149f9565b9150509250925092565b600060208284031215614b1757614b1661483e565b5b6000614b25848285016149f9565b91505092915050565b600060ff82169050919050565b614b4481614b2e565b82525050565b6000602082019050614b5f6000830184614b3b565b92915050565b600080fd5b7f4e487b7100000000000000000000000000000000000000000000000000000000600052604160045260246000fd5b614ba282614976565b810181811067ffffffffffffffff82111715614bc157614bc0614b6a565b5b80604052505050565b6000614bd4614834565b9050614be08282614b99565b919050565b600067ffffffffffffffff821115614c0057614bff614b6a565b5b602082029050602081019050919050565b600080fd5b6000614c29614c2484614be5565b614bca565b90508083825260208201905060208402830185811115614c4c57614c4b614c11565b5b835b81811015614c755780614c618882614891565b845260208401935050602081019050614c4e565b5050509392505050565b600082601f830112614c9457614c93614b65565b5b8135614ca4848260208601614c16565b91505092915050565b600067ffffffffffffffff821115614cc857614cc7614b6a565b5b602082029050602081019050919050565b6000614cec614ce784614cad565b614bca565b90508083825260208201905060208402830185811115614d0f57614d0e614c11565b5b835b81811015614d385780614d2488826149f9565b845260208401935050602081019050614d11565b5050509392505050565b600082601f830112614d5757614d56614b65565b5b8135614d67848260208601614cd9565b91505092915050565b60008060408385031215614d8757614d8661483e565b5b600083013567ffffffffffffffff811115614da557614da4614843565b5b614db185828601614c7f565b925050602083013567ffffffffffffffff811115614dd257614dd1614843565b5b614dde85828601614d42565b9150509250929050565b60008060408385031215614dff57614dfe61483e565b5b6000614e0d85828601614891565b9250506020614e1e85828601614891565b9150509250929050565b60008060408385031215614e3f57614e3e61483e565b5b6000614e4d858286016149f9565b9250506020614e5e85828601614891565b9150509250929050565b60008060408385031215614e7f57614e7e61483e565b5b6000614e8d858286016149f9565b9250506020614e9e858286016149f9565b9150509250929050565b600081519050919050565b600082825260208201905092915050565b6000819050602082019050919050565b614edd816148d3565b82525050565b6000614eef8383614ed4565b60208301905092915050565b6000602082019050919050565b6000614f1382614ea8565b614f1d8185614eb3565b9350614f2883614ec4565b8060005b83811015614f59578151614f408882614ee3565b9750614f4b83614efb565b925050600181019050614f2c565b5085935050505092915050565b60006020820190508181036000830152614f808184614f08565b905092915050565b7f4e487b7100000000000000000000000000000000000000000000000000000000600052602260045260246000fd5b60006002820490506001821680614fcf57607f821691505b602082108103614fe257614fe1614f88565b5b50919050565b7f4e487b7100000000000000000000000000000000000000000000000000000000600052601160045260246000fd5b6000615022826148d3565b915061502d836148d3565b925082820190508082111561504557615044614fe8565b5b92915050565b6000615056826148d3565b9150615061836148d3565b925082820261506f816148d3565b9150828204841483151761508657615085614fe8565b5b5092915050565b7f4e487b7100000000000000000000000000000000000000000000000000000000600052603260045260246000fd5b6000815190506150cb816149e2565b92915050565b6000602082840312156150e7576150e661483e565b5b60006150f5848285016150bc565b91505092915050565b60006040820190506151136000830185614a84565b61512060208301846148dd565b9392505050565b61513081614a4e565b811461513b57600080fd5b50565b60008151905061514d81615127565b92915050565b6000602082840312156151695761516861483e565b5b60006151778482850161513e565b91505092915050565b600061518b826148d3565b91507fffffffffffffffffffffffffffffffffffffffffffffffffffffffffffffffff82036151bd576151bc614fe8565b5b600182019050919050565b60006151d3826148d3565b91506151de836148d3565b92508282039050818111156151f6576151f5614fe8565b5b92915050565b7f4e487b7100000000000000000000000000000000000000000000000000000000600052603160045260246000fd5b7f41646472657373206e6f7420666f756e6420696e20737570706f72746564546f60008201527f6b656e7300000000000000000000000000000000000000000000000000000000602082015250565b600061528760248361493b565b91506152928261522b565b604082019050919050565b600060208201905081810360008301526152b68161527a565b9050919050565b7f61697264726f7000000000000000000000000000000000000000000000000000600082015250565b60006152f360078361493b565b91506152fe826152bd565b602082019050919050565b60006020820190508181036000830152615322816152e6565b9050919050565b60008160011c9050919050565b6000808291508390505b60018511156153805780860481111561535c5761535b614fe8565b5b600185161561536b5780820291505b808102905061537985615329565b9450615340565b94509492505050565b6000826153995760019050615455565b816153a75760009050615455565b81600181146153bd57600281146153c7576153f6565b6001915050615455565b60ff8411156153d9576153d8614fe8565b5b8360020a9150848211156153f0576153ef614fe8565b5b50615455565b5060208310610133831016604e8410600b841016171561542b5782820a90508381111561542657615425614fe8565b5b615455565b6154388484846001615336565b9250905081840481111561544f5761544e614fe8565b5b81810290505b9392505050565b6000615467826148d3565b915061547283614b2e565b925061549f7fffffffffffffffffffffffffffffffffffffffffffffffffffffffffffffffff8484615389565b905092915050565b7f4e487b7100000000000000000000000000000000000000000000000000000000600052601260045260246000fd5b60006154e1826148d3565b91506154ec836148d3565b9250826154fc576154fb6154a7565b5b828204905092915050565b600060608201905061551c6000830186614a84565b6155296020830185614a84565b61553660408301846148dd565b949350505050565b7f45524332303a2064656372656173656420616c6c6f77616e63652062656c6f7760008201527f207a65726f000000000000000000000000000000000000000000000000000000602082015250565b600061559a60258361493b565b91506155a58261553e565b604082019050919050565b600060208201905081810360008301526155c98161558d565b9050919050565b60006155db82614b2e565b91506155e683614b2e565b9250828203905060ff8111156155ff576155fe614fe8565b5b92915050565b600069ffffffffffffffffffff82169050919050565b61562481615605565b811461562f57600080fd5b50565b6000815190506156418161561b565b92915050565b6000819050919050565b61565a81615647565b811461566557600080fd5b50565b60008151905061567781615651565b92915050565b600080600080600060a086880312156156995761569861483e565b5b60006156a788828901615632565b95505060206156b888828901615668565b94505060406156c9888289016150bc565b93505060606156da888289016150bc565b92505060806156eb88828901615632565b9150509295509295909350565b61570181614b2e565b811461570c57600080fd5b50565b60008151905061571e816156f8565b92915050565b60006020828403121561573a5761573961483e565b5b60006157488482850161570f565b91505092915050565b7f4f776e61626c653a206e6577206f776e657220697320746865207a65726f206160008201527f6464726573730000000000000000000000000000000000000000000000000000602082015250565b60006157ad60268361493b565b91506157b882615751565b604082019050919050565b600060208201905081810360008301526157dc816157a0565b9050919050565b7f45524332303a20617070726f76652066726f6d20746865207a65726f2061646460008201527f7265737300000000000000000000000000000000000000000000000000000000602082015250565b600061583f60248361493b565b915061584a826157e3565b604082019050919050565b6000602082019050818103600083015261586e81615832565b9050919050565b7f45524332303a20617070726f766520746f20746865207a65726f20616464726560008201527f7373000000000000000000000000000000000000000000000000000000000000602082015250565b60006158d160228361493b565b91506158dc82615875565b604082019050919050565b60006020820190508181036000830152615900816158c4565b9050919050565b7f45524332303a20696e73756666696369656e7420616c6c6f77616e6365000000600082015250565b600061593d601d8361493b565b915061594882615907565b602082019050919050565b6000602082019050818103600083015261596c81615930565b9050919050565b7f45524332303a207472616e736665722066726f6d20746865207a65726f20616460008201527f6472657373000000000000000000000000000000000000000000000000000000602082015250565b60006159cf60258361493b565b91506159da82615973565b604082019050919050565b600060208201905081810360008301526159fe816159c2565b9050919050565b7f45524332303a207472616e7366657220746f20746865207a65726f206164647260008201527f6573730000000000000000000000000000000000000000000000000000000000602082015250565b6000615a6160238361493b565b9150615a6c82615a05565b604082019050919050565b60006020820190508181036000830152615a9081615a54565b9050919050565b7f45524332303a207472616e7366657220616d6f756e742065786365656473206260008201527f616c616e63650000000000000000000000000000000000000000000000000000602082015250565b6000615af360268361493b565b9150615afe82615a97565b604082019050919050565b60006020820190508181036000830152615b2281615ae6565b9050919050565b7f4f776e61626c653a2063616c6c6572206973206e6f7420746865206f776e6572600082015250565b6000615b5f60208361493b565b9150615b6a82615b29565b602082019050919050565b60006020820190508181036000830152615b8e81615b52565b9050919050565b7f5265656e7472616e637947756172643a207265656e7472616e742063616c6c00600082015250565b6000615bcb601f8361493b565b9150615bd682615b95565b602082019050919050565b60006020820190508181036000830152615bfa81615bbe565b9050919050565b7f4552433230536e617073686f743a206964206973203000000000000000000000600082015250565b6000615c3760168361493b565b9150615c4282615c01565b602082019050919050565b60006020820190508181036000830152615c6681615c2a565b9050919050565b7f4552433230536e617073686f743a206e6f6e6578697374656e74206964000000600082015250565b6000615ca3601d8361493b565b9150615cae82615c6d565b602082019050919050565b60006020820190508181036000830152615cd281615c96565b9050919050565b7f45524332303a206275726e2066726f6d20746865207a65726f2061646472657360008201527f7300000000000000000000000000000000000000000000000000000000000000602082015250565b6000615d3560218361493b565b9150615d4082615cd9565b604082019050919050565b60006020820190508181036000830152615d6481615d28565b9050919050565b7f45524332303a206275726e20616d6f756e7420657863656564732062616c616e60008201527f6365000000000000000000000000000000000000000000000000000000000000602082015250565b6000615dc760228361493b565b9150615dd282615d6b565b604082019050919050565b60006020820190508181036000830152615df681615dba565b9050919050565b7f45524332303a206d696e7420746f20746865207a65726f206164647265737300600082015250565b6000615e33601f8361493b565b9150615e3e82615dfd565b602082019050919050565b60006020820190508181036000830152615e6281615e26565b905091905056fea2646970667358221220b47ecfebb9e195446c510b6ed4334a24af619594a8896d11f717478d9221e68864736f6c63430008120033",
  "linkReferences": {},
  "deployedLinkReferences": {}
}