{
  "_format": "hh-sol-artifact-1",
  "contractName": "Vault",
  "sourceName": "contracts/Vault.sol",
  "abi": [
    {
      "inputs": [],
      "stateMutability": "nonpayable",
      "type": "constructor"
    },
    {
      "anonymous": false,
      "inputs": [
        {
          "indexed": true,
          "internalType": "address",
          "name": "user",
          "type": "address"
        },
        {
          "indexed": false,
          "internalType": "uint256",
          "name": "amount",
          "type": "uint256"
        }
      ],
      "name": "collateralDeposit",
      "type": "event"
    },
    {
      "inputs": [
        {
          "internalType": "address",
          "name": "_CDS",
          "type": "address"
        }
      ],
      "name": "SetCDS",
      "outputs": [],
      "stateMutability": "nonpayable",
      "type": "function"
    },
    {
      "inputs": [
        {
          "internalType": "address",
          "name": "",
          "type": "address"
        }
      ],
      "name": "balance",
      "outputs": [
        {
          "internalType": "uint256",
          "name": "",
          "type": "uint256"
        }
      ],
      "stateMutability": "view",
      "type": "function"
    },
    {
      "inputs": [
        {
          "internalType": "address",
          "name": "user",
          "type": "address"
        },
        {
          "internalType": "address",
          "name": "tokenAddress",
          "type": "address"
        },
        {
          "internalType": "uint256",
          "name": "amount",
          "type": "uint256"
        }
      ],
      "name": "deposit",
      "outputs": [],
      "stateMutability": "nonpayable",
      "type": "function"
    },
    {
      "inputs": [
        {
          "internalType": "address",
          "name": "token",
          "type": "address"
        }
      ],
      "name": "getBalance",
      "outputs": [
        {
          "internalType": "uint256",
          "name": "balances",
          "type": "uint256"
        }
      ],
      "stateMutability": "view",
      "type": "function"
    },
    {
      "inputs": [],
      "name": "i_streal",
      "outputs": [
        {
          "internalType": "contract Streal",
          "name": "",
          "type": "address"
        }
      ],
      "stateMutability": "view",
      "type": "function"
    },
    {
      "inputs": [
        {
          "internalType": "address",
          "name": "token",
          "type": "address"
        },
        {
          "internalType": "address",
          "name": "recipient",
          "type": "address"
        },
        {
          "internalType": "uint256",
          "name": "amount",
          "type": "uint256"
        }
      ],
      "name": "transferToken",
      "outputs": [],
      "stateMutability": "nonpayable",
      "type": "function"
    },
    {
      "inputs": [
        {
          "internalType": "address",
          "name": "token",
          "type": "address"
        },
        {
          "internalType": "uint256",
          "name": "amount",
          "type": "uint256"
        }
      ],
      "name": "withdraw",
      "outputs": [],
      "stateMutability": "nonpayable",
      "type": "function"
    }
  ],
  "bytecode": "0x608060405234801561001057600080fd5b50600160008190555033600160006101000a81548173ffffffffffffffffffffffffffffffffffffffff021916908373ffffffffffffffffffffffffffffffffffffffff16021790555061113f806100696000396000f3fe608060405234801561001057600080fd5b506004361061007d5760003560e01c8063e3d670d71161005b578063e3d670d7146100d8578063f3fef3a314610108578063f5537ede14610124578063f8b2cb4f146101405761007d565b8063066284bd146100825780638340f5491461009e578063dc108f7e146100ba575b600080fd5b61009c60048036038101906100979190610a64565b610170565b005b6100b860048036038101906100b39190610ac7565b610285565b005b6100c2610528565b6040516100cf9190610b79565b60405180910390f35b6100f260048036038101906100ed9190610a64565b61054e565b6040516100ff9190610ba3565b60405180910390f35b610122600480360381019061011d9190610bbe565b610566565b005b61013e60048036038101906101399190610ac7565b610745565b005b61015a60048036038101906101559190610a64565b610925565b6040516101679190610ba3565b60405180910390f35b600160009054906101000a900473ffffffffffffffffffffffffffffffffffffffff1673ffffffffffffffffffffffffffffffffffffffff163373ffffffffffffffffffffffffffffffffffffffff1614610200576040517f08c379a00000000000000000000000000000000000000000000000000000000081526004016101f790610c81565b60405180910390fd5b80600460006101000a81548173ffffffffffffffffffffffffffffffffffffffff021916908373ffffffffffffffffffffffffffffffffffffffff16021790555080600260006101000a81548173ffffffffffffffffffffffffffffffffffffffff021916908373ffffffffffffffffffffffffffffffffffffffff16021790555050565b600081116102c8576040517f08c379a00000000000000000000000000000000000000000000000000000000081526004016102bf90610ced565b60405180910390fd5b600073ffffffffffffffffffffffffffffffffffffffff168273ffffffffffffffffffffffffffffffffffffffff1603610337576040517f08c379a000000000000000000000000000000000000000000000000000000000815260040161032e90610d59565b60405180910390fd5b80600360008473ffffffffffffffffffffffffffffffffffffffff1673ffffffffffffffffffffffffffffffffffffffff16815260200190815260200160002060008282546103869190610da8565b925050819055506000600460009054906101000a900473ffffffffffffffffffffffffffffffffffffffff1673ffffffffffffffffffffffffffffffffffffffff1663f970c3b73385856040518463ffffffff1660e01b81526004016103ee93929190610deb565b6020604051808303816000875af115801561040d573d6000803e3d6000fd5b505050506040513d601f19601f820116820180604052508101906104319190610e37565b9050600460009054906101000a900473ffffffffffffffffffffffffffffffffffffffff1673ffffffffffffffffffffffffffffffffffffffff1663bf8daa9585836040518363ffffffff1660e01b8152600401610490929190610e64565b6020604051808303816000875af11580156104af573d6000803e3d6000fd5b505050506040513d601f19601f820116820180604052508101906104d39190610ec5565b508373ffffffffffffffffffffffffffffffffffffffff167fed3a9c3fe4ed1aa3197251f30b3974c16b11b2f781cf154d8c5840542a97136e8360405161051a9190610ba3565b60405180910390a250505050565b600460009054906101000a900473ffffffffffffffffffffffffffffffffffffffff1681565b60036020528060005260406000206000915090505481565b61056e6109a8565b600160009054906101000a900473ffffffffffffffffffffffffffffffffffffffff1673ffffffffffffffffffffffffffffffffffffffff163373ffffffffffffffffffffffffffffffffffffffff16146105fe576040517f08c379a00000000000000000000000000000000000000000000000000000000081526004016105f590610f64565b60405180910390fd5b808273ffffffffffffffffffffffffffffffffffffffff166370a08231306040518263ffffffff1660e01b81526004016106389190610f84565b602060405180830381865afa158015610655573d6000803e3d6000fd5b505050506040513d601f19601f820116820180604052508101906106799190610e37565b10156106ba576040517f08c379a00000000000000000000000000000000000000000000000000000000081526004016106b190610feb565b60405180910390fd5b8173ffffffffffffffffffffffffffffffffffffffff1663a9059cbb33836040518363ffffffff1660e01b81526004016106f5929190610e64565b6020604051808303816000875af1158015610714573d6000803e3d6000fd5b505050506040513d601f19601f820116820180604052508101906107389190610ec5565b506107416109f7565b5050565b61074d6109a8565b600260009054906101000a900473ffffffffffffffffffffffffffffffffffffffff1673ffffffffffffffffffffffffffffffffffffffff163373ffffffffffffffffffffffffffffffffffffffff16146107dd576040517f08c379a00000000000000000000000000000000000000000000000000000000081526004016107d49061107d565b60405180910390fd5b808373ffffffffffffffffffffffffffffffffffffffff166370a08231306040518263ffffffff1660e01b81526004016108179190610f84565b602060405180830381865afa158015610834573d6000803e3d6000fd5b505050506040513d601f19601f820116820180604052508101906108589190610e37565b1015610899576040517f08c379a000000000000000000000000000000000000000000000000000000000815260040161089090610feb565b60405180910390fd5b8273ffffffffffffffffffffffffffffffffffffffff1663a9059cbb83836040518363ffffffff1660e01b81526004016108d4929190610e64565b6020604051808303816000875af11580156108f3573d6000803e3d6000fd5b505050506040513d601f19601f820116820180604052508101906109179190610ec5565b506109206109f7565b505050565b60008173ffffffffffffffffffffffffffffffffffffffff166370a08231306040518263ffffffff1660e01b81526004016109609190610f84565b602060405180830381865afa15801561097d573d6000803e3d6000fd5b505050506040513d601f19601f820116820180604052508101906109a19190610e37565b9050919050565b6002600054036109ed576040517f08c379a00000000000000000000000000000000000000000000000000000000081526004016109e4906110e9565b60405180910390fd5b6002600081905550565b6001600081905550565b600080fd5b600073ffffffffffffffffffffffffffffffffffffffff82169050919050565b6000610a3182610a06565b9050919050565b610a4181610a26565b8114610a4c57600080fd5b50565b600081359050610a5e81610a38565b92915050565b600060208284031215610a7a57610a79610a01565b5b6000610a8884828501610a4f565b91505092915050565b6000819050919050565b610aa481610a91565b8114610aaf57600080fd5b50565b600081359050610ac181610a9b565b92915050565b600080600060608486031215610ae057610adf610a01565b5b6000610aee86828701610a4f565b9350506020610aff86828701610a4f565b9250506040610b1086828701610ab2565b9150509250925092565b6000819050919050565b6000610b3f610b3a610b3584610a06565b610b1a565b610a06565b9050919050565b6000610b5182610b24565b9050919050565b6000610b6382610b46565b9050919050565b610b7381610b58565b82525050565b6000602082019050610b8e6000830184610b6a565b92915050565b610b9d81610a91565b82525050565b6000602082019050610bb86000830184610b94565b92915050565b60008060408385031215610bd557610bd4610a01565b5b6000610be385828601610a4f565b9250506020610bf485828601610ab2565b9150509250929050565b600082825260208201905092915050565b7f6f6e6c79206f776e65722063616e2063616c6c20746869732066756e6374696f60008201527f6e00000000000000000000000000000000000000000000000000000000000000602082015250565b6000610c6b602183610bfe565b9150610c7682610c0f565b604082019050919050565b60006020820190508181036000830152610c9a81610c5e565b9050919050565b7f416d6f756e74206d7573742062652067726561746572207468616e207a65726f600082015250565b6000610cd7602083610bfe565b9150610ce282610ca1565b602082019050919050565b60006020820190508181036000830152610d0681610cca565b9050919050565b7f496e76616c696420746f6b656e20616464726573730000000000000000000000600082015250565b6000610d43601583610bfe565b9150610d4e82610d0d565b602082019050919050565b60006020820190508181036000830152610d7281610d36565b9050919050565b7f4e487b7100000000000000000000000000000000000000000000000000000000600052601160045260246000fd5b6000610db382610a91565b9150610dbe83610a91565b9250828201905080821115610dd657610dd5610d79565b5b92915050565b610de581610a26565b82525050565b6000606082019050610e006000830186610ddc565b610e0d6020830185610ddc565b610e1a6040830184610b94565b949350505050565b600081519050610e3181610a9b565b92915050565b600060208284031215610e4d57610e4c610a01565b5b6000610e5b84828501610e22565b91505092915050565b6000604082019050610e796000830185610ddc565b610e866020830184610b94565b9392505050565b60008115159050919050565b610ea281610e8d565b8114610ead57600080fd5b50565b600081519050610ebf81610e99565b92915050565b600060208284031215610edb57610eda610a01565b5b6000610ee984828501610eb0565b91505092915050565b7f6f6e6c7920746865206f776e65722063616e2063616c6c20746869732066756e60008201527f6374696f6e000000000000000000000000000000000000000000000000000000602082015250565b6000610f4e602583610bfe565b9150610f5982610ef2565b604082019050919050565b60006020820190508181036000830152610f7d81610f41565b9050919050565b6000602082019050610f996000830184610ddc565b92915050565b7f496e73756666696369656e742062616c616e63652e0000000000000000000000600082015250565b6000610fd5601583610bfe565b9150610fe082610f9f565b602082019050919050565b6000602082019050818103600083015261100481610fc8565b9050919050565b7f46756e6374696f6e206f6e6c792061636365737369626c6520746f205374726560008201527f616c20636f6e7472616374000000000000000000000000000000000000000000602082015250565b6000611067602b83610bfe565b91506110728261100b565b604082019050919050565b600060208201905081810360008301526110968161105a565b9050919050565b7f5265656e7472616e637947756172643a207265656e7472616e742063616c6c00600082015250565b60006110d3601f83610bfe565b91506110de8261109d565b602082019050919050565b60006020820190508181036000830152611102816110c6565b905091905056fea2646970667358221220e205299e4fe85361b3c313d78eba9b43a4311e0d3c73dac5fc90dd3fc5fbc75164736f6c63430008120033",
  "linkReferences": {},
  "deployedLinkReferences": {}
}