{
  "_format": "hh-sol-artifact-1",
  "contractName": "Streal2",
  "sourceName": "contracts/streal_1.sol",
  "abi": [
    {
      "inputs": [],
      "stateMutability": "nonpayable",
      "type": "constructor"
    },
    {
      "anonymous": false,
      "inputs": [
        {
          "indexed": true,
          "internalType": "address",
          "name": "owner",
          "type": "address"
        },
        {
          "indexed": true,
          "internalType": "address",
          "name": "spender",
          "type": "address"
        },
        {
          "indexed": false,
          "internalType": "uint256",
          "name": "value",
          "type": "uint256"
        }
      ],
      "name": "Approval",
      "type": "event"
    },
    {
      "anonymous": false,
      "inputs": [
        {
          "indexed": true,
          "internalType": "address",
          "name": "previousOwner",
          "type": "address"
        },
        {
          "indexed": true,
          "internalType": "address",
          "name": "newOwner",
          "type": "address"
        }
      ],
      "name": "OwnershipTransferred",
      "type": "event"
    },
    {
      "anonymous": false,
      "inputs": [
        {
          "indexed": true,
          "internalType": "bytes32",
          "name": "role",
          "type": "bytes32"
        },
        {
          "indexed": true,
          "internalType": "bytes32",
          "name": "previousAdminRole",
          "type": "bytes32"
        },
        {
          "indexed": true,
          "internalType": "bytes32",
          "name": "newAdminRole",
          "type": "bytes32"
        }
      ],
      "name": "RoleAdminChanged",
      "type": "event"
    },
    {
      "anonymous": false,
      "inputs": [
        {
          "indexed": true,
          "internalType": "bytes32",
          "name": "role",
          "type": "bytes32"
        },
        {
          "indexed": true,
          "internalType": "address",
          "name": "account",
          "type": "address"
        },
        {
          "indexed": true,
          "internalType": "address",
          "name": "sender",
          "type": "address"
        }
      ],
      "name": "RoleGranted",
      "type": "event"
    },
    {
      "anonymous": false,
      "inputs": [
        {
          "indexed": true,
          "internalType": "bytes32",
          "name": "role",
          "type": "bytes32"
        },
        {
          "indexed": true,
          "internalType": "address",
          "name": "account",
          "type": "address"
        },
        {
          "indexed": true,
          "internalType": "address",
          "name": "sender",
          "type": "address"
        }
      ],
      "name": "RoleRevoked",
      "type": "event"
    },
    {
      "anonymous": false,
      "inputs": [
        {
          "indexed": false,
          "internalType": "uint256",
          "name": "id",
          "type": "uint256"
        }
      ],
      "name": "Snapshot",
      "type": "event"
    },
    {
      "anonymous": false,
      "inputs": [
        {
          "indexed": true,
          "internalType": "address",
          "name": "from",
          "type": "address"
        },
        {
          "indexed": true,
          "internalType": "address",
          "name": "to",
          "type": "address"
        },
        {
          "indexed": false,
          "internalType": "uint256",
          "name": "value",
          "type": "uint256"
        }
      ],
      "name": "Transfer",
      "type": "event"
    },
    {
      "inputs": [],
      "name": "ADMIN_ROLE",
      "outputs": [
        {
          "internalType": "bytes32",
          "name": "",
          "type": "bytes32"
        }
      ],
      "stateMutability": "view",
      "type": "function"
    },
    {
      "inputs": [],
      "name": "DEFAULT_ADMIN_ROLE",
      "outputs": [
        {
          "internalType": "bytes32",
          "name": "",
          "type": "bytes32"
        }
      ],
      "stateMutability": "view",
      "type": "function"
    },
    {
      "inputs": [
        {
          "internalType": "address[]",
          "name": "recipients",
          "type": "address[]"
        },
        {
          "internalType": "uint256[]",
          "name": "values",
          "type": "uint256[]"
        }
      ],
      "name": "airdrop",
      "outputs": [
        {
          "internalType": "bool",
          "name": "success",
          "type": "bool"
        }
      ],
      "stateMutability": "nonpayable",
      "type": "function"
    },
    {
      "inputs": [],
      "name": "airdrops",
      "outputs": [
        {
          "internalType": "uint256",
          "name": "",
          "type": "uint256"
        }
      ],
      "stateMutability": "view",
      "type": "function"
    },
    {
      "inputs": [
        {
          "internalType": "address",
          "name": "owner",
          "type": "address"
        },
        {
          "internalType": "address",
          "name": "spender",
          "type": "address"
        }
      ],
      "name": "allowance",
      "outputs": [
        {
          "internalType": "uint256",
          "name": "",
          "type": "uint256"
        }
      ],
      "stateMutability": "view",
      "type": "function"
    },
    {
      "inputs": [
        {
          "internalType": "address",
          "name": "spender",
          "type": "address"
        },
        {
          "internalType": "uint256",
          "name": "amount",
          "type": "uint256"
        }
      ],
      "name": "approve",
      "outputs": [
        {
          "internalType": "bool",
          "name": "",
          "type": "bool"
        }
      ],
      "stateMutability": "nonpayable",
      "type": "function"
    },
    {
      "inputs": [
        {
          "internalType": "address",
          "name": "account",
          "type": "address"
        }
      ],
      "name": "balanceOf",
      "outputs": [
        {
          "internalType": "uint256",
          "name": "",
          "type": "uint256"
        }
      ],
      "stateMutability": "view",
      "type": "function"
    },
    {
      "inputs": [
        {
          "internalType": "address",
          "name": "account",
          "type": "address"
        },
        {
          "internalType": "uint256",
          "name": "snapshotId",
          "type": "uint256"
        }
      ],
      "name": "balanceOfAt",
      "outputs": [
        {
          "internalType": "uint256",
          "name": "",
          "type": "uint256"
        }
      ],
      "stateMutability": "view",
      "type": "function"
    },
    {
      "inputs": [
        {
          "internalType": "uint256",
          "name": "_amount",
          "type": "uint256"
        }
      ],
      "name": "burn",
      "outputs": [],
      "stateMutability": "nonpayable",
      "type": "function"
    },
    {
      "inputs": [
        {
          "internalType": "address",
          "name": "account",
          "type": "address"
        },
        {
          "internalType": "uint256",
          "name": "amount",
          "type": "uint256"
        }
      ],
      "name": "burnFrom",
      "outputs": [],
      "stateMutability": "nonpayable",
      "type": "function"
    },
    {
      "inputs": [],
      "name": "decimals",
      "outputs": [
        {
          "internalType": "uint8",
          "name": "",
          "type": "uint8"
        }
      ],
      "stateMutability": "view",
      "type": "function"
    },
    {
      "inputs": [
        {
          "internalType": "address",
          "name": "spender",
          "type": "address"
        },
        {
          "internalType": "uint256",
          "name": "subtractedValue",
          "type": "uint256"
        }
      ],
      "name": "decreaseAllowance",
      "outputs": [
        {
          "internalType": "bool",
          "name": "",
          "type": "bool"
        }
      ],
      "stateMutability": "nonpayable",
      "type": "function"
    },
    {
      "inputs": [
        {
          "internalType": "bytes32",
          "name": "role",
          "type": "bytes32"
        }
      ],
      "name": "getRoleAdmin",
      "outputs": [
        {
          "internalType": "bytes32",
          "name": "",
          "type": "bytes32"
        }
      ],
      "stateMutability": "view",
      "type": "function"
    },
    {
      "inputs": [
        {
          "internalType": "address",
          "name": "admin",
          "type": "address"
        }
      ],
      "name": "grantAdminRole",
      "outputs": [],
      "stateMutability": "nonpayable",
      "type": "function"
    },
    {
      "inputs": [
        {
          "internalType": "bytes32",
          "name": "role",
          "type": "bytes32"
        },
        {
          "internalType": "address",
          "name": "account",
          "type": "address"
        }
      ],
      "name": "grantRole",
      "outputs": [],
      "stateMutability": "nonpayable",
      "type": "function"
    },
    {
      "inputs": [
        {
          "internalType": "bytes32",
          "name": "role",
          "type": "bytes32"
        },
        {
          "internalType": "address",
          "name": "account",
          "type": "address"
        }
      ],
      "name": "hasRole",
      "outputs": [
        {
          "internalType": "bool",
          "name": "",
          "type": "bool"
        }
      ],
      "stateMutability": "view",
      "type": "function"
    },
    {
      "inputs": [
        {
          "internalType": "address",
          "name": "spender",
          "type": "address"
        },
        {
          "internalType": "uint256",
          "name": "addedValue",
          "type": "uint256"
        }
      ],
      "name": "increaseAllowance",
      "outputs": [
        {
          "internalType": "bool",
          "name": "",
          "type": "bool"
        }
      ],
      "stateMutability": "nonpayable",
      "type": "function"
    },
    {
      "inputs": [
        {
          "internalType": "address",
          "name": "account",
          "type": "address"
        }
      ],
      "name": "isAdmin",
      "outputs": [
        {
          "internalType": "bool",
          "name": "",
          "type": "bool"
        }
      ],
      "stateMutability": "view",
      "type": "function"
    },
    {
      "inputs": [
        {
          "internalType": "address",
          "name": "to",
          "type": "address"
        },
        {
          "internalType": "uint256",
          "name": "amount",
          "type": "uint256"
        }
      ],
      "name": "mint",
      "outputs": [
        {
          "internalType": "bool",
          "name": "",
          "type": "bool"
        }
      ],
      "stateMutability": "nonpayable",
      "type": "function"
    },
    {
      "inputs": [
        {
          "internalType": "address[]",
          "name": "recipients",
          "type": "address[]"
        },
        {
          "internalType": "uint256[]",
          "name": "amounts",
          "type": "uint256[]"
        }
      ],
      "name": "mintReward",
      "outputs": [
        {
          "internalType": "bool",
          "name": "",
          "type": "bool"
        }
      ],
      "stateMutability": "nonpayable",
      "type": "function"
    },
    {
      "inputs": [],
      "name": "name",
      "outputs": [
        {
          "internalType": "string",
          "name": "",
          "type": "string"
        }
      ],
      "stateMutability": "view",
      "type": "function"
    },
    {
      "inputs": [],
      "name": "owner",
      "outputs": [
        {
          "internalType": "address",
          "name": "",
          "type": "address"
        }
      ],
      "stateMutability": "view",
      "type": "function"
    },
    {
      "inputs": [],
      "name": "renounceOwnership",
      "outputs": [],
      "stateMutability": "nonpayable",
      "type": "function"
    },
    {
      "inputs": [
        {
          "internalType": "bytes32",
          "name": "role",
          "type": "bytes32"
        },
        {
          "internalType": "address",
          "name": "account",
          "type": "address"
        }
      ],
      "name": "renounceRole",
      "outputs": [],
      "stateMutability": "nonpayable",
      "type": "function"
    },
    {
      "inputs": [
        {
          "internalType": "address",
          "name": "admin",
          "type": "address"
        }
      ],
      "name": "revokeAdminRole",
      "outputs": [],
      "stateMutability": "nonpayable",
      "type": "function"
    },
    {
      "inputs": [
        {
          "internalType": "bytes32",
          "name": "role",
          "type": "bytes32"
        },
        {
          "internalType": "address",
          "name": "account",
          "type": "address"
        }
      ],
      "name": "revokeRole",
      "outputs": [],
      "stateMutability": "nonpayable",
      "type": "function"
    },
    {
      "inputs": [],
      "name": "snapshot",
      "outputs": [],
      "stateMutability": "nonpayable",
      "type": "function"
    },
    {
      "inputs": [],
      "name": "supply",
      "outputs": [
        {
          "internalType": "uint256",
          "name": "",
          "type": "uint256"
        }
      ],
      "stateMutability": "view",
      "type": "function"
    },
    {
      "inputs": [
        {
          "internalType": "bytes4",
          "name": "interfaceId",
          "type": "bytes4"
        }
      ],
      "name": "supportsInterface",
      "outputs": [
        {
          "internalType": "bool",
          "name": "",
          "type": "bool"
        }
      ],
      "stateMutability": "view",
      "type": "function"
    },
    {
      "inputs": [],
      "name": "symbol",
      "outputs": [
        {
          "internalType": "string",
          "name": "",
          "type": "string"
        }
      ],
      "stateMutability": "view",
      "type": "function"
    },
    {
      "inputs": [],
      "name": "totalSupply",
      "outputs": [
        {
          "internalType": "uint256",
          "name": "",
          "type": "uint256"
        }
      ],
      "stateMutability": "view",
      "type": "function"
    },
    {
      "inputs": [
        {
          "internalType": "uint256",
          "name": "snapshotId",
          "type": "uint256"
        }
      ],
      "name": "totalSupplyAt",
      "outputs": [
        {
          "internalType": "uint256",
          "name": "",
          "type": "uint256"
        }
      ],
      "stateMutability": "view",
      "type": "function"
    },
    {
      "inputs": [
        {
          "internalType": "address",
          "name": "to",
          "type": "address"
        },
        {
          "internalType": "uint256",
          "name": "amount",
          "type": "uint256"
        }
      ],
      "name": "transfer",
      "outputs": [
        {
          "internalType": "bool",
          "name": "",
          "type": "bool"
        }
      ],
      "stateMutability": "nonpayable",
      "type": "function"
    },
    {
      "inputs": [
        {
          "internalType": "address",
          "name": "from",
          "type": "address"
        },
        {
          "internalType": "address",
          "name": "to",
          "type": "address"
        },
        {
          "internalType": "uint256",
          "name": "amount",
          "type": "uint256"
        }
      ],
      "name": "transferFrom",
      "outputs": [
        {
          "internalType": "bool",
          "name": "",
          "type": "bool"
        }
      ],
      "stateMutability": "nonpayable",
      "type": "function"
    },
    {
      "inputs": [
        {
          "internalType": "address",
          "name": "newOwner",
          "type": "address"
        }
      ],
      "name": "transferOwnership",
      "outputs": [],
      "stateMutability": "nonpayable",
      "type": "function"
    }
  ],
  "bytecode": "0x60806040526a52b7d2dcc80cd2e4000000600b556aa56fa5b99019a5c8000000600c553480156200002f57600080fd5b506040518060400160405280600681526020017f53747265616c00000000000000000000000000000000000000000000000000008152506040518060400160405280600681526020017f53747265616c00000000000000000000000000000000000000000000000000008152508160039081620000ad919062000a5a565b508060049081620000bf919062000a5a565b505050620000e2620000d66200012e60201b60201c565b6200013660201b60201c565b620000f76000801b33620001fc60201b60201c565b6200010b33600c546200021260201b60201c565b600b54600c600082825462000121919062000b70565b9250508190555062000cc6565b600033905090565b6000600960009054906101000a900473ffffffffffffffffffffffffffffffffffffffff16905081600960006101000a81548173ffffffffffffffffffffffffffffffffffffffff021916908373ffffffffffffffffffffffffffffffffffffffff1602179055508173ffffffffffffffffffffffffffffffffffffffff168173ffffffffffffffffffffffffffffffffffffffff167f8be0079c531659141344cd1fd0a4f28419497f9722a3daafe3b4186f6b6457e060405160405180910390a35050565b6200020e82826200037f60201b60201c565b5050565b600073ffffffffffffffffffffffffffffffffffffffff168273ffffffffffffffffffffffffffffffffffffffff160362000284576040517f08c379a00000000000000000000000000000000000000000000000000000000081526004016200027b9062000c0c565b60405180910390fd5b62000298600083836200047160201b60201c565b8060026000828254620002ac919062000c2e565b92505081905550806000808473ffffffffffffffffffffffffffffffffffffffff1673ffffffffffffffffffffffffffffffffffffffff168152602001908152602001600020600082825401925050819055508173ffffffffffffffffffffffffffffffffffffffff16600073ffffffffffffffffffffffffffffffffffffffff167fddf252ad1be2c89b69c2b068fc378daa952ba7f163c4a11628f55a4df523b3ef836040516200035f919062000c7a565b60405180910390a36200037b600083836200048e60201b60201c565b5050565b6200039182826200049360201b60201c565b6200046d576001600a600084815260200190815260200160002060000160008373ffffffffffffffffffffffffffffffffffffffff1673ffffffffffffffffffffffffffffffffffffffff16815260200190815260200160002060006101000a81548160ff021916908315150217905550620004126200012e60201b60201c565b73ffffffffffffffffffffffffffffffffffffffff168173ffffffffffffffffffffffffffffffffffffffff16837f2f8788117e7eff1d82e926ec794901d17c78024a50270940304540a733656f0d60405160405180910390a45b5050565b62000489838383620004fe60201b620013ae1760201c565b505050565b505050565b6000600a600084815260200190815260200160002060000160008373ffffffffffffffffffffffffffffffffffffffff1673ffffffffffffffffffffffffffffffffffffffff16815260200190815260200160002060009054906101000a900460ff16905092915050565b62000516838383620005f760201b620014661760201c565b600073ffffffffffffffffffffffffffffffffffffffff168373ffffffffffffffffffffffffffffffffffffffff160362000572576200055c82620005fc60201b60201c565b6200056c6200065f60201b60201c565b620005f2565b600073ffffffffffffffffffffffffffffffffffffffff168273ffffffffffffffffffffffffffffffffffffffff1603620005ce57620005b883620005fc60201b60201c565b620005c86200065f60201b60201c565b620005f1565b620005df83620005fc60201b60201c565b620005f082620005fc60201b60201c565b5b5b505050565b505050565b6200065c600560008373ffffffffffffffffffffffffffffffffffffffff1673ffffffffffffffffffffffffffffffffffffffff16815260200190815260200160002062000650836200068360201b60201c565b620006cb60201b60201c565b50565b620006816006620006756200075760201b60201c565b620006cb60201b60201c565b565b60008060008373ffffffffffffffffffffffffffffffffffffffff1673ffffffffffffffffffffffffffffffffffffffff168152602001908152602001600020549050919050565b6000620006dd6200076160201b60201c565b905080620006f4846000016200077f60201b60201c565b1015620007525782600001819080600181540180825580915050600190039060005260206000200160009091909190915055826001018290806001815401808255809150506001900390600052602060002001600090919091909150555b505050565b6000600254905090565b60006200077a6008620007d260201b6200146b1760201c565b905090565b600080828054905003620007975760009050620007cd565b8160018380549050620007ab919062000b70565b81548110620007bf57620007be62000c97565b5b906000526020600020015490505b919050565b600081600001549050919050565b600081519050919050565b7f4e487b7100000000000000000000000000000000000000000000000000000000600052604160045260246000fd5b7f4e487b7100000000000000000000000000000000000000000000000000000000600052602260045260246000fd5b600060028204905060018216806200086257607f821691505b6020821081036200087857620008776200081a565b5b50919050565b60008190508160005260206000209050919050565b60006020601f8301049050919050565b600082821b905092915050565b600060088302620008e27fffffffffffffffffffffffffffffffffffffffffffffffffffffffffffffffff82620008a3565b620008ee8683620008a3565b95508019841693508086168417925050509392505050565b6000819050919050565b6000819050919050565b60006200093b620009356200092f8462000906565b62000910565b62000906565b9050919050565b6000819050919050565b62000957836200091a565b6200096f620009668262000942565b848454620008b0565b825550505050565b600090565b6200098662000977565b620009938184846200094c565b505050565b5b81811015620009bb57620009af6000826200097c565b60018101905062000999565b5050565b601f82111562000a0a57620009d4816200087e565b620009df8462000893565b81016020851015620009ef578190505b62000a07620009fe8562000893565b83018262000998565b50505b505050565b600082821c905092915050565b600062000a2f6000198460080262000a0f565b1980831691505092915050565b600062000a4a838362000a1c565b9150826002028217905092915050565b62000a6582620007e0565b67ffffffffffffffff81111562000a815762000a80620007eb565b5b62000a8d825462000849565b62000a9a828285620009bf565b600060209050601f83116001811462000ad2576000841562000abd578287015190505b62000ac9858262000a3c565b86555062000b39565b601f19841662000ae2866200087e565b60005b8281101562000b0c5784890151825560018201915060208501945060208101905062000ae5565b8683101562000b2c578489015162000b28601f89168262000a1c565b8355505b6001600288020188555050505b505050505050565b7f4e487b7100000000000000000000000000000000000000000000000000000000600052601160045260246000fd5b600062000b7d8262000906565b915062000b8a8362000906565b925082820390508181111562000ba55762000ba462000b41565b5b92915050565b600082825260208201905092915050565b7f45524332303a206d696e7420746f20746865207a65726f206164647265737300600082015250565b600062000bf4601f8362000bab565b915062000c018262000bbc565b602082019050919050565b6000602082019050818103600083015262000c278162000be5565b9050919050565b600062000c3b8262000906565b915062000c488362000906565b925082820190508082111562000c635762000c6262000b41565b5b92915050565b62000c748162000906565b82525050565b600060208201905062000c91600083018462000c69565b92915050565b7f4e487b7100000000000000000000000000000000000000000000000000000000600052603260045260246000fd5b613ca68062000cd66000396000f3fe608060405234801561001057600080fd5b50600436106102115760003560e01c8063715018a611610125578063a217fddf116100ad578063d547741f1161007c578063d547741f14610662578063dd62ed3e1461067e578063e2f764a3146106ae578063f2fde38b146106de578063ff513591146106fa57610211565b8063a217fddf146105c8578063a457c2d7146105e6578063a9059cbb14610616578063c634b78e1461064657610211565b806391d14854116100f457806391d148541461052457806395d89b41146105545780639711715a14610572578063981b24d01461057c5780639a19c7b0146105ac57610211565b8063715018a6146104c257806375b238fc146104cc57806379cc6790146104ea5780638da5cb5b1461050657610211565b80632f2ff15d116101a857806340c10f191161017757806340c10f19146103e657806342966c68146104165780634ee2cd7e14610432578063672434821461046257806370a082311461049257610211565b80632f2ff15d14610360578063313ce5671461037c57806336568abe1461039a57806339509351146103b657610211565b806318160ddd116101e457806318160ddd146102b257806323b872dd146102d0578063248a9ca31461030057806324d7806c1461033057610211565b806301ffc9a714610216578063047fc9aa1461024657806306fdde0314610264578063095ea7b314610282575b600080fd5b610230600480360381019061022b9190612722565b610718565b60405161023d919061276a565b60405180910390f35b61024e610792565b60405161025b919061279e565b60405180910390f35b61026c610798565b6040516102799190612849565b60405180910390f35b61029c600480360381019061029791906128f5565b61082a565b6040516102a9919061276a565b60405180910390f35b6102ba61084d565b6040516102c7919061279e565b60405180910390f35b6102ea60048036038101906102e59190612935565b610857565b6040516102f7919061276a565b60405180910390f35b61031a600480360381019061031591906129be565b610886565b60405161032791906129fa565b60405180910390f35b61034a60048036038101906103459190612a15565b6108a6565b604051610357919061276a565b60405180910390f35b61037a60048036038101906103759190612a42565b6108d9565b005b6103846108fa565b6040516103919190612a9e565b60405180910390f35b6103b460048036038101906103af9190612a42565b610903565b005b6103d060048036038101906103cb91906128f5565b610986565b6040516103dd919061276a565b60405180910390f35b61040060048036038101906103fb91906128f5565b6109bd565b60405161040d919061276a565b60405180910390f35b610430600480360381019061042b9190612ab9565b610ab1565b005b61044c600480360381019061044791906128f5565b610b7b565b604051610459919061279e565b60405180910390f35b61047c60048036038101906104779190612cf1565b610beb565b604051610489919061276a565b60405180910390f35b6104ac60048036038101906104a79190612a15565b610de6565b6040516104b9919061279e565b60405180910390f35b6104ca610e2e565b005b6104d4610e42565b6040516104e191906129fa565b60405180910390f35b61050460048036038101906104ff91906128f5565b610e66565b005b61050e610e86565b60405161051b9190612d78565b60405180910390f35b61053e60048036038101906105399190612a42565b610eb0565b60405161054b919061276a565b60405180910390f35b61055c610f1b565b6040516105699190612849565b60405180910390f35b61057a610fad565b005b61059660048036038101906105919190612ab9565b610fc0565b6040516105a3919061279e565b60405180910390f35b6105c660048036038101906105c19190612a15565b610ff1565b005b6105d061102c565b6040516105dd91906129fa565b60405180910390f35b61060060048036038101906105fb91906128f5565b611033565b60405161060d919061276a565b60405180910390f35b610630600480360381019061062b91906128f5565b6110aa565b60405161063d919061276a565b60405180910390f35b610660600480360381019061065b9190612a15565b6110cd565b005b61067c60048036038101906106779190612a42565b611108565b005b61069860048036038101906106939190612d93565b611129565b6040516106a5919061279e565b60405180910390f35b6106c860048036038101906106c39190612cf1565b6111b0565b6040516106d5919061276a565b60405180910390f35b6106f860048036038101906106f39190612a15565b611325565b005b6107026113a8565b60405161070f919061279e565b60405180910390f35b60007f7965db0b000000000000000000000000000000000000000000000000000000007bffffffffffffffffffffffffffffffffffffffffffffffffffffffff1916827bffffffffffffffffffffffffffffffffffffffffffffffffffffffff1916148061078b575061078a82611479565b5b9050919050565b600c5481565b6060600380546107a790612e02565b80601f01602080910402602001604051908101604052809291908181526020018280546107d390612e02565b80156108205780601f106107f557610100808354040283529160200191610820565b820191906000526020600020905b81548152906001019060200180831161080357829003601f168201915b5050505050905090565b6000806108356114e3565b90506108428185856114eb565b600191505092915050565b6000600254905090565b6000806108626114e3565b905061086f8582856116b4565b61087a858585611740565b60019150509392505050565b6000600a6000838152602001908152602001600020600101549050919050565b60006108d27fa49807205ce4d355092ef5a8a18f56e8913cf4a201fbe287825b095693c2177583610eb0565b9050919050565b6108e282610886565b6108eb816119b6565b6108f583836119ca565b505050565b60006012905090565b61090b6114e3565b73ffffffffffffffffffffffffffffffffffffffff168173ffffffffffffffffffffffffffffffffffffffff1614610978576040517f08c379a000000000000000000000000000000000000000000000000000000000815260040161096f90612ea5565b60405180910390fd5b6109828282611aab565b5050565b6000806109916114e3565b90506109b28185856109a38589611129565b6109ad9190612ef4565b6114eb565b600191505092915050565b60007fa49807205ce4d355092ef5a8a18f56e8913cf4a201fbe287825b095693c217756109e9816119b6565b600073ffffffffffffffffffffffffffffffffffffffff168473ffffffffffffffffffffffffffffffffffffffff1603610a58576040517f08c379a0000000000000000000000000000000000000000000000000000000008152600401610a4f90612f74565b60405180910390fd5b6000831015610a9c576040517f08c379a0000000000000000000000000000000000000000000000000000000008152600401610a9390612fe0565b60405180910390fd5b610aa68484611b8d565b600191505092915050565b7fa49807205ce4d355092ef5a8a18f56e8913cf4a201fbe287825b095693c21775610adb816119b6565b6000610ae633610de6565b905060008311610b2b576040517f08c379a0000000000000000000000000000000000000000000000000000000008152600401610b2290612fe0565b60405180910390fd5b828111610b6d576040517f08c379a0000000000000000000000000000000000000000000000000000000008152600401610b649061304c565b60405180910390fd5b610b7683611ce3565b505050565b6000806000610bc884600560008873ffffffffffffffffffffffffffffffffffffffff1673ffffffffffffffffffffffffffffffffffffffff168152602001908152602001600020611cf7565b9150915081610bdf57610bda85610de6565b610be1565b805b9250505092915050565b6000610bf5611dec565b8151835114610c39576040517f08c379a0000000000000000000000000000000000000000000000000000000008152600401610c30906130b8565b60405180910390fd5b6000805b8451811015610d0a57600073ffffffffffffffffffffffffffffffffffffffff16858281518110610c7157610c706130d8565b5b602002602001015173ffffffffffffffffffffffffffffffffffffffff1603610ccf576040517f08c379a0000000000000000000000000000000000000000000000000000000008152600401610cc690613153565b60405180910390fd5b838181518110610ce257610ce16130d8565b5b602002602001015182610cf59190612ef4565b91508080610d0290613173565b915050610c3d565b50600b54811115610d50576040517f08c379a0000000000000000000000000000000000000000000000000000000008152600401610d4790613207565b60405180910390fd5b60005b8451811015610dc157610dad858281518110610d7257610d716130d8565b5b6020026020010151670de0b6b3a7640000868481518110610d9657610d956130d8565b5b6020026020010151610da89190613227565b6110aa565b508080610db990613173565b915050610d53565b5080600b6000828254610dd49190613269565b92505081905550600191505092915050565b60008060008373ffffffffffffffffffffffffffffffffffffffff1673ffffffffffffffffffffffffffffffffffffffff168152602001908152602001600020549050919050565b610e36611dec565b610e406000611e6a565b565b7fa49807205ce4d355092ef5a8a18f56e8913cf4a201fbe287825b095693c2177581565b610e7882610e726114e3565b836116b4565b610e828282611f30565b5050565b6000600960009054906101000a900473ffffffffffffffffffffffffffffffffffffffff16905090565b6000600a600084815260200190815260200160002060000160008373ffffffffffffffffffffffffffffffffffffffff1673ffffffffffffffffffffffffffffffffffffffff16815260200190815260200160002060009054906101000a900460ff16905092915050565b606060048054610f2a90612e02565b80601f0160208091040260200160405190810160405280929190818152602001828054610f5690612e02565b8015610fa35780601f10610f7857610100808354040283529160200191610fa3565b820191906000526020600020905b815481529060010190602001808311610f8657829003601f168201915b5050505050905090565b610fb5611dec565b610fbd6120fd565b50565b6000806000610fd0846006611cf7565b9150915081610fe657610fe161084d565b610fe8565b805b92505050919050565b6000801b610ffe816119b6565b6110287fa49807205ce4d355092ef5a8a18f56e8913cf4a201fbe287825b095693c2177583611108565b5050565b6000801b81565b60008061103e6114e3565b9050600061104c8286611129565b905083811015611091576040517f08c379a00000000000000000000000000000000000000000000000000000000081526004016110889061330f565b60405180910390fd5b61109e82868684036114eb565b60019250505092915050565b6000806110b56114e3565b90506110c2818585611740565b600191505092915050565b6000801b6110da816119b6565b6111047fa49807205ce4d355092ef5a8a18f56e8913cf4a201fbe287825b095693c21775836108d9565b5050565b61111182610886565b61111a816119b6565b6111248383611aab565b505050565b6000600160008473ffffffffffffffffffffffffffffffffffffffff1673ffffffffffffffffffffffffffffffffffffffff16815260200190815260200160002060008373ffffffffffffffffffffffffffffffffffffffff1673ffffffffffffffffffffffffffffffffffffffff16815260200190815260200160002054905092915050565b60006111ba611dec565b81518351146111fe576040517f08c379a00000000000000000000000000000000000000000000000000000000081526004016111f5906133a1565b60405180910390fd5b60005b835181101561131a57600084828151811061121f5761121e6130d8565b5b60200260200101519050600084838151811061123e5761123d6130d8565b5b60200260200101519050600073ffffffffffffffffffffffffffffffffffffffff168273ffffffffffffffffffffffffffffffffffffffff16036112b7576040517f08c379a00000000000000000000000000000000000000000000000000000000081526004016112ae90612f74565b60405180910390fd5b60008110156112fb576040517f08c379a00000000000000000000000000000000000000000000000000000000081526004016112f290612fe0565b60405180910390fd5b6113058282611b8d565b5050808061131290613173565b915050611201565b506001905092915050565b61132d611dec565b600073ffffffffffffffffffffffffffffffffffffffff168173ffffffffffffffffffffffffffffffffffffffff160361139c576040517f08c379a000000000000000000000000000000000000000000000000000000000815260040161139390613433565b60405180910390fd5b6113a581611e6a565b50565b600b5481565b6113b9838383611466565b600073ffffffffffffffffffffffffffffffffffffffff168373ffffffffffffffffffffffffffffffffffffffff1603611403576113f682612153565b6113fe6121a6565b611461565b600073ffffffffffffffffffffffffffffffffffffffff168273ffffffffffffffffffffffffffffffffffffffff160361144d5761144083612153565b6114486121a6565b611460565b61145683612153565b61145f82612153565b5b5b505050565b505050565b600081600001549050919050565b60007f01ffc9a7000000000000000000000000000000000000000000000000000000007bffffffffffffffffffffffffffffffffffffffffffffffffffffffff1916827bffffffffffffffffffffffffffffffffffffffffffffffffffffffff1916149050919050565b600033905090565b600073ffffffffffffffffffffffffffffffffffffffff168373ffffffffffffffffffffffffffffffffffffffff160361155a576040517f08c379a0000000000000000000000000000000000000000000000000000000008152600401611551906134c5565b60405180910390fd5b600073ffffffffffffffffffffffffffffffffffffffff168273ffffffffffffffffffffffffffffffffffffffff16036115c9576040517f08c379a00000000000000000000000000000000000000000000000000000000081526004016115c090613557565b60405180910390fd5b80600160008573ffffffffffffffffffffffffffffffffffffffff1673ffffffffffffffffffffffffffffffffffffffff16815260200190815260200160002060008473ffffffffffffffffffffffffffffffffffffffff1673ffffffffffffffffffffffffffffffffffffffff168152602001908152602001600020819055508173ffffffffffffffffffffffffffffffffffffffff168373ffffffffffffffffffffffffffffffffffffffff167f8c5be1e5ebec7d5bd14f71427d1e84f3dd0314c0f7b2291e5b200ac8c7c3b925836040516116a7919061279e565b60405180910390a3505050565b60006116c08484611129565b90507fffffffffffffffffffffffffffffffffffffffffffffffffffffffffffffffff811461173a578181101561172c576040517f08c379a0000000000000000000000000000000000000000000000000000000008152600401611723906135c3565b60405180910390fd5b61173984848484036114eb565b5b50505050565b600073ffffffffffffffffffffffffffffffffffffffff168373ffffffffffffffffffffffffffffffffffffffff16036117af576040517f08c379a00000000000000000000000000000000000000000000000000000000081526004016117a690613655565b60405180910390fd5b600073ffffffffffffffffffffffffffffffffffffffff168273ffffffffffffffffffffffffffffffffffffffff160361181e576040517f08c379a0000000000000000000000000000000000000000000000000000000008152600401611815906136e7565b60405180910390fd5b6118298383836121ba565b60008060008573ffffffffffffffffffffffffffffffffffffffff1673ffffffffffffffffffffffffffffffffffffffff168152602001908152602001600020549050818110156118af576040517f08c379a00000000000000000000000000000000000000000000000000000000081526004016118a690613779565b60405180910390fd5b8181036000808673ffffffffffffffffffffffffffffffffffffffff1673ffffffffffffffffffffffffffffffffffffffff16815260200190815260200160002081905550816000808573ffffffffffffffffffffffffffffffffffffffff1673ffffffffffffffffffffffffffffffffffffffff168152602001908152602001600020600082825401925050819055508273ffffffffffffffffffffffffffffffffffffffff168473ffffffffffffffffffffffffffffffffffffffff167fddf252ad1be2c89b69c2b068fc378daa952ba7f163c4a11628f55a4df523b3ef8460405161199d919061279e565b60405180910390a36119b08484846121ca565b50505050565b6119c7816119c26114e3565b6121cf565b50565b6119d48282610eb0565b611aa7576001600a600084815260200190815260200160002060000160008373ffffffffffffffffffffffffffffffffffffffff1673ffffffffffffffffffffffffffffffffffffffff16815260200190815260200160002060006101000a81548160ff021916908315150217905550611a4c6114e3565b73ffffffffffffffffffffffffffffffffffffffff168173ffffffffffffffffffffffffffffffffffffffff16837f2f8788117e7eff1d82e926ec794901d17c78024a50270940304540a733656f0d60405160405180910390a45b5050565b611ab58282610eb0565b15611b89576000600a600084815260200190815260200160002060000160008373ffffffffffffffffffffffffffffffffffffffff1673ffffffffffffffffffffffffffffffffffffffff16815260200190815260200160002060006101000a81548160ff021916908315150217905550611b2e6114e3565b73ffffffffffffffffffffffffffffffffffffffff168173ffffffffffffffffffffffffffffffffffffffff16837ff6391f5c32d9c69d2a47ea670b442974b53935d1edc7fd64eb21e047a839171b60405160405180910390a45b5050565b600073ffffffffffffffffffffffffffffffffffffffff168273ffffffffffffffffffffffffffffffffffffffff1603611bfc576040517f08c379a0000000000000000000000000000000000000000000000000000000008152600401611bf3906137e5565b60405180910390fd5b611c08600083836121ba565b8060026000828254611c1a9190612ef4565b92505081905550806000808473ffffffffffffffffffffffffffffffffffffffff1673ffffffffffffffffffffffffffffffffffffffff168152602001908152602001600020600082825401925050819055508173ffffffffffffffffffffffffffffffffffffffff16600073ffffffffffffffffffffffffffffffffffffffff167fddf252ad1be2c89b69c2b068fc378daa952ba7f163c4a11628f55a4df523b3ef83604051611ccb919061279e565b60405180910390a3611cdf600083836121ca565b5050565b611cf4611cee6114e3565b82611f30565b50565b60008060008411611d3d576040517f08c379a0000000000000000000000000000000000000000000000000000000008152600401611d3490613851565b60405180910390fd5b611d45612254565b841115611d87576040517f08c379a0000000000000000000000000000000000000000000000000000000008152600401611d7e906138bd565b60405180910390fd5b6000611d9f858560000161226590919063ffffffff16565b905083600001805490508103611dbc576000809250925050611de5565b6001846001018281548110611dd457611dd36130d8565b5b906000526020600020015492509250505b9250929050565b611df46114e3565b73ffffffffffffffffffffffffffffffffffffffff16611e12610e86565b73ffffffffffffffffffffffffffffffffffffffff1614611e68576040517f08c379a0000000000000000000000000000000000000000000000000000000008152600401611e5f90613929565b60405180910390fd5b565b6000600960009054906101000a900473ffffffffffffffffffffffffffffffffffffffff16905081600960006101000a81548173ffffffffffffffffffffffffffffffffffffffff021916908373ffffffffffffffffffffffffffffffffffffffff1602179055508173ffffffffffffffffffffffffffffffffffffffff168173ffffffffffffffffffffffffffffffffffffffff167f8be0079c531659141344cd1fd0a4f28419497f9722a3daafe3b4186f6b6457e060405160405180910390a35050565b600073ffffffffffffffffffffffffffffffffffffffff168273ffffffffffffffffffffffffffffffffffffffff1603611f9f576040517f08c379a0000000000000000000000000000000000000000000000000000000008152600401611f96906139bb565b60405180910390fd5b611fab826000836121ba565b60008060008473ffffffffffffffffffffffffffffffffffffffff1673ffffffffffffffffffffffffffffffffffffffff16815260200190815260200160002054905081811015612031576040517f08c379a000000000000000000000000000000000000000000000000000000000815260040161202890613a4d565b60405180910390fd5b8181036000808573ffffffffffffffffffffffffffffffffffffffff1673ffffffffffffffffffffffffffffffffffffffff1681526020019081526020016000208190555081600260008282540392505081905550600073ffffffffffffffffffffffffffffffffffffffff168373ffffffffffffffffffffffffffffffffffffffff167fddf252ad1be2c89b69c2b068fc378daa952ba7f163c4a11628f55a4df523b3ef846040516120e4919061279e565b60405180910390a36120f8836000846121ca565b505050565b6000612109600861231e565b6000612113612254565b90507f8030e83b04d87bef53480e26263266d6ca66863aa8506aca6f2559d18aa1cb6781604051612144919061279e565b60405180910390a18091505090565b6121a3600560008373ffffffffffffffffffffffffffffffffffffffff1673ffffffffffffffffffffffffffffffffffffffff16815260200190815260200160002061219e83610de6565b612334565b50565b6121b860066121b361084d565b612334565b565b6121c58383836113ae565b505050565b505050565b6121d98282610eb0565b612250576121e6816123af565b6121f48360001c60206123dc565b604051602001612205929190613b41565b6040516020818303038152906040526040517f08c379a00000000000000000000000000000000000000000000000000000000081526004016122479190612849565b60405180910390fd5b5050565b6000612260600861146b565b905090565b60008083805490500361227b5760009050612318565b600080848054905090505b808210156122cf57600061229a8383612618565b9050846122a7878361263e565b6000015411156122b9578091506122c9565b6001816122c69190612ef4565b92505b50612286565b6000821180156122f75750836122f1866001856122ec9190613269565b61263e565b60000154145b15612312576001826123099190613269565b92505050612318565b81925050505b92915050565b6001816000016000828254019250508190555050565b600061233e612254565b90508061234d84600001612660565b10156123aa5782600001819080600181540180825580915050600190039060005260206000200160009091909190915055826001018290806001815401808255809150506001900390600052602060002001600090919091909150555b505050565b60606123d58273ffffffffffffffffffffffffffffffffffffffff16601460ff166123dc565b9050919050565b6060600060028360026123ef9190613227565b6123f99190612ef4565b67ffffffffffffffff81111561241257612411612aeb565b5b6040519080825280601f01601f1916602001820160405280156124445781602001600182028036833780820191505090505b5090507f30000000000000000000000000000000000000000000000000000000000000008160008151811061247c5761247b6130d8565b5b60200101907effffffffffffffffffffffffffffffffffffffffffffffffffffffffffffff1916908160001a9053507f7800000000000000000000000000000000000000000000000000000000000000816001815181106124e0576124df6130d8565b5b60200101907effffffffffffffffffffffffffffffffffffffffffffffffffffffffffffff1916908160001a905350600060018460026125209190613227565b61252a9190612ef4565b90505b60018111156125ca577f3031323334353637383961626364656600000000000000000000000000000000600f86166010811061256c5761256b6130d8565b5b1a60f81b828281518110612583576125826130d8565b5b60200101907effffffffffffffffffffffffffffffffffffffffffffffffffffffffffffff1916908160001a905350600485901c9450806125c390613b7b565b905061252d565b506000841461260e576040517f08c379a000000000000000000000000000000000000000000000000000000000815260040161260590613bf0565b60405180910390fd5b8091505092915050565b600060028284186126299190613c3f565b8284166126369190612ef4565b905092915050565b60008083600052826020600020019050612657816126ac565b91505092915050565b60008082805490500361267657600090506126a7565b81600183805490506126889190613269565b81548110612699576126986130d8565b5b906000526020600020015490505b919050565b6000819050919050565b6000604051905090565b600080fd5b600080fd5b60007fffffffff0000000000000000000000000000000000000000000000000000000082169050919050565b6126ff816126ca565b811461270a57600080fd5b50565b60008135905061271c816126f6565b92915050565b600060208284031215612738576127376126c0565b5b60006127468482850161270d565b91505092915050565b60008115159050919050565b6127648161274f565b82525050565b600060208201905061277f600083018461275b565b92915050565b6000819050919050565b61279881612785565b82525050565b60006020820190506127b3600083018461278f565b92915050565b600081519050919050565b600082825260208201905092915050565b60005b838110156127f35780820151818401526020810190506127d8565b60008484015250505050565b6000601f19601f8301169050919050565b600061281b826127b9565b61282581856127c4565b93506128358185602086016127d5565b61283e816127ff565b840191505092915050565b600060208201905081810360008301526128638184612810565b905092915050565b600073ffffffffffffffffffffffffffffffffffffffff82169050919050565b60006128968261286b565b9050919050565b6128a68161288b565b81146128b157600080fd5b50565b6000813590506128c38161289d565b92915050565b6128d281612785565b81146128dd57600080fd5b50565b6000813590506128ef816128c9565b92915050565b6000806040838503121561290c5761290b6126c0565b5b600061291a858286016128b4565b925050602061292b858286016128e0565b9150509250929050565b60008060006060848603121561294e5761294d6126c0565b5b600061295c868287016128b4565b935050602061296d868287016128b4565b925050604061297e868287016128e0565b9150509250925092565b6000819050919050565b61299b81612988565b81146129a657600080fd5b50565b6000813590506129b881612992565b92915050565b6000602082840312156129d4576129d36126c0565b5b60006129e2848285016129a9565b91505092915050565b6129f481612988565b82525050565b6000602082019050612a0f60008301846129eb565b92915050565b600060208284031215612a2b57612a2a6126c0565b5b6000612a39848285016128b4565b91505092915050565b60008060408385031215612a5957612a586126c0565b5b6000612a67858286016129a9565b9250506020612a78858286016128b4565b9150509250929050565b600060ff82169050919050565b612a9881612a82565b82525050565b6000602082019050612ab36000830184612a8f565b92915050565b600060208284031215612acf57612ace6126c0565b5b6000612add848285016128e0565b91505092915050565b600080fd5b7f4e487b7100000000000000000000000000000000000000000000000000000000600052604160045260246000fd5b612b23826127ff565b810181811067ffffffffffffffff82111715612b4257612b41612aeb565b5b80604052505050565b6000612b556126b6565b9050612b618282612b1a565b919050565b600067ffffffffffffffff821115612b8157612b80612aeb565b5b602082029050602081019050919050565b600080fd5b6000612baa612ba584612b66565b612b4b565b90508083825260208201905060208402830185811115612bcd57612bcc612b92565b5b835b81811015612bf65780612be288826128b4565b845260208401935050602081019050612bcf565b5050509392505050565b600082601f830112612c1557612c14612ae6565b5b8135612c25848260208601612b97565b91505092915050565b600067ffffffffffffffff821115612c4957612c48612aeb565b5b602082029050602081019050919050565b6000612c6d612c6884612c2e565b612b4b565b90508083825260208201905060208402830185811115612c9057612c8f612b92565b5b835b81811015612cb95780612ca588826128e0565b845260208401935050602081019050612c92565b5050509392505050565b600082601f830112612cd857612cd7612ae6565b5b8135612ce8848260208601612c5a565b91505092915050565b60008060408385031215612d0857612d076126c0565b5b600083013567ffffffffffffffff811115612d2657612d256126c5565b5b612d3285828601612c00565b925050602083013567ffffffffffffffff811115612d5357612d526126c5565b5b612d5f85828601612cc3565b9150509250929050565b612d728161288b565b82525050565b6000602082019050612d8d6000830184612d69565b92915050565b60008060408385031215612daa57612da96126c0565b5b6000612db8858286016128b4565b9250506020612dc9858286016128b4565b9150509250929050565b7f4e487b7100000000000000000000000000000000000000000000000000000000600052602260045260246000fd5b60006002820490506001821680612e1a57607f821691505b602082108103612e2d57612e2c612dd3565b5b50919050565b7f416363657373436f6e74726f6c3a2063616e206f6e6c792072656e6f756e636560008201527f20726f6c657320666f722073656c660000000000000000000000000000000000602082015250565b6000612e8f602f836127c4565b9150612e9a82612e33565b604082019050919050565b60006020820190508181036000830152612ebe81612e82565b9050919050565b7f4e487b7100000000000000000000000000000000000000000000000000000000600052601160045260246000fd5b6000612eff82612785565b9150612f0a83612785565b9250828201905080821115612f2257612f21612ec5565b5b92915050565b7f696e76616c696420616464726573730000000000000000000000000000000000600082015250565b6000612f5e600f836127c4565b9150612f6982612f28565b602082019050919050565b60006020820190508181036000830152612f8d81612f51565b9050919050565b7f616d6f756e74206d757374206265206d6f7265207468616e207a65726f000000600082015250565b6000612fca601d836127c4565b9150612fd582612f94565b602082019050919050565b60006020820190508181036000830152612ff981612fbd565b9050919050565b7f6275726e61626c6520657863656564732062616c616e63650000000000000000600082015250565b60006130366018836127c4565b915061304182613000565b602082019050919050565b6000602082019050818103600083015261306581613029565b9050919050565b7f496e76616c696420696e70757420617272617973000000000000000000000000600082015250565b60006130a26014836127c4565b91506130ad8261306c565b602082019050919050565b600060208201905081810360008301526130d181613095565b9050919050565b7f4e487b7100000000000000000000000000000000000000000000000000000000600052603260045260246000fd5b7f496e76616c696420726563697069656e74206164647265737300000000000000600082015250565b600061313d6019836127c4565b915061314882613107565b602082019050919050565b6000602082019050818103600083015261316c81613130565b9050919050565b600061317e82612785565b91507fffffffffffffffffffffffffffffffffffffffffffffffffffffffffffffffff82036131b0576131af612ec5565b5b600182019050919050565b7f496e73756666696369656e742061697264726f702062616c616e636500000000600082015250565b60006131f1601c836127c4565b91506131fc826131bb565b602082019050919050565b60006020820190508181036000830152613220816131e4565b9050919050565b600061323282612785565b915061323d83612785565b925082820261324b81612785565b9150828204841483151761326257613261612ec5565b5b5092915050565b600061327482612785565b915061327f83612785565b925082820390508181111561329757613296612ec5565b5b92915050565b7f45524332303a2064656372656173656420616c6c6f77616e63652062656c6f7760008201527f207a65726f000000000000000000000000000000000000000000000000000000602082015250565b60006132f96025836127c4565b91506133048261329d565b604082019050919050565b60006020820190508181036000830152613328816132ec565b9050919050565b7f726563697069656e747320616e6420616d6f756e747320617272617973206d7560008201527f73742068617665207468652073616d65206c656e677468000000000000000000602082015250565b600061338b6037836127c4565b91506133968261332f565b604082019050919050565b600060208201905081810360008301526133ba8161337e565b9050919050565b7f4f776e61626c653a206e6577206f776e657220697320746865207a65726f206160008201527f6464726573730000000000000000000000000000000000000000000000000000602082015250565b600061341d6026836127c4565b9150613428826133c1565b604082019050919050565b6000602082019050818103600083015261344c81613410565b9050919050565b7f45524332303a20617070726f76652066726f6d20746865207a65726f2061646460008201527f7265737300000000000000000000000000000000000000000000000000000000602082015250565b60006134af6024836127c4565b91506134ba82613453565b604082019050919050565b600060208201905081810360008301526134de816134a2565b9050919050565b7f45524332303a20617070726f766520746f20746865207a65726f20616464726560008201527f7373000000000000000000000000000000000000000000000000000000000000602082015250565b60006135416022836127c4565b915061354c826134e5565b604082019050919050565b6000602082019050818103600083015261357081613534565b9050919050565b7f45524332303a20696e73756666696369656e7420616c6c6f77616e6365000000600082015250565b60006135ad601d836127c4565b91506135b882613577565b602082019050919050565b600060208201905081810360008301526135dc816135a0565b9050919050565b7f45524332303a207472616e736665722066726f6d20746865207a65726f20616460008201527f6472657373000000000000000000000000000000000000000000000000000000602082015250565b600061363f6025836127c4565b915061364a826135e3565b604082019050919050565b6000602082019050818103600083015261366e81613632565b9050919050565b7f45524332303a207472616e7366657220746f20746865207a65726f206164647260008201527f6573730000000000000000000000000000000000000000000000000000000000602082015250565b60006136d16023836127c4565b91506136dc82613675565b604082019050919050565b60006020820190508181036000830152613700816136c4565b9050919050565b7f45524332303a207472616e7366657220616d6f756e742065786365656473206260008201527f616c616e63650000000000000000000000000000000000000000000000000000602082015250565b60006137636026836127c4565b915061376e82613707565b604082019050919050565b6000602082019050818103600083015261379281613756565b9050919050565b7f45524332303a206d696e7420746f20746865207a65726f206164647265737300600082015250565b60006137cf601f836127c4565b91506137da82613799565b602082019050919050565b600060208201905081810360008301526137fe816137c2565b9050919050565b7f4552433230536e617073686f743a206964206973203000000000000000000000600082015250565b600061383b6016836127c4565b915061384682613805565b602082019050919050565b6000602082019050818103600083015261386a8161382e565b9050919050565b7f4552433230536e617073686f743a206e6f6e6578697374656e74206964000000600082015250565b60006138a7601d836127c4565b91506138b282613871565b602082019050919050565b600060208201905081810360008301526138d68161389a565b9050919050565b7f4f776e61626c653a2063616c6c6572206973206e6f7420746865206f776e6572600082015250565b60006139136020836127c4565b915061391e826138dd565b602082019050919050565b6000602082019050818103600083015261394281613906565b9050919050565b7f45524332303a206275726e2066726f6d20746865207a65726f2061646472657360008201527f7300000000000000000000000000000000000000000000000000000000000000602082015250565b60006139a56021836127c4565b91506139b082613949565b604082019050919050565b600060208201905081810360008301526139d481613998565b9050919050565b7f45524332303a206275726e20616d6f756e7420657863656564732062616c616e60008201527f6365000000000000000000000000000000000000000000000000000000000000602082015250565b6000613a376022836127c4565b9150613a42826139db565b604082019050919050565b60006020820190508181036000830152613a6681613a2a565b9050919050565b600081905092915050565b7f416363657373436f6e74726f6c3a206163636f756e7420000000000000000000600082015250565b6000613aae601783613a6d565b9150613ab982613a78565b601782019050919050565b6000613acf826127b9565b613ad98185613a6d565b9350613ae98185602086016127d5565b80840191505092915050565b7f206973206d697373696e6720726f6c6520000000000000000000000000000000600082015250565b6000613b2b601183613a6d565b9150613b3682613af5565b601182019050919050565b6000613b4c82613aa1565b9150613b588285613ac4565b9150613b6382613b1e565b9150613b6f8284613ac4565b91508190509392505050565b6000613b8682612785565b915060008203613b9957613b98612ec5565b5b600182039050919050565b7f537472696e67733a20686578206c656e67746820696e73756666696369656e74600082015250565b6000613bda6020836127c4565b9150613be582613ba4565b602082019050919050565b60006020820190508181036000830152613c0981613bcd565b9050919050565b7f4e487b7100000000000000000000000000000000000000000000000000000000600052601260045260246000fd5b6000613c4a82612785565b9150613c5583612785565b925082613c6557613c64613c10565b5b82820490509291505056fea264697066735822122064ee79bab772e2f2755c12802df9d4af588d7f4f79c7558bc23f189bc8dbab0e64736f6c63430008120033",
  "linkReferences": {},
  "deployedLinkReferences": {}
}