{
  "_format": "hh-sol-artifact-1",
  "contractName": "StrealEngine",
  "sourceName": "contracts/strealEngine.sol",
  "abi": [
    {
      "inputs": [],
      "stateMutability": "nonpayable",
      "type": "constructor"
    },
    {
      "anonymous": false,
      "inputs": [
        {
          "indexed": true,
          "internalType": "address",
          "name": "previousOwner",
          "type": "address"
        },
        {
          "indexed": true,
          "internalType": "address",
          "name": "newOwner",
          "type": "address"
        }
      ],
      "name": "OwnershipTransferred",
      "type": "event"
    },
    {
      "anonymous": false,
      "inputs": [
        {
          "indexed": true,
          "internalType": "address",
          "name": "user",
          "type": "address"
        },
        {
          "indexed": true,
          "internalType": "address",
          "name": "token",
          "type": "address"
        },
        {
          "indexed": false,
          "internalType": "uint256",
          "name": "amount",
          "type": "uint256"
        }
      ],
      "name": "collateralDeposited",
      "type": "event"
    },
    {
      "inputs": [],
      "name": "Liquidation_bonus",
      "outputs": [
        {
          "internalType": "uint256",
          "name": "",
          "type": "uint256"
        }
      ],
      "stateMutability": "view",
      "type": "function"
    },
    {
      "inputs": [
        {
          "internalType": "address",
          "name": "",
          "type": "address"
        },
        {
          "internalType": "address",
          "name": "",
          "type": "address"
        }
      ],
      "name": "_collateralDeposited",
      "outputs": [
        {
          "internalType": "uint256",
          "name": "",
          "type": "uint256"
        }
      ],
      "stateMutability": "view",
      "type": "function"
    },
    {
      "inputs": [
        {
          "internalType": "uint256",
          "name": "",
          "type": "uint256"
        }
      ],
      "name": "_collateralTokens",
      "outputs": [
        {
          "internalType": "address",
          "name": "",
          "type": "address"
        }
      ],
      "stateMutability": "view",
      "type": "function"
    },
    {
      "inputs": [
        {
          "internalType": "address",
          "name": "collateralAddress",
          "type": "address"
        },
        {
          "internalType": "uint256",
          "name": "AmountCollateral",
          "type": "uint256"
        }
      ],
      "name": "approveAnddepositCollateral",
      "outputs": [],
      "stateMutability": "nonpayable",
      "type": "function"
    },
    {
      "inputs": [],
      "name": "balance",
      "outputs": [
        {
          "internalType": "uint256[]",
          "name": "",
          "type": "uint256[]"
        }
      ],
      "stateMutability": "view",
      "type": "function"
    },
    {
      "inputs": [
        {
          "internalType": "uint256",
          "name": "amountToBurn",
          "type": "uint256"
        }
      ],
      "name": "burnStreal",
      "outputs": [],
      "stateMutability": "nonpayable",
      "type": "function"
    },
    {
      "inputs": [
        {
          "internalType": "address",
          "name": "tokenCollateralAddress",
          "type": "address"
        },
        {
          "internalType": "uint256",
          "name": "amountCollateral",
          "type": "uint256"
        }
      ],
      "name": "calculateEquivalentAmountToMint",
      "outputs": [
        {
          "internalType": "uint256",
          "name": "",
          "type": "uint256"
        }
      ],
      "stateMutability": "view",
      "type": "function"
    },
    {
      "inputs": [
        {
          "internalType": "address",
          "name": "tokenCollateralAddress",
          "type": "address"
        },
        {
          "internalType": "uint256",
          "name": "_amount",
          "type": "uint256"
        }
      ],
      "name": "depositCollateral",
      "outputs": [],
      "stateMutability": "nonpayable",
      "type": "function"
    },
    {
      "inputs": [
        {
          "internalType": "address",
          "name": "user",
          "type": "address"
        }
      ],
      "name": "getAccountCollateralValueInUsd",
      "outputs": [
        {
          "internalType": "uint256",
          "name": "totalCollateralValueInUsd",
          "type": "uint256"
        }
      ],
      "stateMutability": "view",
      "type": "function"
    },
    {
      "inputs": [
        {
          "internalType": "address",
          "name": "tokenAddress",
          "type": "address"
        }
      ],
      "name": "getDecimals",
      "outputs": [
        {
          "internalType": "uint8",
          "name": "",
          "type": "uint8"
        }
      ],
      "stateMutability": "view",
      "type": "function"
    },
    {
      "inputs": [
        {
          "internalType": "address",
          "name": "token",
          "type": "address"
        },
        {
          "internalType": "uint256",
          "name": "amountInWei",
          "type": "uint256"
        }
      ],
      "name": "getTokenAmountFromMatic",
      "outputs": [
        {
          "internalType": "uint256",
          "name": "",
          "type": "uint256"
        }
      ],
      "stateMutability": "view",
      "type": "function"
    },
    {
      "inputs": [
        {
          "internalType": "address",
          "name": "token",
          "type": "address"
        },
        {
          "internalType": "uint256",
          "name": "amount",
          "type": "uint256"
        }
      ],
      "name": "getUsdValue",
      "outputs": [
        {
          "internalType": "uint256",
          "name": "",
          "type": "uint256"
        }
      ],
      "stateMutability": "view",
      "type": "function"
    },
    {
      "inputs": [],
      "name": "i_streal",
      "outputs": [
        {
          "internalType": "contract Streal2",
          "name": "",
          "type": "address"
        }
      ],
      "stateMutability": "view",
      "type": "function"
    },
    {
      "inputs": [
        {
          "internalType": "uint256",
          "name": "amountToMint",
          "type": "uint256"
        }
      ],
      "name": "mintStreal",
      "outputs": [],
      "stateMutability": "nonpayable",
      "type": "function"
    },
    {
      "inputs": [
        {
          "internalType": "address",
          "name": "",
          "type": "address"
        }
      ],
      "name": "mintedStreal",
      "outputs": [
        {
          "internalType": "uint256",
          "name": "",
          "type": "uint256"
        }
      ],
      "stateMutability": "view",
      "type": "function"
    },
    {
      "inputs": [],
      "name": "owner",
      "outputs": [
        {
          "internalType": "address",
          "name": "",
          "type": "address"
        }
      ],
      "stateMutability": "view",
      "type": "function"
    },
    {
      "inputs": [
        {
          "internalType": "address",
          "name": "",
          "type": "address"
        }
      ],
      "name": "priceFeed",
      "outputs": [
        {
          "internalType": "address",
          "name": "",
          "type": "address"
        }
      ],
      "stateMutability": "view",
      "type": "function"
    },
    {
      "inputs": [
        {
          "internalType": "uint256",
          "name": "",
          "type": "uint256"
        }
      ],
      "name": "priceFeedAddress",
      "outputs": [
        {
          "internalType": "address",
          "name": "",
          "type": "address"
        }
      ],
      "stateMutability": "view",
      "type": "function"
    },
    {
      "inputs": [
        {
          "internalType": "address",
          "name": "tokenCollateralAddress",
          "type": "address"
        },
        {
          "internalType": "uint256",
          "name": "amountCollateral",
          "type": "uint256"
        }
      ],
      "name": "redeemCollateral",
      "outputs": [],
      "stateMutability": "nonpayable",
      "type": "function"
    },
    {
      "inputs": [
        {
          "internalType": "address",
          "name": "tokenCollateralAddress",
          "type": "address"
        },
        {
          "internalType": "uint256",
          "name": "amountCollateral",
          "type": "uint256"
        },
        {
          "internalType": "uint256",
          "name": "amountStrealToBurn",
          "type": "uint256"
        }
      ],
      "name": "redeemCollateralForStreal",
      "outputs": [],
      "stateMutability": "nonpayable",
      "type": "function"
    },
    {
      "inputs": [],
      "name": "renounceOwnership",
      "outputs": [],
      "stateMutability": "nonpayable",
      "type": "function"
    },
    {
      "inputs": [],
      "name": "strealAddress",
      "outputs": [
        {
          "internalType": "address",
          "name": "",
          "type": "address"
        }
      ],
      "stateMutability": "view",
      "type": "function"
    },
    {
      "inputs": [
        {
          "internalType": "uint256",
          "name": "",
          "type": "uint256"
        }
      ],
      "name": "supportedTokens",
      "outputs": [
        {
          "internalType": "address",
          "name": "",
          "type": "address"
        }
      ],
      "stateMutability": "view",
      "type": "function"
    },
    {
      "inputs": [
        {
          "internalType": "address",
          "name": "newOwner",
          "type": "address"
        }
      ],
      "name": "transferOwnership",
      "outputs": [],
      "stateMutability": "nonpayable",
      "type": "function"
    },
    {
      "inputs": [],
      "name": "withdraw",
      "outputs": [],
      "stateMutability": "nonpayable",
      "type": "function"
    }
  ],
  "bytecode": "0x60a06040523480156200001157600080fd5b5060016000819055506200003a6200002e620004e260201b60201c565b620004ea60201b60201c565b604051806060016040528073acde43b9e5f72a4f554d4346e69e8e7ac8f352f073ffffffffffffffffffffffffffffffffffffffff1673ffffffffffffffffffffffffffffffffffffffff16815260200173e9dce89b076ba6107bb64ef30678efec1193923473ffffffffffffffffffffffffffffffffffffffff1673ffffffffffffffffffffffffffffffffffffffff16815260200173f14f9596430931e177469715c591513308244e8f73ffffffffffffffffffffffffffffffffffffffff1673ffffffffffffffffffffffffffffffffffffffff16815250600390600362000127929190620005b0565b5060405180606001604052807392c09849638959196e976289418e5973cc96d64573ffffffffffffffffffffffffffffffffffffffff1673ffffffffffffffffffffffffffffffffffffffff16815260200173572ddec9087154dc5dfbb1546bb62713147e0ab073ffffffffffffffffffffffffffffffffffffffff1673ffffffffffffffffffffffffffffffffffffffff168152602001730fcaa9c899ec5a91ebc3d5dd869de833b06fb04673ffffffffffffffffffffffffffffffffffffffff1673ffffffffffffffffffffffffffffffffffffffff16815250600490600362000215929190620005b0565b507362ce14c791315a3fa9722db58b010e29cbb6dbf1600560006101000a81548173ffffffffffffffffffffffffffffffffffffffff021916908373ffffffffffffffffffffffffffffffffffffffff16021790555060048054905060038054905014620002ba576040517f08c379a0000000000000000000000000000000000000000000000000000000008152600401620002b190620006bf565b60405180910390fd5b60005b600380549050811015620004855760048181548110620002e257620002e1620006e1565b5b9060005260206000200160009054906101000a900473ffffffffffffffffffffffffffffffffffffffff166008600060038481548110620003285762000327620006e1565b5b9060005260206000200160009054906101000a900473ffffffffffffffffffffffffffffffffffffffff1673ffffffffffffffffffffffffffffffffffffffff1673ffffffffffffffffffffffffffffffffffffffff16815260200190815260200160002060006101000a81548173ffffffffffffffffffffffffffffffffffffffff021916908373ffffffffffffffffffffffffffffffffffffffff160217905550600260038281548110620003e457620003e3620006e1565b5b9060005260206000200160009054906101000a900473ffffffffffffffffffffffffffffffffffffffff169080600181540180825580915050600190039060005260206000200160009091909190916101000a81548173ffffffffffffffffffffffffffffffffffffffff021916908373ffffffffffffffffffffffffffffffffffffffff16021790555080806200047c9062000749565b915050620002bd565b50600560009054906101000a900473ffffffffffffffffffffffffffffffffffffffff1673ffffffffffffffffffffffffffffffffffffffff1660808173ffffffffffffffffffffffffffffffffffffffff168152505062000796565b600033905090565b6000600160009054906101000a900473ffffffffffffffffffffffffffffffffffffffff16905081600160006101000a81548173ffffffffffffffffffffffffffffffffffffffff021916908373ffffffffffffffffffffffffffffffffffffffff1602179055508173ffffffffffffffffffffffffffffffffffffffff168173ffffffffffffffffffffffffffffffffffffffff167f8be0079c531659141344cd1fd0a4f28419497f9722a3daafe3b4186f6b6457e060405160405180910390a35050565b8280548282559060005260206000209081019282156200062c579160200282015b828111156200062b5782518260006101000a81548173ffffffffffffffffffffffffffffffffffffffff021916908373ffffffffffffffffffffffffffffffffffffffff16021790555091602001919060010190620005d1565b5b5090506200063b91906200063f565b5090565b5b808211156200065a57600081600090555060010162000640565b5090565b600082825260208201905092915050565b7f616472657373206d7573742062652073616d65206c656e677468000000000000600082015250565b6000620006a7601a836200065e565b9150620006b4826200066f565b602082019050919050565b60006020820190508181036000830152620006da8162000698565b9050919050565b7f4e487b7100000000000000000000000000000000000000000000000000000000600052603260045260246000fd5b7f4e487b7100000000000000000000000000000000000000000000000000000000600052601160045260246000fd5b6000819050919050565b600062000756826200073f565b91507fffffffffffffffffffffffffffffffffffffffffffffffffffffffffffffffff82036200078b576200078a62000710565b5b600182019050919050565b6080516125fc620007c760003960008181610a7c015281816112c4015281816114d401526115b601526125fc6000f3fe608060405234801561001057600080fd5b50600436106101735760003560e01c80639998dcbe116100de578063b98e42ae11610097578063cf54aaa011610071578063cf54aaa01461046e578063dc108f7e1461049e578063f2fde38b146104bc578063f70f4394146104d857610173565b8063b98e42ae146103f2578063c62556261461040e578063c660d1121461043e57610173565b80639998dcbe1461031e5780639acd81b31461034e578063a59548341461036a578063a5d5db0c1461039a578063afce2122146103b6578063b69ef8a8146103d457610173565b8063545af4fe11610130578063545af4fe1461025e5780635631abae1461028e5780635f66a768146102aa578063715018a6146102da57806389c935e3146102e45780638da5cb5b1461030057610173565b80630b579bfa146101785780631fd48b9a146101a85780631ff9b703146101d85780632f61ebc8146102085780633ccfd60b1461023857806347f443c914610242575b600080fd5b610192600480360381019061018d9190611912565b6104f6565b60405161019f9190611961565b60405180910390f35b6101c260048036038101906101bd919061197c565b61060b565b6040516101cf91906119b8565b60405180910390f35b6101f260048036038101906101ed919061197c565b61063e565b6040516101ff9190611961565b60405180910390f35b610222600480360381019061021d91906119d3565b610656565b60405161022f91906119b8565b60405180910390f35b610240610695565b005b61025c60048036038101906102579190611912565b61080f565b005b6102786004803603810190610273919061197c565b61081d565b6040516102859190611961565b60405180910390f35b6102a860048036038101906102a391906119d3565b610928565b005b6102c460048036038101906102bf91906119d3565b61098b565b6040516102d191906119b8565b60405180910390f35b6102e26109ca565b005b6102fe60048036038101906102f991906119d3565b6109de565b005b610308610b5f565b60405161031591906119b8565b60405180910390f35b61033860048036038101906103339190611a00565b610b89565b6040516103459190611961565b60405180910390f35b61036860048036038101906103639190611912565b610bae565b005b610384600480360381019061037f9190611912565b610c13565b6040516103919190611961565b60405180910390f35b6103b460048036038101906103af9190611912565b610c8a565b005b6103be610f57565b6040516103cb91906119b8565b60405180910390f35b6103dc610f7d565b6040516103e99190611afe565b60405180910390f35b61040c60048036038101906104079190611b20565b6110d9565b005b610428600480360381019061042391906119d3565b6110f1565b60405161043591906119b8565b60405180910390f35b61045860048036038101906104539190611912565b611130565b6040516104659190611961565b60405180910390f35b6104886004803603810190610483919061197c565b611245565b6040516104959190611b8f565b60405180910390f35b6104a66112c2565b6040516104b39190611c09565b60405180910390f35b6104d660048036038101906104d1919061197c565b6112e6565b005b6104e0611369565b6040516104ed9190611961565b60405180910390f35b600080600860008573ffffffffffffffffffffffffffffffffffffffff1673ffffffffffffffffffffffffffffffffffffffff16815260200190815260200160002060009054906101000a900473ffffffffffffffffffffffffffffffffffffffff16905060008173ffffffffffffffffffffffffffffffffffffffff1663feaf968c6040518163ffffffff1660e01b815260040160a060405180830381865afa1580156105a8573d6000803e3d6000fd5b505050506040513d601f19601f820116820180604052508101906105cc9190611cb1565b50505091505083670de0b6b3a76400006402540be400836105ed9190611d5b565b6105f79190611d5b565b6106019190611dcc565b9250505092915050565b60086020528060005260406000206000915054906101000a900473ffffffffffffffffffffffffffffffffffffffff1681565b60066020528060005260406000206000915090505481565b6004818154811061066657600080fd5b906000526020600020016000915054906101000a900473ffffffffffffffffffffffffffffffffffffffff1681565b61069d61136e565b60005b60038054905081101561080c576000600382815481106106c3576106c2611dfd565b5b9060005260206000200160009054906101000a900473ffffffffffffffffffffffffffffffffffffffff16905060008173ffffffffffffffffffffffffffffffffffffffff166370a08231306040518263ffffffff1660e01b815260040161072b91906119b8565b602060405180830381865afa158015610748573d6000803e3d6000fd5b505050506040513d601f19601f8201168201806040525081019061076c9190611e2c565b905060008111156107f7578173ffffffffffffffffffffffffffffffffffffffff1663a9059cbb33836040518363ffffffff1660e01b81526004016107b2929190611e59565b6020604051808303816000875af11580156107d1573d6000803e3d6000fd5b505050506040513d601f19601f820116820180604052508101906107f59190611eba565b505b5050808061080490611ee7565b9150506106a0565b50565b61081982826113ec565b5050565b600080600090505b6002805490508110156109225760006002828154811061084857610847611dfd565b5b9060005260206000200160009054906101000a900473ffffffffffffffffffffffffffffffffffffffff1690506000600760008673ffffffffffffffffffffffffffffffffffffffff1673ffffffffffffffffffffffffffffffffffffffff16815260200190815260200160002060008373ffffffffffffffffffffffffffffffffffffffff1673ffffffffffffffffffffffffffffffffffffffff1681526020019081526020016000205490506109008282611130565b8461090b9190611f2f565b93505050808061091a90611ee7565b915050610825565b50919050565b806000811161096c576040517f08c379a000000000000000000000000000000000000000000000000000000000815260040161096390611fc0565b60405180910390fd5b61097461142b565b61097f82333361147a565b610987611645565b5050565b6002818154811061099b57600080fd5b906000526020600020016000915054906101000a900473ffffffffffffffffffffffffffffffffffffffff1681565b6109d261136e565b6109dc600061164f565b565b8060008111610a22576040517f08c379a0000000000000000000000000000000000000000000000000000000008152600401610a1990611fc0565b60405180910390fd5b81600660003373ffffffffffffffffffffffffffffffffffffffff1673ffffffffffffffffffffffffffffffffffffffff1681526020019081526020016000206000828254610a719190611f2f565b9250508190555060007f000000000000000000000000000000000000000000000000000000000000000073ffffffffffffffffffffffffffffffffffffffff166340c10f1933856040518363ffffffff1660e01b8152600401610ad5929190611e59565b6020604051808303816000875af1158015610af4573d6000803e3d6000fd5b505050506040513d601f19601f82011682018060405250810190610b189190611eba565b905080610b5a576040517f08c379a0000000000000000000000000000000000000000000000000000000008152600401610b5190612052565b60405180910390fd5b505050565b6000600160009054906101000a900473ffffffffffffffffffffffffffffffffffffffff16905090565b6007602052816000526040600020602052806000526040600020600091509150505481565b8060008111610bf2576040517f08c379a0000000000000000000000000000000000000000000000000000000008152600401610be990611fc0565b60405180910390fd5b610bfa61142b565b610c0683833333611715565b610c0e611645565b505050565b600080610c1f84611245565b9050600081600a610c3091906121a5565b84610c3b9190611d5b565b90506000674563918244f400009050600081846012610c5a91906121f0565b600a610c6691906121a5565b84610c719190611d5b565b610c7b9190611dcc565b90508094505050505092915050565b8060008111610cce576040517f08c379a0000000000000000000000000000000000000000000000000000000008152600401610cc590611fc0565b60405180910390fd5b610cd661142b565b82600073ffffffffffffffffffffffffffffffffffffffff16600860008373ffffffffffffffffffffffffffffffffffffffff1673ffffffffffffffffffffffffffffffffffffffff16815260200190815260200160002060009054906101000a900473ffffffffffffffffffffffffffffffffffffffff1673ffffffffffffffffffffffffffffffffffffffff1603610da5576040517f08c379a0000000000000000000000000000000000000000000000000000000008152600401610d9c90612271565b60405180910390fd5b6000610db085611245565b9050600081600a610dc191906121a5565b85610dcc9190611d5b565b905080600760003373ffffffffffffffffffffffffffffffffffffffff1673ffffffffffffffffffffffffffffffffffffffff16815260200190815260200160002060008873ffffffffffffffffffffffffffffffffffffffff1673ffffffffffffffffffffffffffffffffffffffff1681526020019081526020016000206000828254610e5a9190611f2f565b925050819055508573ffffffffffffffffffffffffffffffffffffffff163373ffffffffffffffffffffffffffffffffffffffff167fe4c032bd651f378a59936633a0f92b7497fd3577f65c95dc20a01acface334cc83604051610ebe9190611961565b60405180910390a38573ffffffffffffffffffffffffffffffffffffffff166323b872dd3330846040518463ffffffff1660e01b8152600401610f0393929190612291565b6020604051808303816000875af1158015610f22573d6000803e3d6000fd5b505050506040513d601f19601f82011682018060405250810190610f469190611eba565b50505050610f52611645565b505050565b600560009054906101000a900473ffffffffffffffffffffffffffffffffffffffff1681565b6060600060038054905067ffffffffffffffff811115610fa057610f9f6122c8565b5b604051908082528060200260200182016040528015610fce5781602001602082028036833780820191505090505b50905060005b6003805490508110156110d157600060038281548110610ff757610ff6611dfd565b5b9060005260206000200160009054906101000a900473ffffffffffffffffffffffffffffffffffffffff1690508073ffffffffffffffffffffffffffffffffffffffff166370a08231306040518263ffffffff1660e01b815260040161105d91906119b8565b602060405180830381865afa15801561107a573d6000803e3d6000fd5b505050506040513d601f19601f8201168201806040525081019061109e9190611e2c565b8383815181106110b1576110b0611dfd565b5b6020026020010181815250505080806110c990611ee7565b915050610fd4565b508091505090565b6110e281610928565b6110ec8383610bae565b505050565b6003818154811061110157600080fd5b906000526020600020016000915054906101000a900473ffffffffffffffffffffffffffffffffffffffff1681565b600080600860008573ffffffffffffffffffffffffffffffffffffffff1673ffffffffffffffffffffffffffffffffffffffff16815260200190815260200160002060009054906101000a900473ffffffffffffffffffffffffffffffffffffffff16905060008173ffffffffffffffffffffffffffffffffffffffff1663feaf968c6040518163ffffffff1660e01b815260040160a060405180830381865afa1580156111e2573d6000803e3d6000fd5b505050506040513d601f19601f820116820180604052508101906112069190611cb1565b505050915050670de0b6b3a7640000846402540be400836112279190611d5b565b6112319190611d5b565b61123b9190611dcc565b9250505092915050565b6000808290508073ffffffffffffffffffffffffffffffffffffffff1663313ce5676040518163ffffffff1660e01b8152600401602060405180830381865afa158015611296573d6000803e3d6000fd5b505050506040513d601f19601f820116820180604052508101906112ba9190612323565b915050919050565b7f000000000000000000000000000000000000000000000000000000000000000081565b6112ee61136e565b600073ffffffffffffffffffffffffffffffffffffffff168173ffffffffffffffffffffffffffffffffffffffff160361135d576040517f08c379a0000000000000000000000000000000000000000000000000000000008152600401611354906123c2565b60405180910390fd5b6113668161164f565b50565b600a81565b611376611871565b73ffffffffffffffffffffffffffffffffffffffff16611394610b5f565b73ffffffffffffffffffffffffffffffffffffffff16146113ea576040517f08c379a00000000000000000000000000000000000000000000000000000000081526004016113e19061242e565b60405180910390fd5b565b6113f68282610c8a565b60006114028383610c13565b90506000670de0b6b3a76400008261141a9190611d5b565b9050611425816109de565b50505050565b600260005403611470576040517f08c379a00000000000000000000000000000000000000000000000000000000081526004016114679061249a565b60405180910390fd5b6002600081905550565b82600660008473ffffffffffffffffffffffffffffffffffffffff1673ffffffffffffffffffffffffffffffffffffffff16815260200190815260200160002060008282546114c991906124ba565b9250508190555060007f000000000000000000000000000000000000000000000000000000000000000073ffffffffffffffffffffffffffffffffffffffff166323b872dd8330876040518463ffffffff1660e01b815260040161152f93929190612291565b6020604051808303816000875af115801561154e573d6000803e3d6000fd5b505050506040513d601f19601f820116820180604052508101906115729190611eba565b9050806115b4576040517f08c379a00000000000000000000000000000000000000000000000000000000081526004016115ab9061253a565b60405180910390fd5b7f000000000000000000000000000000000000000000000000000000000000000073ffffffffffffffffffffffffffffffffffffffff166342966c68856040518263ffffffff1660e01b815260040161160d9190611961565b600060405180830381600087803b15801561162757600080fd5b505af115801561163b573d6000803e3d6000fd5b5050505050505050565b6001600081905550565b6000600160009054906101000a900473ffffffffffffffffffffffffffffffffffffffff16905081600160006101000a81548173ffffffffffffffffffffffffffffffffffffffff021916908373ffffffffffffffffffffffffffffffffffffffff1602179055508173ffffffffffffffffffffffffffffffffffffffff168173ffffffffffffffffffffffffffffffffffffffff167f8be0079c531659141344cd1fd0a4f28419497f9722a3daafe3b4186f6b6457e060405160405180910390a35050565b82600760008473ffffffffffffffffffffffffffffffffffffffff1673ffffffffffffffffffffffffffffffffffffffff16815260200190815260200160002060008673ffffffffffffffffffffffffffffffffffffffff1673ffffffffffffffffffffffffffffffffffffffff16815260200190815260200160002060008282546117a191906124ba565b9250508190555060008473ffffffffffffffffffffffffffffffffffffffff1663a9059cbb83866040518363ffffffff1660e01b81526004016117e5929190611e59565b6020604051808303816000875af1158015611804573d6000803e3d6000fd5b505050506040513d601f19601f820116820180604052508101906118289190611eba565b90508061186a576040517f08c379a0000000000000000000000000000000000000000000000000000000008152600401611861906125a6565b60405180910390fd5b5050505050565b600033905090565b600080fd5b600073ffffffffffffffffffffffffffffffffffffffff82169050919050565b60006118a98261187e565b9050919050565b6118b98161189e565b81146118c457600080fd5b50565b6000813590506118d6816118b0565b92915050565b6000819050919050565b6118ef816118dc565b81146118fa57600080fd5b50565b60008135905061190c816118e6565b92915050565b6000806040838503121561192957611928611879565b5b6000611937858286016118c7565b9250506020611948858286016118fd565b9150509250929050565b61195b816118dc565b82525050565b60006020820190506119766000830184611952565b92915050565b60006020828403121561199257611991611879565b5b60006119a0848285016118c7565b91505092915050565b6119b28161189e565b82525050565b60006020820190506119cd60008301846119a9565b92915050565b6000602082840312156119e9576119e8611879565b5b60006119f7848285016118fd565b91505092915050565b60008060408385031215611a1757611a16611879565b5b6000611a25858286016118c7565b9250506020611a36858286016118c7565b9150509250929050565b600081519050919050565b600082825260208201905092915050565b6000819050602082019050919050565b611a75816118dc565b82525050565b6000611a878383611a6c565b60208301905092915050565b6000602082019050919050565b6000611aab82611a40565b611ab58185611a4b565b9350611ac083611a5c565b8060005b83811015611af1578151611ad88882611a7b565b9750611ae383611a93565b925050600181019050611ac4565b5085935050505092915050565b60006020820190508181036000830152611b188184611aa0565b905092915050565b600080600060608486031215611b3957611b38611879565b5b6000611b47868287016118c7565b9350506020611b58868287016118fd565b9250506040611b69868287016118fd565b9150509250925092565b600060ff82169050919050565b611b8981611b73565b82525050565b6000602082019050611ba46000830184611b80565b92915050565b6000819050919050565b6000611bcf611bca611bc58461187e565b611baa565b61187e565b9050919050565b6000611be182611bb4565b9050919050565b6000611bf382611bd6565b9050919050565b611c0381611be8565b82525050565b6000602082019050611c1e6000830184611bfa565b92915050565b600069ffffffffffffffffffff82169050919050565b611c4381611c24565b8114611c4e57600080fd5b50565b600081519050611c6081611c3a565b92915050565b6000819050919050565b611c7981611c66565b8114611c8457600080fd5b50565b600081519050611c9681611c70565b92915050565b600081519050611cab816118e6565b92915050565b600080600080600060a08688031215611ccd57611ccc611879565b5b6000611cdb88828901611c51565b9550506020611cec88828901611c87565b9450506040611cfd88828901611c9c565b9350506060611d0e88828901611c9c565b9250506080611d1f88828901611c51565b9150509295509295909350565b7f4e487b7100000000000000000000000000000000000000000000000000000000600052601160045260246000fd5b6000611d66826118dc565b9150611d71836118dc565b9250828202611d7f816118dc565b91508282048414831517611d9657611d95611d2c565b5b5092915050565b7f4e487b7100000000000000000000000000000000000000000000000000000000600052601260045260246000fd5b6000611dd7826118dc565b9150611de2836118dc565b925082611df257611df1611d9d565b5b828204905092915050565b7f4e487b7100000000000000000000000000000000000000000000000000000000600052603260045260246000fd5b600060208284031215611e4257611e41611879565b5b6000611e5084828501611c9c565b91505092915050565b6000604082019050611e6e60008301856119a9565b611e7b6020830184611952565b9392505050565b60008115159050919050565b611e9781611e82565b8114611ea257600080fd5b50565b600081519050611eb481611e8e565b92915050565b600060208284031215611ed057611ecf611879565b5b6000611ede84828501611ea5565b91505092915050565b6000611ef2826118dc565b91507fffffffffffffffffffffffffffffffffffffffffffffffffffffffffffffffff8203611f2457611f23611d2c565b5b600182019050919050565b6000611f3a826118dc565b9150611f45836118dc565b9250828201905080821115611f5d57611f5c611d2c565b5b92915050565b600082825260208201905092915050565b7f616d6f756e74206d7573742062652067726561746572207468616e207a65726f600082015250565b6000611faa602083611f63565b9150611fb582611f74565b602082019050919050565b60006020820190508181036000830152611fd981611f9d565b9050919050565b7f6d696e74206661696c65642c20636865636b206d696e7453747265616c20667560008201527f6e6374696f6e0000000000000000000000000000000000000000000000000000602082015250565b600061203c602683611f63565b915061204782611fe0565b604082019050919050565b6000602082019050818103600083015261206b8161202f565b9050919050565b60008160011c9050919050565b6000808291508390505b60018511156120c9578086048111156120a5576120a4611d2c565b5b60018516156120b45780820291505b80810290506120c285612072565b9450612089565b94509492505050565b6000826120e2576001905061219e565b816120f0576000905061219e565b816001811461210657600281146121105761213f565b600191505061219e565b60ff84111561212257612121611d2c565b5b8360020a91508482111561213957612138611d2c565b5b5061219e565b5060208310610133831016604e8410600b84101617156121745782820a90508381111561216f5761216e611d2c565b5b61219e565b612181848484600161207f565b9250905081840481111561219857612197611d2c565b5b81810290505b9392505050565b60006121b0826118dc565b91506121bb83611b73565b92506121e87fffffffffffffffffffffffffffffffffffffffffffffffffffffffffffffffff84846120d2565b905092915050565b60006121fb82611b73565b915061220683611b73565b9250828203905060ff81111561221f5761221e611d2c565b5b92915050565b7f696e76616c696420746f6b656e00000000000000000000000000000000000000600082015250565b600061225b600d83611f63565b915061226682612225565b602082019050919050565b6000602082019050818103600083015261228a8161224e565b9050919050565b60006060820190506122a660008301866119a9565b6122b360208301856119a9565b6122c06040830184611952565b949350505050565b7f4e487b7100000000000000000000000000000000000000000000000000000000600052604160045260246000fd5b61230081611b73565b811461230b57600080fd5b50565b60008151905061231d816122f7565b92915050565b60006020828403121561233957612338611879565b5b60006123478482850161230e565b91505092915050565b7f4f776e61626c653a206e6577206f776e657220697320746865207a65726f206160008201527f6464726573730000000000000000000000000000000000000000000000000000602082015250565b60006123ac602683611f63565b91506123b782612350565b604082019050919050565b600060208201905081810360008301526123db8161239f565b9050919050565b7f4f776e61626c653a2063616c6c6572206973206e6f7420746865206f776e6572600082015250565b6000612418602083611f63565b9150612423826123e2565b602082019050919050565b600060208201905081810360008301526124478161240b565b9050919050565b7f5265656e7472616e637947756172643a207265656e7472616e742063616c6c00600082015250565b6000612484601f83611f63565b915061248f8261244e565b602082019050919050565b600060208201905081810360008301526124b381612477565b9050919050565b60006124c5826118dc565b91506124d0836118dc565b92508282039050818111156124e8576124e7611d2c565b5b92915050565b7f6661696c656420746f206275726e000000000000000000000000000000000000600082015250565b6000612524600e83611f63565b915061252f826124ee565b602082019050919050565b6000602082019050818103600083015261255381612517565b9050919050565b7f72656465656d20636f6c6c61746572616c206661696c65640000000000000000600082015250565b6000612590601883611f63565b915061259b8261255a565b602082019050919050565b600060208201905081810360008301526125bf81612583565b905091905056fea2646970667358221220c4275631109843e01136f727d2533f591d08d857490eae0467c785ab81cbb14a64736f6c63430008120033",
  "linkReferences": {},
  "deployedLinkReferences": {}
}